:020000040000FA
:0600000002010A021D2EA0
:03002B00021F961B
:03003B00021FAFF2
:03004300021F4158
:03005300021DA4E7
:03006B00021F670A
:10008300021C1FE5C754F84401F5C779012200009B
:100093000080FB120086B900030200F4E4791A78A9
:1000A30002B800028004F709D8FCE4791C7802B88E
:1000B30000028004F709D8FCE49002817889790F63
:1000C3008002F0A3D8FCD9FA901109AA82AB8390DD
:1000D300013A78D479018015E493A3AC82AD838A85
:1000E300828B83F0A3AA82AB838C828D83D8E9D9D8
:1000F300E775822B7583BB740312011C758291759E
:100103008300740012011C75D00075813F7518813E
:10011300751902759F00020096C09FF59FE473D086
:100123009F22D083D082C09FE493C0E0740193C028
:10013300E0740293F59F229903AB03D5039F03FF5A
:100143000000B4000028002800283075A000A0009B
:10015300A000A00000080008E001F000100010005B
:10016300100010001000100050005000500010004C
:100173001000D0070000000000000F000100050080
:10018300307507001000010081FF0000FF0202022A
:100193001091010000FF900214910100005F110211
:1001A3000691010000B102021491010000601102E6
:1001B3000491010000C702FFFF0100FF200210911C
:1001C300010000FC900214910100008E11020291C3
:1001D3000000000000020891030000A403850B85C2
:1001E3000B850B850B850B850B850B850B850B858C
:1001F3000B850B850B850B9B0DB90D950DFFFF0132
:10020300E803053F1002FF00FEFF1201254CB20375
:1002130012012562B2031201258FB203120125BF19
:10022300B203120125D6B203120125F7B20312015C
:100233002528B30312012579B30312012590B303D3
:1002430012012579AD0312012590AD03120125BFDB
:10025300AD03120125F8AD0312012520AE031201EF
:10026300254EAE0312012565AE031201257CAE03B4
:1002730012012592AE03120125B9AE03120125CC5A
:10028300AE03120125E2AE031201250AAF031201E8
:1002930025228D02120125218E021201254B8E0289
:1002A300120125A08E02120125C18E02120125DA48
:1002B3008E02120125DC8E02120125FD8E0212012F
:1002C30025009002120125BD90021201258A910298
:1002D300120125EE91021201258592021201258851
:1002E30092021201250E930212012551930212016B
:1002F30025A39302120125A69302120125DD930281
:100303001201250494021201259A94021201252355
:1003130095021201256C95021201257995021201AD
:10032300257C9502120125DA9502120125F2950228
:100333001201256C96021201256F96021201259275
:1003430096021201259596021201253C970212018D
:10035300255F9702120125779702120125A79702BD
:10036300120125B49702120125B797021201252322
:100373009802120125119902120125C7990212014F
:1003830025B8AF0212012593B002120125C1B002B4
:1003930012012541B10212012561B1021201259F0B
:1003A300B102120125F2B1021201255AB202120161
:1003B30025EBB202120125B6B302120125C5B6021E
:1003C30012012531B80212012554B8021201258108
:1003D3009803120125129A03120125639A0312014D
:1003E30025C29A03120125D09A03120125F99A0313
:1003F300120125CDED02120125F5ED02120125238F
:10040300EE021201255AEE02120125C2EE0212017A
:10041300250BEF0212012556EF0212012594EF027C
:10042300120125D1EF02120125FFEF02120125A6C9
:10043300F002120125B0F002120125BDF0021201F3
:1004430025F0F002120125B2F102120125BEF102DC
:10045300120125D6F102120125E0F1021201255EF7
:10046300F202120125BEB703120125CCB703120114
:1004730025E4B703120125FCB70312012514B803C1
:10048300120125F8D20112012596D3011201250E7E
:10049300D40112012523D5011201255DD5011201D5
:1004A3002506D601120125DBD6011201253FD8010D
:1004B30012012596D8011201251DD9011201250427
:1004C300DA0112012551DA01120125DFDA011201E5
:1004D3002503DB01120125D8DC0112012519DD01F9
:1004E3001201253BDD0112012500DE01120125C6A3
:1004F300DE01120125FBE001120125FF9003120129
:10050300251591031201253B9103120125639203E3
:100513001201256D9203120125C69303120125C60C
:100523009403120125008003120125A28003120106
:1005330025D580031201251F8103120125D98203CA
:100543001201251E91011201259C9101120125AC76
:1005530091011201258F9201120125999201120135
:1005630025C79201120125D29201120125AB9301F5
:100573001201250D9401120125A99401120125AD43
:100583009601120125649801120125E098011201D8
:1005930025BD9901120125EB9C01120125899D01BD
:1005A300120125E69E0112012559A001120125021F
:1005B300A1011201254BA10112012582A101120102
:1005C3002527A201120125A5A20112012578B50153
:1005D300120125CDB50112012512B7011201252201
:1005E300B70112012545B70112012590B701120188
:1005F3002535B8011201252BB901120125F5B901E1
:100603001201256DBB01120125AFBB011201254D5E
:10061300BC0112012573BC0112012561BE01120147
:100623002566BE0112012547C0011201259BC001A9
:10063300120125FDC00112012525C101120125C9A1
:10064300C1011201258BC201120125BCC201120195
:1006530025BFC20112012507C30112012549C301A8
:10066300120125B0C30112012581A50312012594AE
:10067300A5031201259DA503120125B6A5031201A9
:100683002501A603120125DCA6031201256BA7038E
:10069300120125B6A70312012524200012012534D7
:1006A3002000120125972000120125DC20001201F1
:1006B300258C21001201256522001201258E2200BE
:1006C300120125BE2200120125D22400120125AEFB
:1006D30026001201258E2800120125C629001201C9
:1006E300253F2C001201252B2D00120125712E0010
:1006F3001201257E2F00120125C02F00120125F8BB
:100703002F001201251230001201257A3000120148
:1007130025143500120125B53500120125093600CF
:100723001201253036001201256E36001201258D87
:100733003600120125E13600120125E937001201C6
:100743002572380012012509E80212012513E80277
:10075300120125AFE8021201257AE9021201259957
:10076300E902120125BFE902120125FEE902120185
:100773002536EA021201255FEA0212012599EA02EF
:10078300120125AEEA021201257BEB021201259E1E
:10079300EB02120125C0EB02120125D5EB02120177
:1007A300255FEC0212012599EC021201250DED02E1
:1007B30012012556ED0212012580ED02120125A535
:1007C300ED02120125138D03120125DD8D031201A4
:1007D30025C08E03120125368F03120125788F035E
:1007E300120125A590031201250AE1011201253307
:1007F300E1011201254CE10112012591E2011201EF
:10080300256FE3011201258EE3011201251BE4018B
:100813001201255EE40112012596E501120125026C
:10082300E601120125F8E70112012586EA0112010A
:100833002519EB01120125EDEB0112012590EC01C5
:10084300120125A3ED0112012539EE01120125B88C
:10085300B40312012521B50312012575B503120155
:1008630025A4B5031201257C8403120125E9840321
:10087300120125348503120125298603120125253A
:1008830087031201250F880312012583DA0212015F
:1008930025CADA02120125A3DB021201259EDC021E
:1008A3001201257DDD02120125E9DD021201250574
:1008B300DF021201256CDF021201256FDF02120134
:1008C300259ADF021201250BE002120125AEE00298
:1008D300120125C3E0021201250BE10212012524B6
:1008E300E10212012527E102120125119C031201E5
:1008F300254D9C031201258B9C03120125559D0355
:10090300120125C89D03120125039E0312012541EF
:100913009E03120125719E03120125989E03120165
:1009230025039F03120125459F03120125AF65008F
:10093300120125716700120125096900120125B012
:100943006900120125F769001201253B6A001201B3
:10095300254D6A001201258D6A00120125BC6A002B
:10096300120125076B00120125476B001201257543
:100973006B00120125C66B00120125536C00120196
:10098300259C6D00120125906E0012012545700013
:10099300120125E874001201253175001201257832
:1009A30075001201258E7700120125DBA2031201C7
:1009B300254DA303120125A3A303120125E7A303D6
:1009C30012012507A40312012554A4031201259C37
:1009D300A403120125EFA40312012540A50312016C
:1009E30025D938001201252239001201254F39007B
:1009F3001201258239001201259239001201259E28
:100A03003900120125AF3900120125843A00120181
:100A130025E23A00120125173B00120125B33C00E1
:100A2300120125053D00120125533D00120125AF9A
:100A33003D00120125AB3E00120125314000120199
:100A430025084100120125184100120125344100F7
:100A5300120125374100120125F14100120125BA87
:100A63004200120125604300120125BF4300120119
:100A730025474400120125AC44001201253B4500E3
:100A8300120125044600120125A146001201252862
:100A930047001201257F4700120125E0470012019C
:100AA300251A4800120125C84800120125C04A0032
:100AB300120125104B00120125534B00120125C8CA
:100AC3004B00120125544C001201259F4C001201CA
:100AD30025C44C00120125154D00120125374D0088
:100AE3001201257C4D00120125EB4D001201252D2D
:100AF3004E001201252D4F00120125B54F001201A2
:100B0300258650001201259F50001201258CB90241
:100B1300120125DFB902120125EBB902120125C02A
:100B2300BA02120125E7BA0212012522BB02120101
:100B3300258EBB02120125C2BB02120125FBBB029B
:100B430012012513BC021201256CBC02120125857A
:100B5300BC02120125CEBC02120125E1BC02120126
:100B630025FBBC0212012511BD021201252DBE0277
:100B73001201253EBF021201258BC002120125700E
:100B8300C102120125192000120125F0F7021201FA
:100B93002562FB021201257AFC0212012500800264
:100BA300120125F38502120125F985021201257927
:100BB3008802120125EFF2021201259AF3021201B3
:100BC300254AF4021201256FF40212012566F6028A
:100BD300120125B9F70212012559A3011201258D2E
:100BE300A301120125E1AB011201252DAD01120173
:100BF300254AAE01120125D4AF01120125B6B00179
:100C0300120125F0B00112012513B101120125557E
:100C1300B1011201259FB101120125A9B1011201F0
:100C23002555B20112012529B3011201257DB30116
:100C3300120125DFB30112012532B401120125612E
:100C4300B401120125A0B4011201258D9F031201E5
:100C53002503A00312012519A00312012556A003A1
:100C63001201258EA0031201250BA10312012546B3
:100C7300A103120125C1A103120125FDA103120144
:100C83002506A20312012512A2031201252CA20399
:100C930012012551A20312012567A203120125ABFC
:100CA300A2031201254BE1021201255EE1021201AA
:100CB3002578E102120125A1E102120125E4E102F6
:100CC30012012523E20212012561E202120125C667
:100CD300E202120125DBE202120125F2E202120115
:100CE3002500E3021201250FE30212012524E3028A
:100CF30012012539E30212012544E30212012550B2
:100D0300E3021201255DE30212012570E3021201E1
:100D1300257BE302120125A0E30212012549E40227
:100D23001201255EE40212012573E4021201258DEE
:100D3300E402120125A8E402120125C5E40212010E
:100D430025D0E4021201258CE50212012578E60282
:100D53001201259DE602120125A7E602120125BB19
:100D6300E602120125DAE6021201253BE70212012F
:100D73002541E70212012547E7021201254DE7024B
:100D830012012559E7021201258CE7021201258180
:100D9300A502120125ADA50212012591A602120199
:100DA300252BA90212012541AA021201255EAB02DD
:100DB30012012501AC02120125A7AC02120125B5CF
:100DC300EE0112012537EF01120125E0EF011201B7
:100DD3002528F10112012536F3011201251CF40126
:100DE30012012551F40112012573F4011201251C8E
:100DF300F501120125ECF60112012515F701120187
:100E0300258DF701120125BFF701120125CCF7014A
:100E130012012517F8011201253BF8011201258C57
:100E2300FA0112012596FB01120125F2FB011201C1
:100E3300257AC4011201258BC5011201256FC60154
:100E430012012579C6011201259BC601120125A7AE
:100E5300C6011201254BC80112012578C8011201F0
:100E6300258EC901120125E3C90112012532CB01E7
:100E730012012507CC0112012563CC01120125CEF5
:100E8300CC0112012503CD0112012546CD0112012A
:100E93002510D00112012528D001120125B9D00156
:100EA300120125C7D00112012514D10112012522F7
:100EB300D1011201258ED10112012509D20112019E
:100EC3002560D201120125C0AB03120125E5AB0356
:100ED3001201255BAC0312012594D3021201259D57
:100EE300D302120125A6D3021201257ED4021201D8
:100EF300252FD6021201255FD6021201258AD602BA
:100F0300120125BAD602120125E5D60212012519CE
:100F1300D70212012545D70212012588D7021201F3
:100F230025B3D702120125FAD7021201254FD802A1
:100F330012012591D802120125EBD80212012516C0
:100F4300D90212012565D90212012595D902120190
:100F530025C0D902120125E3D902120125D5B9030F
:100F630012012501BA031201252EBA0312012538F5
:100F7300BA0312012548BA0312012563CB021201F9
:100F8300256DCB02120125AECB02120125F7CB0250
:100F930012012531CC0212012587CC02120125A8AA
:100FA300CC0212012557CF0212012560CF02120194
:100FB30025B4CF02120125DDCF02120125E7CF02AE
:100FC30012012555D002120125E5D0021201254058
:100FD300D1021201256ED102120125F6D1021201AE
:100FE3002535D2021201256AD2021201257CD202D2
:100FF3001201259BD202120125A4D20212012566F9
:10100300D302120125C7B603120125E0A70312017B
:101013002516A8031201254AA80312012597A9033F
:10102300120125C1BA03120125D7BA03120125E122
:10103300BA03120125D18803120125E488031201A2
:1010430025A88903120125E78903120125048A03D0
:101053001201253D8A031201258A8A03120125BC48
:101063008A03120125F38A03120125068D03120157
:10107300259DFF02120125B4B003120125D7B00349
:1010830012012506B1031201259EB103120125B6F3
:10109300B103120125F8B103120125BB7900120136
:1010A30025FD79001201257D7A00120125907A0031
:1010B300120125E57A00120125397B001201257EF4
:1010C3007B001201258D7B001201253C7C0012015F
:1010D30025977C00120125E67C00120125407D0046
:1010E3001201254D7E00120125457F001201258244
:1010F3007F0012012552BA03120125D150001201BB
:1011030025CF52001201256C5400120125195500F8
:101113001201259955001201251B56001201254481
:101123005600120125965600120125CF5A001201CE
:1011330025465B001201255D5C00120125975C00CA
:10114300120125D85C001201251F5E001201254EF5
:101153005E00120125A45E00120125ED5E0012015E
:1011630025595F00120125CD5F00120125FB5F00A9
:101173001201251360001201252C61001201253C88
:101183006100120125F762001201250E63001201AE
:1011930025406300120125DD6400120125716500FD
:1011A3001201254DBC031201257EBB03120125BD8F
:1011B300BB031201253ABC03120125ADB80312018A
:1011C30025BDB803120125D8B80312012540B90380
:1011D300120125C5B5031201254AB603120125AE36
:1011E300B603120125A7B303120125C9B3031201E4
:1011F300252AB4031201257AB403120125D1A903C8
:10120300120125E6A90312012522AA03120125A230
:10121300AA0312012516AB0312012530AB031201F9
:101223002543AB0312012551AB031201256BAB031D
:101233001201258BAB03120125D09403120125E77C
:1012430094031201256195031201254596031201AA
:10125300251C98031201253FFC01120125CFFC0137
:1012630012012558FD01120125F4FD011201258506
:10127300FE0112012535FF0112012543FF01120171
:1012830025C1FF01120125D4FF01120125EAFF0147
:10129300120125F4FF011201254AB903120125BAEF
:1012A300B903120125C5B9031201251CAF031201AD
:1012B300256EAF03120125E1AF031201254EB003E2
:1012C300120125C5FC02120125EFFC02120125BE05
:1012D300FD021201259AFE021201252BFF021201C3
:1012E300252DC302120125F9C3021201253AC402B6
:1012F30012012574C402120125D2C402120125264B
:10130300C50212012584C5021201251AC602120163
:101313002522C702120125ACC8021201254AC902BF
:10132300120125B1C902120125C4C902120125B84F
:10133300CA0212012501CB021201253F9A021201B2
:1013430025889C02120125A19D02120125CB9E0234
:10135300120125959F02120125BC9F021201253817
:10136300A20212012588A20212012526A30212015C
:101373002557A402120125FFA402120125C7BB03AE
:10138300120125BA7F00120125F4BB031201251CAB
:10139300BC03E066701008A3E066700A08A3E06669
:1013A300700408A3E06622C3E7960809E7960809D4
:1013B300E7960809E79622C3E09608A3E09608A3F8
:1013C300E09608A3E09622C008C3E096F50808A3B8
:1013D300E096420808A3E096420808A3E096450871
:1013E3007001D3D00822080808EAC0E0EBC0E08609
:1013F300F0E7A4FA180986F0E7A42AFA180986F098
:10140300E7A42AFA180986F0E7A42AFA1986F0E76E
:10141300A4FBE5F02AFA190886F0E7A42BFBE5F014
:101423003AFA190886F0E7A42BFBE5F03AFA181804
:101433000986F0E7A4C5F02BFBE43AFA1908E7C5DF
:10144300F0C6A426F6E5F03BFBE43AFA1886F0E78B
:10145300A4F6E5F00826F6E43B08F6E43A08F6D0ED
:10146300E0FBD0E0FA22E4CFC0E0E4CEC0E0E4CD7C
:10147300C0E0E4CCC0E075F020C3E633F608E63301
:10148300F608E633F608E633F6181818EC33FCEDE5
:1014930033FDEE33FEEF33FFC3EC9709ED9709EE0F
:1014A3009709EF97191919400FFFEC97FC09ED976E
:1014B300FD09EE97FE191906D5F0BEECF709EDF715
:1014C30009EEF709EFF7191919D0E0FCD0E0FDD0C8
:1014D300E0FED0E0FF226016080808C6C313C61852
:1014E300C613C618C613C618C613C6D5E0EA2270BB
:1014F30009080808226016181818C6C333C608C698
:1015030033C608C633C608C633C6D5E0EA22E62783
:10151300F60809E637F60809E637F60809E637F666
:1015230022E026F608A3E036F608A3E036F608A381
:10153300E036F622E026F008A3E036F008A3E03612
:10154300F008A3E036F022C3E697F60809E697F61B
:101553000809E697F60809E697F622C3E096F0082D
:10156300A3E096F008A3E096F008A3E096F022E645
:1015730057F60809E657F60809E657F60809E65745
:10158300F622E056F608A3E056F608A3E056F6085E
:10159300A3E056F622E056F008A3E056F008A3E0D5
:1015A30056F008A3E056F022E066F608A3E066F6DC
:1015B30008A3E066F608A3E066F622E0F608A3E0D7
:1015C300F608A3E0F608A3E0F622E6F008A3E6F0A7
:1015D30008A3E6F008A3E6F022E0FAA3E0FBA3E009
:1015E300FCA3E0FD22EAF0A3EBF0A3ECF0A3EDF003
:1015F30022CAC0E0E6F0A308DAFAD0E0FA22CAC0B1
:10160300E0E0A3C582CCC582C583CDC583F0A3C565
:1016130082CCC582C583CDC583DAE6D0E0CA22C3B6
:10162300E498F8E499F91216638026C3E49AFAE47D
:101633009BFBE920E7E9121663E498F8E499F922A1
:10164300C3E498F8E499F9121663E498F8E499F975
:10165300C3E49AFAE49BFB22EB20E7CFE920E7E01F
:10166300B90010BB0008E88AF084F8AAF022E4FB72
:10167300C8FA22EB70227B10C833C8C933C9335070
:1016830007C39AC3DBF280069A50012ADBEAC83308
:10169300F4C8C933F4C9FA2275F008E4C833C8C9D9
:1016A30033C933C99AC99B5004C92AC93BD5F0EC45
:1016B300FBC833F4C8E4C9FA22600D08C6A2E713D5
:1016C300C618C613C6D5E0F322600C08C6C313C6FA
:1016D30018C613C6D5E0F422700422600D18C6C3E1
:1016E30033C608C633C6D5E0F41822251810AF0850
:1016F300F518400215198008F51840021519D2AFE4
:1017030022C0D0251810AF08F5185002051980081B
:10171300F51850020519D2AFD0D0222518F5821042
:10172300AF08F518400215198008F518400215197D
:10173300D2AF851983222518F582E43519F5832262
:10174300E4732518C582C0E0E51934FFC583C0E002
:10175300E518C3958224F810AF088583198582188C
:101763008008858319858218D2AFCEF0A3E520F0D7
:10177300A37808E608F0A3DEFAEFF0A3E58124FAE4
:10178300F8E608F0A3E608F0A3E608F0A30808E6E5
:1017930008F0A3E608F0A315811581D0E0FED0E0A0
:1017A300F8158115811581E8C0E0EEC0E022251807
:1017B300C582C0E0E51934FFC583C0E0E518C395D1
:1017C3008224F910AF0885831985821880088583E0
:1017D30019858218D2AFCEF0A3E520F0A37808E6EE
:1017E30008F0A3DEFAEFF0A3E58124FBF8E608F0A6
:1017F300A3E608F0A30808E608F0A3E608F0A3159B
:10180300811581D0E0FED0E0F815811581E8C0E0B4
:10181300EEC0E022851983851882E0A3FEE0A3F5DC
:10182300207808E0A3F608DFFAE0A3FFE0A3C0E016
:10183300E0A3C0E0E0A3C0E0E0A3C0E0E0A3C0E019
:1018430010AF0885821885831980088582188583DF
:1018530019D2AFD083D082020122851983851882E1
:10186300E0A3FEE0A3F5207808E0A3F608DFFAE0A2
:10187300A3FFE0A3C0E0E0A3C0E0E0A3C0E0E0A3D7
:10188300C0E010AF08858218858319800885821807
:10189300858319D2AFD083D08222C0D02518C582C8
:1018A300C0E0E51934FFC583C0E0E518C395822481
:1018B300F310AF08858319858218800885831985FD
:1018C3008218D2AFC8F0A3E9F0A3EAF0A3EBF0A328
:1018D3007908E709F0A3D8FAECF0A3EDF0A3EEF052
:1018E300A3EFF0A3D0E0F0A3D0E0F0A3D0E0F0A307
:1018F300E520F0A3E5F0F0A322851983851882E0A3
:10190300C0E0A3E0F9A3E0FAA3E0FBA37808E0F6C4
:1019130008A3DFFAE0FCA3E0FDA3E0FEA3E0FFA33E
:10192300E0C0E0A3E0C0E0A3E0F5D0A3E0F520A38E
:10193300E0A3F5F010AF0885831985821880088528
:101943008319858218D2AFD082D083D0E0F8D0E05B
:101953003274048006740280027401C0E0F404123D
:10196300171ED0E01215F422740480047402800060
:10197300CCC0E0EDC0E0E518C39CCCAD1950011D0F
:1019830010AF068C188D1980068C188D19D2AF12E2
:101993001601D0E0FDD0E0FC22D083D082E9C0E084
:1019A300E493A3C386F0C5F095F0F908E493A38606
:1019B300F0C5F095F0700BE493A3C3994005E904D7
:1019C3008002A3E475F002A42582F582E5F0358355
:1019D300F583D0E0F9E493A3C0E0E493C0E022D020
:1019E30083D082ECC0E0EDC0E0E493A3FCE493A3D6
:1019F300FDED4C600D121A2EEC24FFFCED34FFFDBF
:101A030080EFE493A3FCE493A3FDED4C600D121A65
:101A13006DEC24FFFCED34FFFD80EFD0E0FDD0E062
:101A2300FCE493A3C0E0E493C0E022C0E0C3E493EA
:101A330096087401939618400FE49366700808742F
:101A43000193661870007019A3A3C3E493960874F6
:101A530001939618A3A3400DD0E0D0E0D0E0021A82
:101A63001EA3A3A3A3A3A3D0E022C0E0C0F088F0E9
:101A7300E4936670080874019366187000A8F0A3D5
:101A8300A3700BD0F0D0E0D0E0D0E0021A1EA3A3E5
:101A9300D0F0D0E02274F51217B1EAFEEBFFEE248A
:101AA30034F8EF3400F988088909EE2435121BD085
:101AB300F8EE2437121BD0F50AEC850AF0A4FCAA31
:101AC300F0850AF0EDA42AFDE82CF8E43DF97A2527
:101AD3007B00121663EA850882850983F05407F8B0
:101AE3007401B800028004C333D8FCC0E0E01313D0
:101AF30013541FF8EE28F8EF3400F9E8245DF5825B
:101B0300E93400F583D0E0F8E05860088508828561
:101B13000983801DEE2436121BD0F5F0EA84A8F069
:101B2300EE28F8EF3400F9E82438F582E93400F5BB
:101B330083E0F97F0402185D74F51217B1EAFEEB36
:101B4300FFEE2434121BD0C0E0EE2435F582EF34CF
:101B530000F583D0E0F08E828F83A3A3A3A3A3E039
:101B6300FAA3E0FB8E828F83A3A3A3A3A3A3A3E083
:101B7300FCA3E0FDECC39AF50AED9BF50BEE248084
:101B8300F508EF3400F509850882F583E0640170F8
:101B93002BEE2481F582EF3400F58312196F121BAB
:101BA300D97402121704E960137CE27D07EEFAEFA1
:101BB300FB120AA1850882850983E4F0AC0AAD0B08
:101BC300EEFAEFFB121A98121F33021B36F582EF5F
:101BD3003400F583E022C082C0838518828519838F
:101BE300E0F8A3E0F9C3EA9CEB9D5012C3EC98ED37
:101BF300994019C3EA98EB99501279018010C3EA0E
:101C030098EB9940F5C3EC98ED9950EE7900D083A9
:101C1300D082220000851A87851BC622C0E074EF9C
:101C230012189D759B00906182E0A2E64003021C9E
:101C3300E0E591A2E64003021CE07591BF90049990
:101C4300E064057008120C7B120C878003120C8170
:101C5300751A00120CF3E990049AF07900120CD56E
:101C6300120A057A017B00900498E0F9120FDB90C9
:101C73007803E064426003021D29900817E014F022
:101C83006003021D29C2AF121C8D00781DD0E0F63F
:101C930018D0E0F6E59F5407F9700590907480031F
:101CA30090909078081215BEE9C4C0E0781CE65500
:101CB30008F50808E65509F509740B78081216CCDF
:101CC300D0E02508F8906270E0A2E740F8E8C3335B
:101CD300906272F0906270E0D2E0F08049E0A2E599
:101CE3005024E591A2E5501E7591DF900499E064BC
:101CF3000D70139004BBE004F064287002E4F07AE2
:101D030000E0F9120D83906181E0A2E35009E5E957
:101D1300A2E3500375E9F7A3E0A2E75009E591A216
:101D2300E7500375917F7F040218FCC0E0C0D0C068
:101D330082C083906183E0A2E05009E5BFA2E05036
:101D43000375BFFEE0A2E15009E5BFA2E1500375B0
:101D5300BFFDE0A2E25009E5BFA2E2500375BFFB5D
:101D6300E0A2E35009E5BFA2E3500375BFF7E0A289
:101D7300E45009E5BFA2E4500375BFEFE0A2E550CC
:101D830009E5BFA2E5500375BFDFE0A2E65009E510
:101D9300BFA2E6500375BFBFD083D082D0D0D0E0BE
:101DA30032C0E074F212189DE5A7A2E4500FE5A13A
:101DB300A2E4500953A7EF75A1EF121DF8E5A7A2FE
:101DC300E5500CE5A1A2E5500653A7DF75A1DFE5B9
:101DD300A7A2E15009E5A1A2E1500375A1FDE5A782
:101DE300A2E2500CE5A1A2E2500653A7FB75A1FBAA
:101DF3007F010218FC74F81217B1751A0190049947
:101E0300E0640670077A007B00120C63A2AFE43330
:101E1300FED2AF90049FE0640170187A207B00909B
:101E23000498E0F91210597A207B00900498E0F9A5
:101E3300120FE1906182E0D2E6F0900816E0602193
:101E430085C61B801690049EE064017008E5C654A5
:101E5300F84405F5C653BEFC121C187401651A60DC
:101E6300E4EEA2E092AF7F0102185D74F11217B1A4
:101E73008A088B098C0A8D0B740F121739780C1290
:101E830015BE9090AC78081215859090AC780C1222
:101E930015857808790C1213AA50157808790C1255
:101EA300154A90909878081213CA40157901801347
:101EB300780C790812154A909098780C1213CA403E
:101EC300EB79007F0802185D74ED1217B18A088B55
:101ED300098C0A8D0B7413121739780C1215BE90E6
:101EE30090AC78081215859090AC780C1215857813
:101EF3000C79081213AA40117808790C12154AAA12
:101F030008AB09AC0AAD0B80227510007511007582
:101F130012007513017810790C12154A781079089C
:101F2300121511AA10AB11AC12AD137F0C02185D80
:101F3300C082C083E9906000F0D083D08222C0E0E9
:101F430074F212189DA2AFE433FED2AFC2C0E5D142
:101F5300A2E4500653D1EF121293EEA2E092AF7FA8
:101F6300010218FCC0E074F212189DA2AFE433FE24
:101F7300D2AFE589A2E04006E589A2E15003121140
:101F8300F7758900758900C2C5EEA2E092AF7F01A3
:101F93000218FCC0E0C0D0E8C0E0E5A8D2AFC2C7D9
:101FA300A2E792AFD0E0F8D0D0D0E032C0E0C0D00A
:101FB300E8C0E0E9C0E0C008C009C082C083A2AFA6
:101FC300E433F9D2AF901061E0F8A3E068700853EE
:101FD3009AFBA374018026C2E9901061E0F50874AE
:101FE300012508F074E12508F582740F3400F583A8
:101FF300E0F5C1901061E0C394804002E4F0E9A2EF
:10200300E092AFD083D082D009D008D0E0F9D0E0FD
:10201300F8D0D0D0E032020122FFFFFFFFFFFFFF25
:10202300FFC082C083E990118DF0D083D08202017A
:102033002274F6121745E9900364F07CA47D037AB9
:10204300FF7BFF1207237A008A0875090074027860
:10205300081216DB74652508F8740335091220830A
:10206300A3F00AEAC3940340DF79051206B1900393
:1020730064E0F91205D97A3B7B071208F1023604B2
:10208300F98882898374FF122090E4F022F0A3126E
:102093003491A32274F41217458A088B09EB5480F8
:1020A3006030900364E0F9120FC38A0A8B0BAE0A07
:1020B300AF0BEE4F60138E828F83E064B070031218
:1020C30006C3EEFAEFFB120FB1AA08E5096480FB21
:1020D30080047A007B0002226074F212174574FCBC
:1020E3001216EEEAFEEBFF74121217391234DAEE0F
:1020F3004F700302217F7402121739EEF0A3EF121F
:1021030024BBECF0A3ED1224BBAA82AB831205D34C
:10211300E9F50A706AE508450960648E828F8312C7
:1021230034BBEE4F60567A067B001210178A0C8B75
:102133000DA80CA90DE8497005750A138041888222
:102143008983E4122090EEF0A3EF1234EBE508F05C
:10215300A3E509F090037212225A900372700512DC
:102163002F78801B122F668003EAFCEBFD8C828D97
:102173008312225A70F38C828D8380E3750A02A93D
:102183000A74041217040236CE74F2121745890A30
:10219300E975F045A4FEAFF0900371E4F090036796
:1021A30012225A602812101D7900890875090074DB
:1021B3000278081216DB74672508F5827403350963
:1021C300F583E4F0A3F009E9C3940340DDEEFAEFED
:1021D300FB1210178A088B09EA45096075EEFCEFBC
:1021E300FD7900120F997D008D0C750D0074027836
:1021F3000C1216DB7467250CF87403350DF9E50A28
:10220300F5F0EDA475F017A4FAABF0E5082AFAE5AA
:10221300093BFB88828983EAF0A3EBF07E00801BF5
:10222300EE75F017A4FAABF088828983E02AFCA349
:10223300E03B8C82F583E4F0A3F00EEEC3950A40F5
:10224300DF0DEDC3940340A0E50A900371F079001C
:10225300800279130236CE122C0AEA4B227F040243
:10226300181774F41217457900EAA2E0501B750899
:102273004275099078081219587C047D007A8F7B87
:10228300111206AB740212170480D2C082C083906D
:1022930003721234D549601C88828983A3A3E06A40
:1022A3007003A3E06B8882898370E7A3A3A3A312BF
:1022B3002C0680047A007B0002202D74EE12174551
:1022C30074FC1216EEEAFEEBFF851882851983E48F
:1022D300F0A3F0EE2402122F58EE2405123498EEE8
:1022E3002404F50EEF122865E024FE603924FC6017
:1022F3004624FE605224FE605E24FE70030223D156
:1023030024FE700302243524FE700302244424FEB9
:10231300700302245324FC700302246224FE70031E
:102323000224710224AE90038B7417F0A3E41224E9
:10233300C31202490224AE851882851983AC82AD8B
:10234300831206C902247E851882851983AC82AD67
:10235300831206CF02247E850C08850D09740212B0
:102363001739AC82AD83850882850983122C061246
:1023730005F78A0C8B0DAC0CAD0DEC4D603BE4F511
:102383000CF50D780C121958750C8B750D03780C20
:10239300121958750C8C750D03780C1219587408A2
:1023A30012173912196F1237D8121704E9F50C7086
:1023B3000B122BFC120261800F750C0185088285BC
:1023C30009831224B1122F78850C08022481740228
:1023D300121739AC82AD83850C82850D831229B81F
:1023E300603C850C82850D83A3A312196F75108B36
:1023F300751103781012195875108C751103781024
:10240300121958740812173912196F1237D8121784
:1024130004E9F509700B122BFC120267800F750992
:1024230001850C82850D831224B1122F788509084A
:10243300804C851882851983AC82AD831206D580C2
:102443003A851882851983AC82AD831206DB802B13
:10245300851882851983AC82AD831206E1801C85C1
:102463001882851983AC82AD831206E7800D851827
:1024730082851983AC82AD831206EDE9F508E50880
:1024830060298E828F83A3E06414601F850E82858A
:102493000F83E090038B1224BB1237B090038C128E
:1024A3002F78E508A31224C3120243022E671237C2
:1024B300B485188285198322F085188285198322B1
:1024C300F07C8B7D03850A82850B83122C0A227490
:1024D300EE12174574FC1216EE8A0A8B0B8C0E8DC6
:1024E3000FEA2405F508EB3400F5097C157D007926
:1024F300007A8B7B03120F99E5082402F50CE5099A
:1025030012349B85188285198385821085831178FF
:1025130010121958850882850983A3A3A3A312293E
:10252300AF121958E5082405F510E5093400F51133
:102533007810121958850C82850D83122D1D1205F2
:10254300F174061217048A108B11AE10AF11E50A4D
:102553002402F50AE50B122F5BEE4F70030226905F
:1025630080177402121739122C0688828983EAF0C5
:10257300A3EBF090038BE004F090038BE0C394058E
:102583004003022690E4F510F511781012195875DE
:10259300107475110378101219587510757511039D
:1025A3007810121958740612173912196F7910EE30
:1025B300FCEFFD1237DA121704E9705E8508828595
:1025C3000983A3A3A3A3A3A3A3E0F8900374E068E0
:1025D30070481229AF1219587C757D03E508240849
:1025E300FAE5093400FB120F937402121704E96031
:1025F300298E828F83A3A3A3A3122C0690038BE0BF
:10260300F510740278101216DB748C2510F58274A1
:10261300033511F583EAF0A3EBF074021217398541
:102623008210858311781012195874021217391207
:10263300196F850C82850D83122C2C1217048A10B6
:102643008B11AE10AF1190038BE0F5107511007470
:102653000278101216DB748B2510F874033511F908
:1026630088828983A312225A700302255CE824031B
:10267300080808E93400F9EE4F60030225658882F3
:10268300898374FFF0A3F090038BE004F090038B35
:10269300E0600A122BFC1202557900800B85088238
:1026A300850983122F6F790A022E6774EA12174580
:1026B30074FE1216EE8C128D13EA2405F50CEB1240
:1026C30037C21234BF750800750900EA2402F510F9
:1026D300EB3400F51185188285198385820A858379
:1026E3000B780A121958850C82850D83A3A3A3A323
:1026F30012287B121958E50C2405F50AE50D122F53
:102703005B780A121958850C82850D8312287F1273
:1027130005F174061217048A0A8B0BEA450B700342
:10272300022830EA2404F50EEB1228651234BF8A1E
:10273300828B83A3A3A3E0F9851082851183122CD6
:10274300106003022830E4F514F5157814121958B3
:102753007514747515037814121958751475751555
:10276300037814121958740612173912196F791352
:10277300AC0AAD0B8510828511831237E012170462
:10278300E9F5096003022830900374E0F8E5087066
:1027930009E0240290038CF0801790038CE0FCE89E
:1027A3002402FAE43400FBEA6C7001EB60030228B4
:1027B30034850882AA821229A6941412299E506D88
:1027C300850E82850F83E0C0E0122BD6D0E0F005A2
:1027D30008850E82850F83A3E0C0E085080A748D07
:1027E300250AF58274033400F583D0E0F0050890E0
:1027F300037412287B1219587C757D0385080A74AB
:102803008D250A12286F121704900374E02508F52A
:102813000874FF6E700374FF6F6012EE24010EEFF5
:102823003400FFE508C3941450030226D8E508607A
:1028330013122C1A851082851183122C0612025B47
:1028430079008014E509700375090A8512828513DE
:1028530083EEF0A3EFF0A90974021217047F0E02AE
:1028630018173400F50F850E82F58322FA740334AA
:1028730000FB120F817402221234FA22A3A312283E
:102883008522122F66FDEEFAEFFB2274EE12174536
:1028930074FE1216EE8C0E8D0FEA2405F50CEB1266
:1028A300349B750B0090038BE4F0F50AEA2402F5E0
:1028B30008EB3400F509804490038BE0FA9003742D
:1028C300E0F81229A6941712299E400D90038BE07D
:1028D300F87416C398900374F01229AF1219587C38
:1028E300757D03748C2AFA740312287212170490EC
:1028F3000374E0F890038BE028F0050AE50C241636
:10290300F582E50D3400F583E0F8E50AC3985074C9
:1029130090038BE0C39416506BE50AC333F8E4339A
:10292300F9E50C28FEE50D39FF851882851983AC7E
:1029330082AD838E828F831229B87008750B0112C2
:102943002F6B8050E4F510F511781012195875109B
:102953007475110378101219587510757511037871
:1029630010121958740612173912196F791685083F
:10297300828509831237E0121704E9F50B7003020D
:1029830028BB80BB7C8B7D03850882850983122C41
:102993000612026DA90B7402022E69E99400C36545
:1029A300D03322EA28F8E43400F9E822E0F5107580
:1029B3001100781022122E5E8A108B11AC10AD110B
:1029C300EC4D2274EA12174574FC1216EE8A0C8B36
:1029D3000D8C128D13EA2405F50AEB122F5B750893
:1029E30000750900E50A2402F510E50B3400F51122
:1029F300740212173985820E85830F780E121958C7
:102A0300850A82850B83A3A3A3A31234A0121958AA
:102A1300E50A2405F50EE50B3400F50F780E1219BF
:102A230058851082851183122F61122C001205F133
:102A330074061217048A0E8B0FAE0EAF0FE50C242B
:102A430002F50EE50D3400F50F8038888289837412
:102A5300FFF00508122BE274FFF00508900374E001
:102A6300F50C750D00780C1219587C757D038508DB
:102A73000C748D250C12286F121704900374E02533
:102A830008F508EE4F60278E828F83A3A3A3E0F996
:102A9300850E82850F83122C10EE2404123498E9DC
:102AA3006027850C82850D83122BF2122F78E5089F
:102AB3007003022BBC122C1A850E82850F83122CF5
:102AC300061202737900022BD1E4F514F51578147C
:102AD300121958751474751503781412195875144E
:102AE30075751503781412195874081217391219C9
:102AF3006F7911EEFCEFFD850E82850F831237E0AF
:102B0300121704E9F509709A850882AA82EA9003EC
:102B1300747009E0240490038CF08025E0F890039E
:102B23008CE0F514E82404FCE43400FDEC65147037
:102B330001ED70811229A6941212299E4003022AE4
:102B4300B8850C82850D83E0C0E0122BD6D0E0F06F
:102B53000508850C82850D83A3E0C0E0122BE2D02B
:102B6300E0122C3585820C85830D780C121958746C
:102B73000412173912196F851082851183122C2CB8
:102B83001217048A0C8B0DAE0CAF0D85080C748DD7
:102B9300250CF874033400F9EE4F7003022A4E85B6
:102BA3001882851983E088828983122C35A3E0C0BB
:102BB300E0122BE2D0E0022A5CE509700375090AF2
:102BC300850A82850B83122BF2122F78A9097404CC
:102BD30002285D748D2AF58274033400F5832285FF
:102BE300080C748D250CF58274033400F5832212CE
:102BF30037B4851282851383227C8B7D03850A82F9
:102C0300850B83122C0A22E0FAA3E0FB22122C0A82
:102C13001205DFE9F5092290038CE0F5F0E508845D
:102C230090038BF07C8B7D03221228851205FD74A3
:102C33000422F005088518828519832274EC121783
:102C43004574FE1216EE8A088B098C0E8D0FEA244A
:102C530005FEEB3400FF122E48EE2418123498EAD6
:102C6300450B7003022CEB122E315029122D108AC2
:102C7300108B11EA4511606B7912AC0AAD0B850814
:102C830082850983122C06851082851183121743CE
:102C9300E9F50A7058E4F50AF50B780A1219588E0B
:102CA300828F83A3A3E0F50A780A121958EE24034E
:102CB300122F58780A1219588E828F83122D1D12E3
:102CC30007117406121704E9F50A7021850C828531
:102CD3000D83E0701F850882850983122C0612027A
:102CE300798011750A0E8009750A018004E50A606E
:102CF30003122F6B850C82850D83E06004790080BD
:102D030002A90A74021217047F0C0218178518828D
:102D1300851983122C0A1206FF22122F66FD8508DD
:102D230082850983122C0A2274EE12174574FE124F
:102D330016EE8A088B098C0C8D0DEA2405FEEB3404
:102D430000FF750E00122E48EA450B7003022E0F8A
:102D5300122E31502C122D108A0E8B0FEA450F6064
:102D63004A7912AC0AAD0B850882850983122C06B9
:102D7300850E82850F83121743E9F50E6003022E39
:102D830012850882850983123072AA0AFB122E2348
:102D930070147AFF7BFF122E23606C88828983E58F
:102DA3000AF0A3E50BF0750A008007750E0E805F2D
:102DB300050A900371E0FAE50AC39A504AE50A75D9
:102DC300F017A4FAABF088828983A3A3E02AFAA3BD
:102DD300E03BFB8A828B83122F61EC4D70D2750A24
:102DE30017750B00780A121958EEFCEFFD120F81CC
:102DF3007402121704EEFCEFFD8508828509831225
:102E03002C0612027F8014750E098003750E0112C1
:102E130037AC850C82850D83122F78A90E02299970
:102E23001206F38A108B11A810A911E84922E508AC
:102E33002402F508E5093400F5098A828B83A3A3EC
:102E4300A3E0A2E522851882851983AC82AD838E27
:102E5300828F83122E5E8A0A8B0B22E0FAA3E0FB99
:102E63001205F72274041217047F0A02181774EC70
:102E73001217458C108D11EA2405F50CEB12349BC7
:102E8300750F00EA2402F50AEB122F5B850A82F51F
:102E930083122C061238677003022F4D750E0080C3
:102EA30071850C82850D83E06401704F8E828F8360
:102EB300A3A312196F8E828F83A3A3A3A3E0F5129A
:102EC3007513007812121958EE2405F512EF340029
:102ED300F5137812121958122C00120711740612E6
:102EE3001704E9F50F6014850C82850D83E4F01255
:102EF30037AC851082851183122F787C177D00797A
:102F030000EEFAEFFB120F998E828F83E4F0A3F0A9
:102F1300050E900371E0F8E50EC398501EE50E759B
:102F2300F017A4F8A9F0850882850983A3A31237B3
:102F3300CC122F61EC4D6003022EA4850882850913
:102F43008374FFF0A3F0E50F7006122C00120285C4
:102F5300A90F022D0BF50AEF3400F50B22A3122F54
:102F630066FD22E0FCA3E0228E828F831237B485B4
:102F73000E82850F83E8F0A3E9F02274F612174559
:102F83007C008C08750900740278081216DB122F76
:102F9300B06A7003A3E06B7006E8FAE9FB800B0CE0
:102FA300ECC3940340DC7A007B000236047465258D
:102FB30008F874033509F988828983E02274F712CB
:102FC30017457F00EF75F003A4F8A9F0EC28F8ED9E
:102FD30039F988828983E06A7003A3E06B7006E89D
:102FE300FAE9FB800B0FEFC3940440D87A007B000F
:102FF3007F0102181774F61217451235A970067A65
:10300300007B008007A3A3A3A3122C06023604743B
:10301300F2121745E9FE740E12173912307274104A
:103023001217391234DA8C828D83E06402703BA369
:103033001237B088828983E0F50CA3E0F9A80C74F9
:10304300026870037429697021750C02750D00788C
:103053000C1219587808121958780A121958EEF9EF
:103063001207357406121704800279010236CEE086
:10307300F50AA3E0F50B2274E812174574FB121648
:10308300EEE9851882851983F08A168B178C0E8DCD
:103093000F741F1217391234DA74211217391230D0
:1030A3007274231217391234BF7510008C828D830A
:1030B300A3A3A3E0A2E4502A741D121739122D16FC
:1030C3008A828B83E58245837003023186790AAC59
:1030D3000EAD0FAA16AB17121743E9F510600302E2
:1030E3003189850E82850F83E06402600302343FD9
:1030F300A31237B0850882850983A385821285834D
:1031030013E50E2406F50CE50F12349B88828983A0
:10311300E0FAA3E0F9EA2400F514E439F51578148C
:103123001219E20100002801284E31070002282568
:10313300320328953100294F330129773302291EA1
:103143003303294F330429E0333F34EE4F703E8578
:103153000C82850D831234D5FAE9FB8A828B83E0D6
:10316300850A82850B831234F11219588A828B8364
:10317300A3122F66FDAA08AB09120F81740212175E
:1031830004800375100EA91074050237BA75100B6D
:1031930080F4EE4F70F7850A82850B837401F01279
:1031A30034C5850882850983F07C007D00850E8205
:1031B300850F83A3A3A3A3E02401FAA3E03400FBB8
:1031C3001205F7EA4B60418A828B83E02402F8857B
:1031D3000A82850B83E028F0EA2404F8EB3400F933
:1031E30088828983E0851282851383123503123422
:1031F300F11219588A828B83122F60E5082403FA8F
:10320300E5093400FB02317C850A82850B83E024C7
:1032130004F07C047D007900AA12AB13120F99020B
:103223003189EE4F60030231901234C5FEA3E0FFF3
:10323300850A82850B837404F0EE850882850983F1
:10324300F0EF851282851383F07403121739AC8271
:10325300AD83EEFAEFFB12359770030232FB8A82DD
:103263008B83A3A31234BB740112173985820E8595
:10327300830F780E121958740512173912196F7CBF
:10328300FF7DFF1205FD74041217048B0FEA450F2F
:103293007033850C82850D831234A0121958850C66
:1032A30082850D83A312196F7C027D007A1A7B91AC
:1032B3001203757404121704E9700A7401121739A2
:1032C30074FFF0A3F08E828F83E064027034750C78
:1032D30002750D00780C1219588E828F83122F609D
:1032E300E5082404FAE509122872121704850A82F4
:1032F300850B83E0240280097401121739EEF0A3D1
:10330300EFF074011217391234B1F0740112173946
:10331300A31234A9A3A3A3F0023189EE4F600302E1
:103323003190850C82850D83122F61AA16AB17127B
:103333000729850A82850B837402F0EA8508828552
:103343000983F0851282851383EB80CBEE4F6003F4
:103353000231901234C5F8A3E0F9850A82850B8304
:103363007402F0E8850882850983F0E98512828575
:10337300138380A3850C82850D83122C06120F7B89
:10338300EAFC8C82A882C39EE49F404BE86E7001E6
:10339300EF70047C00801F851882851983E0FAEEA4
:1033A3002AFAEF3400FBC3EA98EB94005003E08061
:1033B30004EECCC39CFCEC850A82850B83F08C0A5B
:1033C300750B00780A121958850C82850D83E02E3F
:1033D300FCA3E03F023177751007023189EE4F609D
:1033E30003023190850C82850D831237B0850A82E2
:1033F300850B837407F0888289831234A912349170
:10340300E0851282851383F0E82402FAE93400FB95
:103413008A828B831234A91234E21234B1A3123498
:10342300EB1234B5F0E82405F8E93400F988828911
:10343300831234B5A3123503A3023317741D121775
:10344300391235A270030231861237B0880C890D08
:10345300E8450D70030231868E108F117810121912
:1034630058780A121958780812195874061217391D
:10347300E0F9AC0EAD0FAA16AB17850C82850D8350
:103483001217437406121704E9F510023189F08804
:10349300828983A322F50CEF3400F50D22E0F50EAB
:1034A300750F00780E22E085088285098322123584
:1034B3000A2212350AA3A322A3A3A3A3E0FEA3E037
:1034C300FF22850C82850D83E0F8A3E0F5838882D3
:1034D300E0221237B4E822E0F508A3E0F50922A3BD
:1034E300A3F08A828B83A322122092A3A322F08AC1
:1034F300828B831234FA22E0F50A750B00780A22D4
:1035030012349112350A22E0850882850983A3A328
:103513002274EE12174574FE1216EE8A0A8B0BEC18
:10352300FAEDFB7414121739E0F510A3E0F51174EA
:1035330016121739E0FE7418121739E0F50EA3E0DE
:10354300F50F851882851983AC82AD831235976098
:103553003E8518828519831235A2602FA3A31234E6
:10356300DAE50845096024780E1219587810121903
:1035730058EEF9AC0CAD0DAA0AAB0B850882850990
:103583008312174374041217048006790E8002799C
:10359300010229991205F78A0C8B0DEA450D2212B7
:1035A3002C0A1235A9221206BD8A828B83E5824535
:1035B300832274F612174574FE1216EE740C12175A
:1035C300391234D5851882851983F074011217399D
:1035D300E9F0E4F508F50978081219587508027836
:1035E30008121958740412173985820885830978DB
:1035F30008121958120711740612170474021217CD
:10360300047F0202181774F7121745EAFEEBFF89CD
:10361300087CA47D03120729EA5402600BA908EE73
:10362300FAEFFB1205EB80027901022FF374F61215
:10363300174574FF6A700374FF6B701B7B00EB7597
:10364300F003A4F8A9F0EC28F8ED391220830BEB72
:10365300C39404501480E71206F98A088B09A8085A
:10366300A909E8496003122084809674F61217456D
:103673001206F98A828B83E58245836006A3A3E061
:10368300FA80027A007B0002360474F21217458A2C
:10369300088B09ECFEEDFF740E121739E0F50A12E0
:1036A30036D3701CEEFCEFFD7AFF7BFF1236D3702E
:1036B300047911801688828983E508F0A3E509F06F
:1036C30088828983A3A3E50AF079007F060218178D
:1036D3001206F98A0C8B0DA80CA90DE8492274EE89
:1036E300121745EAFEEBFF8C088D09890C74121240
:1036F30017391237B07414121739122F6174161256
:103703001739122C06750D00EC4D60030237A474B3
:1037130002650C600302379F88828983122F66F942
:10372300EC2400F50EE439F50FEAF4F8EBF4F9ECC8
:1037330058F8E50F59F9E849705DE5082406F8E5FE
:10374300093400F9880A890B8882F58312288112CB
:1037530007298A108B11E50E65107004E50F6511BA
:103763006042780E121958850A82850B83122881CC
:1037730012072F7402121704E9F50D7027780E1241
:103783001958850882850983A3A312287F1207414C
:103793007402121704800D750D808008750D0D805D
:1037A30003750D0BA90D022E6C8E828F831237B415
:1037B30022E0F8A3E0F9221217047F10021817344D
:1037C30000F50D850C82F58322E028FEA3E039FF86
:1037D3008E828F83227916850A82850B83122C0AA7
:1037E30012070B74082274F2121745EAFEEBFF89E5
:1037F3000B7401650B600E7402650B706479011222
:10380300090FE9705CEEFAEFFB1238676048750A3E
:1038130000800B7C177D007900120F99050A900335
:1038230071E0F8E50AC3985022E50A75F017A4F889
:10383300A9F0850882850983A3A3E028FAA3E039C8
:10384300FB8A828B831234D54970C8850882850927
:103853008374FFF0A3F07CA47D03EEFAEFFB120761
:10386300230236CE1206F38A088B09EA450922742D
:10387300F21217458A088B09ECFEEDFF740E12173E
:103883003912307290118DE0F4603D7A097B001299
:103893000FABEA4B60328A828B8374B1F0A3E412DC
:1038A30034E4A31234E2A3E508F0A3E5091238CE09
:1038B300EEF0A3EF1238CEA3A3E50AF0A3E50BF0D5
:1038C30090118DE0F9120FB70236CEF08A828B8306
:1038D300A3A3A3A3A322C082C0839061907404F026
:1038E300A37448F0A3E4F09061807440F09061BC4D
:1038F3007407F09061877469F09061B67416F0797B
:1039030000120A0B7902120A1190201CE493F4604E
:1039130006E493F91209E77905120D65023D3FC0EC
:1039230082C083E9540FF9906185E0696012E5C6AE
:1039330054804449F5C6E59E547F644970F8E9F024
:1039430053C680E59E547F70FA023D3F74F7121709
:1039530045E5A8FE53A87E1209F3C2BA539AFEC2E4
:1039630089759B00C2C21209F975A91175B90512AF
:1039730009FFD2BA439A0174805E42A8024C42C046
:1039830082C083906181E4F0A3F0A3F0023D3F7510
:10399300E90075910075BF00020122C082C08390C7
:1039A3006181E4F0A374C0F0A3E480DFC082C0832C
:1039B30074F81216EE90049B1243B5E849700302A3
:1039C3003A6690049BE05440602379088518828509
:1039D3001983AA82AB83120B19851882851983AACE
:1039E30082AB831207AD90049BE054BFF0E0548098
:1039F3006010790C7A387B08120B1990049BE05401
:103A03007FF0E0A2E050087900123A6E54FEF0E035
:103A1300540260087901123A6E54FDF0E0540460D8
:103A2300087900123A7954FBF0E0540860087901F0
:103A3300123A7954F7F0E0541060087902123A7997
:103A430054EFF0E0542060087903123A7954DFF020
:103A5300A3E05401600D120A1D1207BF90049CE0FD
:103A630054FEF07408121704023D3F120A0B1207AA
:103A7300B390049BE022120A111207B990049BE051
:103A830022C082C083E9600514602A804F90619A46
:103A93007433F0A37455F09061A0743AF090081455
:103AA300E064017009C29190049D7467802D9004B5
:103AB3009D7461802690619A743FF0A3745AF090CC
:103AC30061A0747FF0900814E064017009D29190B2
:103AD300049D7471800590049D746AF0023D3FC09B
:103AE30082C083E9600B14600D14600F14601180B1
:103AF3002090202080159020218010902022800B80
:103B0300900814E0640160F3902023E493906186AD
:103B1300F0023D3F74EE12174574F41216EE851849
:103B230082851983AC82AD8375839075828C74040E
:103B330012160190202093F46003023CA9907808A8
:103B4300E0C394025003023C897404121739AC8217
:103B5300AD837583907582337408121601F97AFF69
:103B63007BFF7FFF7E008982858210801874086E38
:103B73007003023C3E74096E7003023C3E740A6E8D
:103B83007003023C3EE510C333FCE433FD740412BE
:103B93001739E5822CF582E5833DF583E0F50EA325
:103BA300E0F50F8E08750900740278081216DB74AD
:103BB300482508FC74783509FD8C828D83780812BA
:103BC30015BE740878081214D985080C85090D8C64
:103BD300828D8378081215BE741878081214D9E5FB
:103BE3000C4508F508E50DF509C3E50E9508E50F45
:103BF30095098C828D8378081215BE8C828D83780B
:103C0300081215BE7418780840141214D9E50C452F
:103C130008FCAD0DE50EC39CFCE50F9D800F12144F
:103C2300D9E50C4508C3950EFCE50D950FFDC3ECD6
:103C33009AED9B5006ECFAEDFBEEFF0EEEC39413E8
:103C43005003023B7074FF6A700374FF6B602D8F27
:103C530008740278081216DB74481248C374783566
:103C630009F58378081215BE851882851983E582C4
:103C73002510F582E583124801E508F009E9C394AC
:103C8300045003023B617508017509007808121995
:103C9300587402121739AC82AD837A087B0812116B
:103CA300D97402121704740C1217047F0A0218172E
:103CB300C082C083906186E0F8902023E49368700B
:103CC30009902022E493906186F09061AE7468F0CD
:103CD300A3746AF090624574FBF0A304F053F4FDFF
:103CE30043FE029008147401F09061A0E0643A70FE
:103CF30004790080027901120A0B023D3F7F04021E
:103D03001817C082C0839007F2E064017017900710
:103D1300F8E0F87401686009E8700AA3E0640170D0
:103D230004790C8012900809E06401700890080F70
:103D3300E0640160EC79008003123E9CD083D08262
:103D430002012212440D940622E0C4333354C022EC
:103D5300C082C0839007FC7425F09007FA7401F0C9
:103D6300A3E4F07A01FB120CE19007E8E0241612B9
:103D73003DA07441F0A3740AF09007F9E064017068
:103D8300169007F8E070107901120D41120D11120F
:103D93000D3B7900120D4D023D3FE02414F8A3E0E2
:103DA300123DA7223400F9888289832274F6121700
:103DB3004574FA1216EE9007F1E064017008120AD6
:103DC300299007F1E4F075E1F19007E8E02415127A
:103DD3003DA07401F09007F3E06401705390905A92
:103DE300C082851882851983AC82AD83758390D098
:103DF30082740612160175D90D9007EA123D4C44E0
:103E030003F5D97800880874EB1248C37407123D90
:103E13004640F278008808851882851983E5821266
:103E230048C3E583123D4640EC75E1957901800274
:103E33007900120CE79011AF123EA274BBF0A37489
:103E43000BF0A3123EA2123EA212400174C1F0A3D2
:103E5300740B1240169007EAE0F97AEB7B07120C19
:103E6300C39007FC123E9C7901120CED9090E01276
:103E730015DC120D059090BC1215DC120CCF7900E5
:103E8300120D599007E8123D9D7416F09004997431
:103E930005F00412170402449EE0F9121F33227442
:103EA300B5F0A3740BF0A32274F41217458908A884
:103EB30008123FE5900801E0F97A027B08120CC36F
:103EC30090080FE0701A7900120D239007DBE07061
:103ED3000B79007ADC7B07120CC98009790180F326
:103EE3007901120D2375E1F175D923900801123D73
:103EF3004C4405F5D97800880A7402250AF58274C2
:103F030008123D4640F175D90075D90075D9007581
:103F1300D90075D90075D9007A0012507124221284
:103F2300433040F67A001250712426F582E9124498
:103F3300A60AEAC3940340EEEE242B1244A37A00AC
:103F4300125071242C12433640F67A001250712419
:103F53002E12433640F67A00125071243012433643
:103F630040F67A00125071243212433640F67A003A
:103F73008A0AEE250AF8EF1248B11243439405402A
:103F8300EFEE2437124B03541FF8EE242A124B038F
:103F9300C43354E048F5D975E1959011AF748BF0B3
:103FA300A3740BF0A37491F0A3740B123FF87497EE
:103FB300F0A3740B12401690080E123E9C9090E0F2
:103FC3001215DC120D059090BC1215DC120CCF906B
:103FD300600DE4F07901120D599004997406F00212
:103FE3003D00E875F006A4C8AAF02AF974C928FEB2
:103FF300740439FF22F0A31240011240012212403F
:1040030005227485F0A3740BF0A37485F0A3740BDD
:10401300F0A32212401A22F09011BD124026A312DF
:104023004026221240057485F0A3740BF02274EC31
:104033001217459007FF124BB978101215BE90085E
:1040430010E0FAF875F006A4C8ACF02CF974F72860
:10405300F582740439F583E0FEA3E0FFEEC333FE7B
:10406300EF33FF8E0CF50D750E00750F00851008EC
:1040730085110985120A85130B9090807808121513
:1040830024780812195485100885110985120A85A8
:10409300130B7808790C1215117810790C12146926
:1040A300E4F50EF50F7808790C12154A8A0C750D94
:1040B300007403780C1216DB7808790C1215119032
:1040C30090AC7808121585AA08AB09AC0AAD0B129F
:1040D3001ECB74041217048A088B09A808A909C304
:1040E300EE98EF995006E82EF8E93FF9E890600E54
:1040F300F0E9A3F0EEA3F0EFA3F090600D74C1F02C
:104103007F0C021817C082C0839007E812412890E1
:1041130007FC023D3CC082C0839007FF12412890F8
:10412300080E023D3C124BBDA3A3A3A3E4F0A3F0EE
:104133002202012274F2121745124282F50AEF128B
:1041430045F96004780480027800E8240EF8EAC395
:104153009850030241E075080C900818E4F0EE242F
:1041630077124B03900819F07902EE2478FCEF34B0
:1041730000FD7A1A7B08120B077902EE247A1241AA
:10418300E5247C1241E5247EFCEF3400FD120B078D
:10419300EE2475124298850A82850B83E0601675BA
:1041A300081875090878081219587C0C12470D1263
:1041B300170475081074012508F5D975D90378001B
:1041C3008009880A7418250A124277E8C3950840C3
:1041D300F175E1957904120D0B79018002790002E2
:1041E30048ACFCEF3400FD120B077902EE2274F2A7
:1041F300121745124282F508EF3400F5098508824B
:10420300F583E06004780480027800E8240AF8EA81
:10421300C3984055750A089008187401F079057C15
:10422300E27D077A197B08120B07EE24811242986C
:10423300850882850983E060167508187509087872
:10424300081219587C0812470D121704750A0C122C
:1042530045008003124271E8C3950A40F775E19562
:104263007904120D0B7901800279000248AC8808A9
:1042730074182508F5827408124B0AF5D90822121E
:10428300428622EAFEEBFF9061D0E0F87480C39887
:10429300FAEE248322FCEF3400FD8E828F83A3A3E6
:1042A300A3A3A31243B98C828D83E028F0A3E03942
:1042B300F07902120B072274F6121745EAFEEBFFA0
:1042C3009061D0E0706275D91875D90375D9037AF6
:1042D300008A08EE2508125076249C12435A40F1B6
:1042E3007A008A08EE250812507624A41243364039
:1042F300F17A008A08EE2508125076249412435A64
:1043030040F17A008A08EE25081250762488124379
:104313003040F175E1957908EE24941243532488D3
:1043230012434A1244258002790002449E12433C00
:1043330094042212433C940222F582E93400F5836B
:10434300E0F5D90AEAC322FAEF3400FB120B0D227F
:1043530012434A7904EE2212433C94082274F61263
:104363001745EAFEEBFF9008187406124418121959
:10437300587C01790312471312170475D90675D9AE
:104383000378001243FD40FB75E195900499E064C6
:10439300087017EE2470F582EF1243B2EE2472F523
:1043A30082EF124801E8F0A3E9F0790102449E127A
:1043B30048BE1243B922E0F8A3E0F92274F61217BB
:1043C30045EAFEEBFF9061D0E0702A900818740A6A
:1043D3001244181219587C01790312471312170457
:1043E30075D90675D90378001243FD40FB75E19535
:1043F30012442A8002790002449E88087418250812
:10440300F582740812440D9405223400F583E0F517
:10441300D908E8C322F075081875090878082275C9
:10442300E1957904120D0BEE2470F582EF1248BE6C
:104433001243B9EE2472F582EF1248BEE8F0A3E905
:10444300F079012274F6121745EAFEEBFF9061D072
:10445300E070437901900818740BF0900499E064BC
:1044630007701775081875090878081219587C0120
:1044730009091247131217047905740129F5D9752F
:10448300D90378008003124271E8C39940F875E1BB
:104493009512442A800279008001F07F02021817E6
:1044A300F582EF124B0AF5D92274F512174512451E
:1044B3002F6004780480027800E8240BF8EAC3989C
:1044C3004036750A099008187408F0F91245186007
:1044D30014750818750908780812195812470B1231
:1044E3001704750A0D1245008003124271E8C39543
:1044F3000A40F71244228002790002477A740125A8
:104503000AF5D975D903780022EE241DF582EF123E
:104513004813A3F022EE24E5FCEF3400FD7A197B67
:1045230008120B07850882850983E022124286F868
:10453300EF124C8DF583E02274F31217458A088B32
:104543000912471EFAE5082483F50AEB1245F960C0
:1045530004780480027800E82408F8EAC39850033A
:104563000245F2750C06900818740CF09004B6E03E
:10457300900819F07402C0E0F97CB77D047A1A7BC5
:1045830008120B07D0E0F97CB97D04120B07850AEA
:1045930082850B83E0601C750A18750B08780A1274
:1045A30019587C067903AA08AB091247131217049A
:1045B300750C0A7401250CF5D975D90378008009A7
:1045C300880A7418250A124277E8C3950C40F175DE
:1045D300E1957904120D0BE5082470F582E50912C3
:1045E30043B2E5082472F582E50912443C8002795E
:1045F300007F050218173400F50B850A82F583E066
:104603002274F6121745EAFEEBFF12471EFCEE2456
:1046130083F8EF12471960047A0480027A00EA24CF
:1046230004FAECC39A405E7A02900818EAF0EE248A
:10463300F7F582EF12469460197508187509087822
:10464300081219587C027903EEFA12471312170461
:104653007A0674012AF5D975D903780080031242CA
:1046630071E8C39A40F875E195EE247412468DEE15
:10467300248012468D12450C7904120D0BEE240D85
:1046830012442D8002790002449EF582EF124813F2
:1046930022124B0A900819F088828983E02274F66B
:1046A30012174512471EFEEA2483F8EB12471960DE
:1046B300047C0480027C00EC2404FCEEC39C404395
:1046C3007C029008187407F0EA24F8F582EB12468E
:1046D3009460157508187509087808121958790334
:1046E3001247131217047C0674012CF5D975D903EC
:1046F30078008003124271E8C39C40F875E1957914
:10470300018002790002449E7C097903EEFAEFFBF3
:10471300120B79740222123DA7E0229061D0E0F8D7
:104723007480C3982274F5121745E9FEA2AFE433EF
:10473300F50AC2AF7F00EA246FF8EB3400F9800179
:104743000F88828983E0FCEFC39C50188F08EA2509
:1047530008FCEB3400FDEC246BF582ED124B066E86
:1047630070DE800DEA2CFAEB124A96EE12469A049A
:10477300F0E50AA2E092AF7F0302181774F612174E
:1047830045A2AFE433FFC2AFEA246FF8EB125078CF
:10479300FCE9FD8C828D83E014F07E00801E8E0880
:1047A300EA2508F8EB125078246CF582E9124B06DF
:1047B300C0E0E8246B1247FED0E0F00E8C828D83BC
:1047C300E0F8EEC39840D7EA246EF582EB12480175
:1047D30074FF124805EFA2E092AF02449EC082C06C
:1047E30083E5A8F8C2AFEA246BF582EB124801E92E
:1047F300124805E8A2E792AF023D3FF582E912486D
:10480300BE22F0EA246AF582EB12481322F582E90C
:104813003400F583E4F02274F21217458C828D8301
:10482300A3A3A3A3E0541FF0EA2436124DC08E8243
:104833008F83E4F0F50C850C8285820AEC250AF857
:10484300ED124C89F583E0C0E0EA250AF8EB124843
:10485300B1D0E0F0750D00850882850983E0F50A83
:10486300750B00E50D780A1216BCE50AA2E0502785
:10487300E50C33333354F8250DC0E08E828F83E08B
:10488300F8EA28F8EB12507824381247FED0E0F00B
:104893008E828F83E004F0050DE50DC3940840B7C5
:1048A300050CE50CC39405408D7F060218173400F0
:1048B300F9E8245D1248BB22F582E93400F583222E
:1048C3002508F5822274F61217459004C5E06403A7
:1048D30070077A007B0002449E7C00ECF875F006BA
:1048E300A4C8AAF02AF974CB28F582740439F58395
:1048F300E06003024A7A124D02124AA8E4F0E82467
:1049030004FAE93400FBEAFEEBFFEC8E828F83F0BE
:10491300E82462124A872465124AB724681247FEC4
:10492300124AA8A3A3E4F0A3124B4CA3124ABB243C
:104933000F124A872435124A8F1215DCE824181205
:1049430047FE1215E8E8241C124AA3241D124AB795
:104953002480124AA32474124AA324691247FE74C2
:1049630080F0E8246A124AA3246F124AA324671230
:104973004AA324ED124AA324EE124AA324EF124AB7
:10498300A324F0124AA324F1124AB724F3124AB71C
:1049930024F6124AA32483124AA324D3124AA3243B
:1049A300D4124A8F1215DCE824D51247FE1215E8FB
:1049B3009090941215DCE824D91247FE1215E8E80A
:1049C30024DF124AA324E1124AA324DD124AA324BA
:1049D300E2124AA324E3124AA324F9124AB724FB9E
:1049E300124AB724FD124AB724FFF582E912451291
:1049F300FC8C08E82508FAE9124A9674FFF00CECDF
:104A0300C3940440EC7C008C82AA8274E22AF5826F
:104A13007407124B06C0E0E82AFAE93400FBEA24E3
:104A23005DF582EB124801D0E0F00CECC394054035
:104A3300D67C008C82AA8274AD2AF5827404124B50
:104A430006C0E0E82AFAE93400FBEA24E5F582EB44
:104A5300124801D0E0F00CECC3940840D69004C592
:104A6300E004F0640170098E828F83E09004C7F044
:104A7300E8FAE9FB0248D90CECC39403400302486B
:104A8300D50248DE1248BB7401F0E82212481090A8
:104A93009094223400FBEA246BF582EB1248BE2289
:104AA300124810E8227401124AAE22F088828983E8
:104AB300A3A3A3221248BBE4F0A3F0E822C082C060
:104AC30083EA2403F582EB124B066008E4F09004BA
:104AD300C6E014F09004C5E014F070069004C774A7
:104AE300FFF08A828B83A3A3E4F09007E7E0700DC5
:104AF3009004C6E0640170057900120CD5023D3FB5
:104B0300F582EF124B0A223400F583E022C082C003
:104B1300837B00EBF875F006A4C8AAF02AF974C5E4
:104B230028F87404124D0CA3A3A3A3A3E4124B4CC3
:104B3300F00BEBC3940340DB9004C5E4F0A3F0A3B4
:104B430074FFF075E1F1023D3F124AAEA3A3A32225
:104B530074F5121745750800750900750A00A80A4F
:104B6300123FE58E828F83A3A3A3E0602DE5084562
:104B730009700AEEF8EFF988088909801D85088213
:104B8300850983124BB912196B124BB51215DC123E
:104B93001E6E7404121704E960D9050AE50AC3946A
:104BA3000340BB850882850983A3A3A3A3E0F9027D
:104BB300477A8E828F83124BBD22E0F8A3E0F58300
:104BC3008882A3A32274F712174578FF79FF7F0029
:104BD300EFFC75F006A4CCAEF02EFD74C92CFC746A
:104BE300043DFD8C828D83A3A3A3E06040EC247479
:104BF300F582ED124B06FE74FF68700374FF697053
:104C03001574016E700BEC247AF582ED1243B280B9
:104C13001CEC242E80F374016E700AEC247A124C7F
:104C230047500A80E1EC242E124C4740E40FEFC3B7
:104C33009403409CC3EA98EB994004E8FAE9FB7FAC
:104C430001021817F582ED1248BEC3E098A3E0995C
:104C53002274F6121745EAFEEBFF120AADEE246545
:104C6300F8EF124C89124C97EC4D60109004C71268
:104C73004FAD850882850983E4F0A3F0EEFAEFFBDC
:104C8300120BFD02449E124C8D223400F9880889D0
:104C930009888222F583E0FCA3E0FD2274F7121752
:104CA30045EAFEEBFF8E828F83A3A3A3A3E0FA7BE7
:104CB3000012082BEEFAEFFB120AC5120BDF024CAF
:104CC30042C082C0837B00EBF875F006A4C8AAF04B
:104CD3002AF9124D02A3E0601AE8246FF582E91263
:104CE3004B06600FE8246BF582E9124B06700479DA
:104CF3000180090BEBC3940340CD7900023D3F745F
:104D0300C928F87404124D0C2239F988828983A3C7
:104D1300A32274F61217457800880874AD1248C3AD
:104D2300740412469008E8C3940840ED9004AD74EF
:104D33000102449DC082C08374FC1216EE909094CD
:104D43001215DC8518828519831215E8120B13E9F5
:104D5300851882851983F0120B137401121739E930
:104D6300F0120B137402121739E9F08518828519B2
:104D7300831215DC7404023A6874F6121745EA24A8
:104D83000D124DC0EC2403F8ED3400F988088909AD
:104D9300EC2407F8ED125078FCE9FD124DCA121607
:104DA300638E828F83E8F0A3E9F0124DCA12166373
:104DB3008B09EA45096003124DDD02449EF8EB348A
:104DC30000F9E8FEE9FF228C828D831243B985083E
:104DD30082850983E0FAA3E0FB228E828F83E0249D
:104DE30001F0A3E03400F02274F6121745EA242EF2
:104DF300F582EB3400124C97EA2470124DC0780010
:104E030079FAECFAEDFB1216638E828F83E8F0A336
:104E1300E9F0780079FAECFAEDFB1216638B09EAF4
:104E230045096003124DDD02449E74F0121745EAF2
:104E3300FEEBFF741012173978081215BE120C938B
:104E43008A0C8B0D8C0E8D0F90907C780C12152490
:104E53009090AC780C121585780C121954124BB53E
:104E63001215DC121E6E7404121704E96003024F5C
:104E7300118E828F83E02402F8A3E0125078FAE9BE
:104E8300FB8A828B8378081215379090AC780812CE
:104E930015BE8A828B837808121598EE240BF5824F
:104EA300EF124801C082C0838E828F83A3A3A3A382
:104EB300A3E02401F8A3E03400F9D083D082E068B2
:104EC3007003A3E069700479018045EE2407F8EFCD
:104ED300123DA7124DE1EE247412507D7014EE249E
:104EE30075124F187003A3E06D70078A828B8312CB
:104EF3004DE1EE248012507D7014EE2481124F1880
:104F03007003A3E06D70078A828B83124DE17900F1
:104F13007F08021817FAEF3400FB8A828B83E0FCC8
:104F2300A3E0FD88828983E06C2274F31217459015
:104F330004C7E0F8123FE6EE2404F50AEF3400F567
:104F43000BEE2465F508EF3400F5098010124C9937
:104F5300850882850983E4F0A3F0124FA7850882B0
:104F6300850983124C99EC4D6030EE2464124B0397
:104F7300F50C780C12195CEE2463124B03F9EEFA6C
:104F8300EFFB120AFB7401121704E98508828509F5
:104F93008360BA1243B5E84970077C007D00124F65
:104FA300A70245F4850A82850B83E0FA7B0012078A
:104FB300E32274F2121745EAFEEBFF890A740E121C
:104FC3001739E0FAEE246212507D600302506C122E
:104FD300471EF50CEE2483124B03FB600478048018
:104FE3000278008908E928F8E412507824020808B6
:104FF300E93400F9E50C98E499A2D265D033406511
:10500300EA7005750B028003750B01EB60337509BC
:105013000078081219587A187B08120B437402128D
:1050230017047508187509087808121958AC0AA9E5
:105033000B12470F1217047404250AF50A7C187D16
:10504300087401250AF5D9850BD97800800A8808E8
:10505300EC1248C3ED12427BE8C3950A40F075E1B8
:1050630095790080067907800279FF0248AC8A0AA5
:10507300EE250AF8EF3400F9E822F582EF124B0A25
:10508300640122C082C08380031250B4E9F874FF24
:1050930028190470F4ECFAEDFB023D3FC082C08393
:1050A30080031250B4E9F874FF28190470F4023D28
:1050B3003F8C828D83E08A828B83F08C828D83A3E5
:1050C300AC82AD838A828B83A3AA82AB832274F4DE
:1050D300121745E9FF7E008A088B09780812199C8C
:1050E30000040FA2520851245139514E5163517893
:1050F300519451AD51BF51ED510F522B524752654F
:1051030052A252865274016F70128C828D83E0C357
:1051130094035008E09011D1F00252C07E1802525D
:10512300C074026F70F68C828D83125AB19011D2C3
:10513300E8F0A3E980E274016F70E18C828D83E073
:10514300C3940250D7E0900DDC80CD74016F70CC16
:105153008C828D83E0C3940550C2E0900DDD80B84E
:1051630074016F70B78C828D83E0C3940250ADE0FD
:10517300900DDE80A374106F70A27508108E0978ED
:10518300081219587ADF7B0D125E9E121704025221
:10519300C074016F70868C828D83E0C394024003D8
:1051A30002511FE0900DEF02511B74016F60030267
:1051B300511F8C828D83E09011D5808D74046F60B4
:1051C3000302511F90906C78081215BE8D838C8258
:1051D30078081213BA400302511F8C828D83121573
:1051E300DC900DF11215E80252C0EF600302511F6B
:1051F30012050DE9700E12116D795012133512114B
:10520300610252C0900E84740102511B74016F60DD
:105213000302511F8C828D83E0C394024003025129
:105223001FE0900DF002511B74016F600302511FC8
:105233008C828D83E0C3940A400302511FE09011D6
:10524300D402511B74016F600302511F8C828D8342
:10525300E024F9C3940A400302511FE09011D602DF
:10526300511B74016F600302511F900E83E0F88C91
:10527300828D83E0900E83F0E87042E06401703D1C
:1052830002520174016F600302511F8C828D83E00F
:10529300C39404400302511FE09011D702511BC372
:1052A300EA9426EB9400501374026F700E8C828D77
:1052B30083125ABC1203F3E9FE80020E0EEEF902CA
:1052C30052CA740E1217047F0402181774F21217CD
:1052D3004574DA1216EE890AECFEEDFF74341217E8
:1052E30039E0F50B7420121739AC82AD83758390C6
:1052F30075826074061216017420121739AC82ADE0
:1053030083121107E9F508C3940A400302542212D9
:105313001149E9F5099011D1E06402700474018028
:1053230001E4F50C780C12195CAD0BAC09A908EE7D
:10533300FAEFFB12119774011217047C147D0079A4
:1053430000740C121739AA82AB83120F9975F006F9
:10535300E508A4F50B740C121739AC82AD837A10EF
:105363007424250B125F5370387C1079FF740C1270
:105373001739125C54702A741C121739AC82AD832E
:105383007A047425250BF912132F740C121739ACF8
:1053930082AD83E509A2E0E433F9EEFAEFFB1204F0
:1053A30089851882851983AC82AD837A0C74702544
:1053B30008125F537055851882851983AA82AB83BF
:1053C30012113D750800E50875F003A4F8A9F085EE
:1053D3001882851983E58228F8E583125C90125AB6
:1053E300BCEC4D601D88828983A3A3E0F50C750D89
:1053F30000780C121958EEFAEFFB12071774021219
:1054030017040508E508C3940440BBE509A2E1506D
:1054130046900DDBE0F9EEFAEFFB12071D803874BE
:1054230008650B70329011D1E06402702A7C007D14
:1054330000A90AEEFAEFFB121191125461601812DF
:105443005AC288828983E5824583600B7C00790098
:10545300EEFAEFFB121743790074260262E3900D14
:10546300F5E0F8A3E0F9E8492274F0121745EAFEE3
:10547300EBFF8C088D09750A0AE9600C14600914A6
:10548300602E14607F025512121155E9F50AC39478
:105493000A507CE50845096076750E06750F00789D
:1054A3000E121958EEFCEFFD125E9A121704805F7C
:1054B300750B00750E06750F00780E121958EEFC69
:1054C300EFFDE50B75F00EA4F8A9F074FD28FA744E
:1054D3000D39FB120F937402121704E9601B850B3D
:1054E3000AE50AC3940A5027E50845096021AA087A
:1054F300AB09A90A12114F8016050BE50BC3940AD9
:10550300500D80AF12115BE9F50AC3940A40D9A983
:105513000A7F0802181774F41217458908750915CC
:1055230074FF6A700374FF6B70277E00AC087A0205
:105533007B00EEF912112BE960037509000EEEC32F
:10554300940A40E8E50860497A857B1112092180B5
:10555300401209038A0A8B0BAE0AAF0BEE4F602E83
:105563007C007D00EE2405FAEF3400FB8E828F83EE
:10557300125610500CAC087A027B0012112B7509DD
:1055830000E508600CEEFAEFFB1211858003750944
:1055930014A9090252CA74F2121745ECFEEDFF7406
:1055A3000E121739125AA975081574FF6A7003741D
:1055B300FF6B7021750900AC0AAD0BEEFAEFFBA986
:1055C30009121131E960037508000509E509C3945F
:1055D3000A503580E21209038A828B83E582458370
:1055E30060237C007D00E5822405FAE5833400FB1B
:1055F3001256105013AC0AAD0BEEFAEFFB12113139
:105603007508008003750814A9080262E6A3A3A322
:10561300A3125A93C3940A22C082C083900DF5EA61
:10562300F0A3EBF0900DDBE0FC7D007A257B00120C
:1056330003F3900DDBE0F9120699D083D0820201C7
:105643002274EC1217458A088B09E9FE74141217A9
:1056530039780C1215BE7F00EE702E780812195897
:1056630090906C78101215BE780C7910121469AAF8
:1056730010AB11AC12AD1312049B7402121704E9A0
:10568300FF60097901AA08AB09120495EFF97F0CB1
:1056930002181774EA12174574EC1216EEEAFEEBC1
:1056A300FFEE240CF514EF3400F5158E828F83A3DF
:1056B300858212858313EE240AF510EF3400F51169
:1056C300EE2403F508EF3400F5098E828F83A3A33C
:1056D300E024FA7003025A6B24FD700302598E14FE
:1056E30070030257821460101470030259C024FE21
:1056F300700302590E025A89EE2409F50AEF3400A9
:10570300F50B125461604AE0F5838882125AB1881E
:105713000C890DE8450D6039851482851583E0F504
:105723000E780E12195CEE240BF582EF3400F5832C
:10573300E0F9850A82850B83125ABC0A0A0AAB096F
:10574300850C82850D831217437401121704025AC4
:1057530089850A82850B8312196F900DF11215DC6E
:1057630012049B7402121704E97003025A89790127
:10577300850A82850B831262F1120495025A898588
:105783001282851383E060030258E1EE2405F50CD1
:10579300EF3400F50D850C82F583E0A2E0400302AF
:1057A30058E17C0E7D007900851882851983AA82D1
:1057B300AB83120F99EE2408F50AEF3400F50B853D
:1057C3000A82F5831254646019750E06750F00780A
:1057D3000E121958850A82850B83E02410FCA3E07E
:1057E300801A125A9AEA4B7003025A89750E06758B
:1057F3000F00780E121958EA2405FCEB3400FD74EF
:1058030002121739AA82AB83125E9E121704850C0B
:1058130082850D83E0A2E25004D2F08002C2F0A29E
:10582300F0E433F8740C121739E048F085108285E0
:1058330011831254646015851082851183E024104E
:10584300F8A3E03400F9888289838003909070780C
:105853000C1215BE851082851183125464600F8566
:105863001082851183E0F510A3E0F5118006751011
:1058730000751100850A82850B83125464600B85C1
:105883000A82850B83125AA98006750A00750B00DC
:10589300780C1219547810121958780A121958856D
:1058A300148285158312196F8E828F83A3125AB7C0
:1058B300740A121739AA82AB83121143740A12179E
:1058C30004850882850983125AB1900E85E8F0A3F6
:1058D300E9F07A017B00900DDBE0F9120FDB125443
:1058E300617003025A89125AC2E8FEE9FFEE4F7053
:1058F30003025A89851282851383E0FC79011262BF
:10590300EB8E828F83121743025A89851282851385
:1059130083E06406704C125A9A8A0A8B0BEA450B91
:1059230060409011D7E01460081460281460188058
:10593300317C007D008A828B83A3A3A3A3E0F912A9
:1059430062EB121191801B7C007D0079007A097B48
:10595300041210FB1262EB850A82850B83E0F912B5
:1059630004831254617003025A89125AC2890BE8E4
:10597300450B7003025A898E828F83A3E0FC790260
:105983001262EB8882850B830259087C007D00EE4E
:105993002404FAEF3400FB850882850983125A93A5
:1059A300F8C3940A4003025A89AC10AD117A047506
:1059B300F006E8A42425F9121329025A89850882DE
:1059C300850983E0F508A3E0F509740E121739ACD5
:1059D30082AD837583907582667406121601AA08D8
:1059E300AB091209038A0A8B0BA80AA90BE84970B1
:1059F30003025A899011D1E064027003025A89E8C4
:105A03002404FEE93400FF740E121739AC82AD830F
:105A1300E82405FAE93400FB8E828F83125A93F54A
:105A23000AC3940A501C750B01780B12195C1211EE
:105A330049E9FC7408FDA90AAA08AB0912119702E7
:105A4300574C9011D1E070097905AA08AB090257A8
:105A53007C640170317C007D008E828F83E0F9AA23
:105A630008AB09121191801E12050DE97018900EF2
:105A730084E06401700812116D900E84E4F0795093
:105A830012133512116174141217047F0E021817C2
:105A9300E0F9121107E922850882850983E0FAA358
:105AA300E0FB12090322E0F50AA3E0F50B22E0F87C
:105AB300A3E0F922A3A3A3A3A3E0FCA3E0FD22E0B8
:105AC300F5838882A3A3E0F8A3E0F92274F4121704
:105AD3004574F21216EEEAFE8C0B75F006E9A42467
:105AE30020F508851882851983AC82AD837A0E125E
:105AF3005F53704A7C06125C4C7043740C12173966
:105B0300125AB1E8F509E50B6005EE42098004EE8F
:105B1300F45209850982AA82E86A7001E9601B745C
:105B23000C121739EAF0A3E4F0851882851983ACC7
