:020000040000FA
:0600000002010A021D824C
:03002B000221F0BF
:030033000221D2D5
:03003B0002220995
:0300430002218611
:03005300021DF893
:03006B000221ACC3
:10008300021C73E5C754F84401F5C7790122000047
:100093000080FB120086B900030200F4E4792178A2
:1000A30008B800028004F709D8FCE479297802B87B
:1000B30000028004F709D8FCE49002817861790991
:1000C3008002F0A3D8FCD9FA900AE1AA82AB83900C
:1000D300013A78FF79038015E493A3AC82AD838A58
:1000E300828B83F0A3AA82AB838C828D83D8E9D9D8
:1000F300E775826475839A740312011C7582917586
:100103008300740012011C75D00075813F7518813E
:10011300751902759F00020096C09FF59FE473D086
:100123009F22D083D082C09FE493C0E0740193C028
:10013300E0740293F59F22FF0000B400002800281A
:1001430000283075A000A000A000A000000800084F
:10015300E001F0001000100010001000100010006B
:1001630050005000500010001000D00700000000A5
:1001730000000F00010005003075070010000100AA
:1001830081FF0000FF360654063C06FF0202020808
:10019300025000A0000000E80302A79001000077CE
:1001A30090029590010000360B028590010000B289
:1001B30002029590010000370B028790010000C8EE
:1001C30002029590010000380B028990010000CAD9
:1001D30002029590010000390B028B90080000CBBE
:1001E300020295900100003A0B028D900100003B42
:1001F3000BFF0100FF2002A7900100007A900295F7
:10020300900100009F0B028F90000000000002830A
:10021300900300001803660C660C660C660C660CF3
:10022300660C660C660C660C660C660C660C660C3B
:10023300360F4E0F300FFFFF0202020202020202CC
:1002430002010D000000100102A790010000809040
:10025300029590010000E20B02A9900100007807CB
:10026300029590010000E30B02A3900100004F8F61
:10027300029590010000E40B02A190010000268F7B
:10028300029590010000E50B029F90010000A38EF0
:10029300029590010000E60B029D90010000B58ECF
:1002A300029590010000E70B029B90010000918EE4
:1002B300029590010000E80B02BF900100007F8EC1
:1002C300029590010000E90B029990010000348F20
:1002D300029590010000EA0B029790010000EB0BDE
:1002E30001E803053F10FF0001307503020106001A
:1002F30000000000000000000000000000000000FB
:100303000000000000000000000000FFFF06008066
:100313000CE803140953696D706C65424C455065D4
:10032300726970686572616C051250002003020ADD
:10033300000201060302F0FF53696D706C652042F1
:100343004C45205065726970686572616CB013002A
:1003530000B6130A436861726163746572697374EA
:100363006963203100024368617261637465726975
:100373007374696320320008436861726163746552
:100383007269737469632033001043686172616337
:10039300746572697374696320340002436861721F
:1003A3006163746572697374696320350002A79091
:1003B3000100007D90029590010000FD0C02B790B2
:1003C300030000D20A029390010000FE0C029590F4
:1003D3000100000F0D02B990010000D30A029390AF
:1003E300010000100D029590010000210D02BB9049
:1003F300020000D40A029390010000220D0295909E
:10040300010000330D02BD90000000D50A02839065
:10041300030000D60A029390010000340D02959068
:10042300010000450D02AB90040000DC0A0293902A
:10043300010000460D120125BE8D03120125D58D45
:1004430003120125048E031201253D8E031201259B
:10045300658E03120125938E03120125AA8E0312C2
:100463000125C18E03120125D78E03120125FE8EAD
:1004730003120125118F03120125278F0312012572
:100483003A8F031201255F8F03120125828C02121A
:100493000125818D02120125B68D02120125D78D0A
:1004A30002120125E78D02120125088E0212012591
:1004B300148F02120125E18F0212012554900212BA
:1004C3000125DA90021201251D9102120125549192
:1004D30002120125DA9102120125AC9202120125C2
:1004E3000A93021201252293021201259C93021200
:1004F30001259F9302120125A2930212012549941B
:100503000212012561940212012591940212012520
:10051300B194021201259F950212012555960212EC
:1005230001258FDA02120125B7DA02120125E5DA75
:10053300021201251CDB0212012584DB02120125B4
:10054300CDDB0212012518DC0212012556DC021252
:10055300012593DC02120125C1DC0212012568DDAD
:100563000212012572DD021201257FDD021201252F
:10057300B2DD0212012574DE0212012580DE0212B1
:10058300012598DE02120125A2DE0212012504963E
:10059300031201251296031201252A96031201253F
:1005A30042960312012548AF01120125E6AF01125D
:1005B30001255EB00112012573B101120125ADB110
:1005C3000112012556B2011201252BB30112012597
:1005D3008FB401120125E6B4011201256DB5011294
:1005E300012554B601120125A1B6011201252FB729
:1005F3000112012553B70112012528B90112012562
:1006030069B9011201258BB9011201250CBA011236
:100613000125F6BA01120125BCBB01120125B5BFA4
:100623000212012587C00212012530C102120125E1
:1006330073C10212012500C2021201258CC20212EB
:1006430001256DC3021201259CC30212012598C422
:1006530002120125E0C402120125E2C5021201259E
:1006630026C6021201254CC602120125299803123F
:100673000125BAEB02120125D0EB02120125F6EB9C
:10068300021201251EED0212012528ED0212012599
:1006930081EE0212012581EF02120125FDCB021228
:1006A300012532CD0212012565CD02120125AFCD00
:1006B300021201256DCF02120125C39001120125FB
:1006C3002691011201256B92011201257B920112E1
:1006D30001259E9201120125E992011201258E93B3
:1006E300011201258494011201254E950112012561
:1006F300C69601120125089701120125A69701123A
:100703000125F39701120125199801120125079A72
:10071300011201250C9A01120125ED9B01120125FD
:10072300419C01120125A39C01120125CB9C0112BE
:1007330001256F9D01120125319E01120125629E43
:1007430001120125659E01120125AD9E01120125AD
:10075300EF9E01120125569F011201253AFD021257
:1007630001254DFD0212012566FD02120125B1FD91
:10077300021201258CFE021201251BFF0212012524
:1007830066FF021201257C22001201258822001235
:100793000125C12200120125062300120125BD23D4
:1007A30000120125432400120125A824001201256B
:1007B300D424001201250D25001201252127001242
:1007C3000125FD2800120125E82A001201251F2C0E
:1007D300001201257F2E001201256B2F0012012527
:1007E300B13000120125BE3100120125DB310012A8
:1007F30001251332001201252D32001201259532F5
:10080300001201252F3700120125D03700120125D0
:1008130021380012012548380012012596380012AC
:100823000125B43800120125083900120125E139E8
:1008330000120125683B00120125F03B001201253F
:10084300E5D502120125EFD502120125BAD602120F
:100853000125D5D602120125FBD6021201253FD769
:100863000212012577D702120125A0D70212012512
:1008730019D8021201252ED80212012543D80212DB
:1008830001257AD8021201258ED802120125BFD87C
:1008930002120125F9D80212012525D902120125D8
:1008A3007BD902120125CFD90212012518DA0212CF
:1008B300012542DA0212012567DA02120125CEE789
:1008C3000212012598E8021201257BE90212012593
:1008D300F1E90212012533EA0212012560EB02124B
:1008E3000125008002120125298002120125428080
:1008F3000212012587810212012565820212012558
:1009030084820212012511830212012554830212EB
:100913000125A18402120125408502120125BF870A
:10092300021201255688021201252A890212012585
:100933000C8A02120125788B021201250B8C0212FC
:100943000125F89303120125619403120125B5943F
:1009530003120125DC940312012537DF021201255E
:10096300A4DF02120125EFDF02120125E4E00212E7
:100973000125E0E102120125CAE202120125C39F0B
:100983000212012505A002120125DFA00212012592
:10099300B8A102120125B3A20212012592A30212E9
:1009A3000125FEA302120125C5A40212012530A5CB
:1009B3000212012597A502120125C2A502120125E3
:1009C30033A602120125C6A6021201252FA7021281
:1009D300012544A7021201258CA702120125A5A710
:1009E300021201250AA8021201250DA802120125EF
:1009F300008003120125288003120125668003125B
:100A030001252481031201258F8103120125AB8166
:100A130003120125D3810312012503820312012549
:100A23001282031201258C8203120125B282031262
:100A3300012520A001120125BDA101120125A3A3B7
:100A4300011201256DA401120125B4A4011201258F
:100A5300FBA4011201250DA5011201254DA50112CB
:100A630001257CA501120125C8A50112012500A6B7
:100A7300011201252EA6011201257FA601120125CF
:100A83000EA701120125FCA901120125D6AB011203
:100A9300012512AC011201256CAD01120125B3AD84
:100AA3000112012528AE0112012576AE011201259E
:100AB300ADAE01120125C09602120125DD96021288
:100AC3000125779C02120125799D02120125F39ECF
:100AD30002120125A19F02120125375000120125A0
:100AE300805000120125AD5000120125E050001284
:100AF3000125ED5000120125F950001201250B517B
:100B030000120125E051001201253E520012012579
:100B13007352001201250F54001201255C54001278
:100B23000125805400120125ED5400120125925530
:100B3300001201254E5600120125CD560012012543
:100B4300915700120125A0570012012521580012C8
:100B53000125C05800120125F258001201258D59B4
:100B630000120125EB5900120125255A0012012517
:100B7300A65A001201256F5B00120125185C0012B2
:100B830001259F5C00120125F75C00120125585DC9
:100B930000120125815D00120125375E0012012537
:100BA300815F00120125C45F00120125E15F00127D
:100BB30001250060001201254B60001201257060C1
:100BC3000012012599600012012508610012012518
:100BD3004A61001201254E6200120125E8620012EB
:100BE3000125B46300120125CD63001201254F7660
:100BF30000120125A27600120125AE76001201250E
:100C0300837700120125AA7700120125E5770012E8
:100C13000125517800120125857800120125BE783F
:100C230000120125D678001201252F790012012523
:100C3300487900120125917900120125A479001247
:100C43000125BE7900120125D47900120125F07A1D
:100C530000120125017C001201254E7D00120125A1
:100C6300337E00120125F07F00120125EDE601120B
:100C7300012521E7011201258CEA01120125D6EB9A
:100C830001120125A0EC011201252AEE0112012512
:100C930005EF011201253FEF0112012562EF011259
:100CA3000125A4EF01120125ADEF01120125F7EF94
:100CB3000112012501F001120125ADF001120125F8
:100CC30081F101120125D5F10112012537F201123B
:100CD30001258AF201120125B9F201120125F8F268
:100CE30001120125FF6300120125596C0012012531
:100CF3005F6C001201251A720012012500760012A2
:100D03000125C6F6021201253CF70212012552F70E
:100D1300021201258FF702120125C7F702120125DE
:100D230044F8021201257FF802120125FAF8021293
:100D3300012536F9021201253FF9021201254BF96B
:100D43000212012565F9021201258AF90212012511
:100D5300A0F902120125E4F90212012523D102129E
:100D6300012536D10212012550D10212012579D174
:100D730002120125BCD102120125FBD10212012569
:100D830039D2021201259ED202120125B3D20212D8
:100D93000125BED202120125CBD202120125E2D2D5
:100DA30002120125F0D202120125FBD20212012503
:100DB30007D3021201251AD30212012525D30212E9
:100DC300012548D302120125F1D30212012501D4D2
:100DD300021201251BD40212012538D40212012567
:100DE30054D40212012579D40212012583D40212AC
:100DF300012597D402120125B6D40212012517D575
:100E0300021201251DD50212012523D50212012547
:100E130029D50212012535D50212012568D5021202
:100E2300012574CC01120125F6CC011201259FCDB9
:100E330001120125E7CE01120125F5D0011201258A
:100E4300DBD10112012510D20112012532D2011288
:100E53000125DBD201120125ABD401120125D4D423
:100E6300011201254CD5011201257ED50112012560
:100E73008BD501120125D6D501120125FAD5011210
:100E830001254BD80112012555D901120125B1D9EC
:100E930001120125F1BD0112012502BF0112012535
:100EA300E6BF01120125F0BF0112012512C0011294
:100EB30001251EC001120125C2C101120125EFC186
:100EC3000112012505C3011201255AC3011201258F
:100ED300A9C4011201257EC501120125DAC501123B
:100EE300012545C6011201257AC601120125BDC699
:100EF3000112012587C9011201259FC9011201258C
:100F030030CA011201253ECA011201258BCA011202
:100F1300012599CA0112012505CB0112012580CBB8
:100F230001120125D7CB01120125D3F301120125AB
:100F3300F5F30112012506F601120125C5F8011288
:100F43000125EFF901120125ADFA0112012599FBE3
:100F530001120125058C031201252A8C0312012598
:100F6300A08C0312012598B802120125A1B8021220
:100F73000125AAB80212012582B90212012533BB49
:100F83000212012563BB021201258EBB0212012549
:100F9300BEBB02120125E9BB021201251DBC0212D0
:100FA300012549BC021201258CBC02120125B7BCE4
:100FB30002120125FEBC0212012553BD02120125B6
:100FC30095BD02120125EFBD021201251ABE0212C0
:100FD300012569BE0212012599BE02120125C4BE74
:100FE30002120125F2BE0212012515BF02120125CC
:100FF3003299031201255E99031201258B9903127D
:101003000125959903120125A5990312012567B0BE
:101013000212012571B002120125B2B0021201259C
:10102300FBB00212012535B1021201258BB1021268
:101033000125ACB1021201255BB40212012564B48F
:1010430002120125B8B402120125E1B402120125EE
:10105300EBB40212012559B502120125E9B50212BA
:10106300012544B60212012572B602120125FAB611
:101073000212012539B7021201256EB702120125AA
:1010830080B7021201259FB702120125A8B70212E9
:1010930001256AB8021201250D9503120125258841
:1010A300031201255B88031201258F880312012592
:1010B300DC890312012590FF02120125A6FF02120B
:1010C3000125B0FF02120125AF99031201258CE31C
:1010D300021201259FE30212012563E40212012596
:1010E300A2E402120125BFE402120125F8E4021270
:1010F300012545E50212012577E502120125AEE53A
:1011030002120125C1E70212012583920312012570
:10111300A69203120125D592031201256D930312A2
:101123000125AF9303120125FA82031201251F83C0
:10113300031201254983031201250E9A0312012587
:10114300573C00120125353E00120125D43F001201
:1011530001257F4000120125FF4000120125844133
:1011630000120125AD410012012588450012012519
:10117300FF450012012516470012012550470012B2
:101183000125914700120125D848001201252E4957
:1011930000120125774900120125E64900120125B5
:1011A300524A00120125834A001201259B4A00126C
:1011B3000125B44B00120125C44B001201257A4DC1
:1011C30000120125914D00120125C34D0012012586
:1011D300654F00120125F94F00120125DB9603121A
:1011E3000125EC9603120125B79A03120125F69AFD
:1011F30003120125A99B031201258C9703120125D4
:101203009C9703120125B797031201251F98031218
:101213000125F1FE0112012576FF01120125DAFFF6
:1012230001120125099103120125329103120125AF
:101233009D9103120125EE91031201254992031298
:101243000125168A031201252B8A03120125678AB9
:1012530003120125E78A031201255B8B0312012583
:10126300758B03120125888B03120125968B0312BC
:101273000125B08B03120125D08B031201258BEFBF
:1012830002120125A2EF021201251CF00212012510
:1012930000F102120125D7F20212012514FA0212FB
:1012A3000125AEFA021201254AFB02120125DBFBDE
:1012B300021201258BFC0212012599FC0212012561
:1012C30017FD021201252DFD0212012537FD021221
:1012D3000125B29803120125229903120125718F6A
:1012E30003120125C38F0312012536900312012532
:1012F300A39003120125DE8503120125088603123C
:101303000125D78603120125B3870312012531A8CE
:1013130002120125FDA8021201253EA90212012590
:1013230078A902120125D6A9021201252AAA0212BE
:10133300012588AA021201251EAB0212012526AC43
:1013430002120125B0AD021201254EAE0212012593
:10135300B5AE02120125C8AE02120125BCAF0212BE
:10136300012505B002120125FED90112012530DD48
:1013730001120125C1DE0112012518DF0112012529
:1013830035DF01120125B5DF0112012531E101121B
:10139300012500E2011201256DE50112012557E641
:1013A30001120125C1C60212012547C902120125F6
:1013B300F5C9021201250ACB021201257CCB0212C8
:1013C30001253CF30212012581F3021201259EF34C
:1013D3000212012554F402120125A7F40212012579
:1013E30077F5021201258DF602120125369B0312B1
:1013F3000125009B03120125639B031201258B9B8F
:1014030003E066701008A3E066700A08A3E0667044
:101413000408A3E06622C3E7960809E7960809E7EC
:10142300960809E79622C3E09608A3E09608A3E08E
:101433009608A3E09622C008C3E096F50808A3E047
:1014430096420808A3E096420808A3E09645087070
:1014530001D3D00822080808EAC0E0EBC0E086F018
:10146300E7A4FA180986F0E7A42AFA180986F0E730
:10147300A42AFA180986F0E7A42AFA1986F0E7A441
:10148300FBE5F02AFA190886F0E7A42BFBE5F03A0E
:10149300FA190886F0E7A42BFBE5F03AFA181809C5
:1014A30086F0E7A4C5F02BFBE43AFA1908E7C5F088
:1014B300C6A426F6E5F03BFBE43AFA1886F0E7A467
:1014C300F6E5F00826F6E43B08F6E43A08F6D0E041
:1014D300FBD0E0FA22E4CFC0E0E4CEC0E0E4CDC02C
:1014E300E0E4CCC0E075F020C3E633F608E633F65B
:1014F30008E633F608E633F6181818EC33FCED3338
:10150300FDEE33FEEF33FFC3EC9709ED9709EE973A
:1015130009EF97191919400FFFEC97FC09ED97FD97
:1015230009EE97FE191906D5F0BEECF709EDF70998
:10153300EEF709EFF7191919D0E0FCD0E0FDD0E080
:10154300FED0E0FF226016080808C6C313C618C6FB
:1015530013C618C613C618C613C6D5E0EA22700907
:10156300080808226016181818C6C333C608C633FD
:10157300C608C633C608C633C6D5E0EA22E627F650
:101583000809E637F60809E637F60809E637F622CA
:10159300E026F608A3E036F608A3E036F608A3E053
:1015A30036F622E026F008A3E036F008A3E036F092
:1015B30008A3E036F022C3E697F60809E697F60893
:1015C30009E697F60809E697F622C3E096F008A322
:1015D300E096F008A3E096F008A3E096F022E05628
:1015E300F608A3E056F608A3E056F608A3E056F67D
:1015F30022E056F008A3E056F008A3E056F008A353
:10160300E056F022E0F608A3E0F608A3E0F608A30C
:10161300E0F622E6F008A3E6F008A3E6F008A3E666
:10162300F022E0FAA3E0FBA3E0FCA3E0FD22EAF052
:10163300A3EBF0A3ECF0A3EDF022CAC0E0E6F0A325
:1016430008DAFAD0E0FA22CAC0E0E0A3C582CCC52A
:1016530082C583CDC583F0A3C582CCC582C583CDA6
:10166300C583DAE6D0E0CA22C3E498F8E499F91214
:1016730016AC8026C3E49AFAE49BFBE920E7E9125F
:1016830016ACE498F8E499F922C3E498F8E499F9DC
:101693001216ACE498F8E499F9C3E49AFAE49BFBD4
:1016A30022EB20E7CFE920E7E0B90010BB0008E810
:1016B3008AF084F8AAF022E4FBC8FA22EB70227BBA
:1016C30010C833C8C933C9335007C39AC3DBF28088
:1016D300069A50012ADBEAC833F4C8C933F4C9FABD
:1016E3002275F008E4C833C8C933C933C99AC99B02
:1016F3005004C92AC93BD5F0ECFBC833F4C8E4C98C
:10170300FA22600D08C6A2E713C618C613C6D5E0B1
:10171300F322600C08C6C313C618C613C6D5E0F47B
:1017230022700422600D18C6C333C608C633C6D55B
:10173300E0F41822251810AF08F518400215198097
:1017430008F51840021519D2AF22C0D0251810AFE2
:1017530008F518500205198008F51850020519D22A
:10176300AFD0D0222518F58210AF08F51840021526
:10177300198008F51840021519D2AF85198322255F
:1017830018F582E43519F58322E4732518C582C060
:10179300E0E51934FFC583C0E0E518C3958224F85A
:1017A30010AF08858319858218800885831985827F
:1017B30018D2AFCEF0A3E520F0A37808E608F0A393
:1017C300DEFAEFF0A3E58124FAF8E608F0A3E608D1
:1017D300F0A3E608F0A30808E608F0A3E608F0A3E0
:1017E30015811581D0E0FED0E0F8158115811581B2
:1017F300E8C0E0EEC0E0222518C582C0E0E5193458
:10180300FFC583C0E0E518C3958224F910AF0885AE
:1018130083198582188008858319858218D2AFCEF3
:10182300F0A3E520F0A37808E608F0A3DEFAEFF0D2
:10183300A3E58124FBF8E608F0A3E608F0A3080873
:10184300E608F0A3E608F0A315811581D0E0FED0E9
:10185300E0F815811581E8C0E0EEC0E02285198328
:10186300851882E0A3FEE0A3F5207808E0A3F6083C
:10187300DFFAE0A3FFE0A3C0E0E0A3C0E0E0A3C081
:10188300E0E0A3C0E0E0A3C0E010AF0885821885C4
:1018930083198008858218858319D2AFD083D082BB
:1018A300020122851983851882E0A3FEE0A3F520B7
:1018B3007808E0A3F608DFFAE0A3FFE0A3C0E0E0C6
:1018C300A3C0E0E0A3C0E0E0A3C0E010AF088582BE
:1018D300188583198008858218858319D2AFD08330
:1018E300D08222C0D02518C582C0E0E51934FFC5D7
:1018F30083C0E0E518C3958224F310AF08858319EC
:101903008582188008858319858218D2AFC8F0A311
:10191300E9F0A3EAF0A3EBF0A37908E709F0A3D871
:10192300FAECF0A3EDF0A3EEF0A3EFF0A3D0E0F018
:10193300A3D0E0F0A3D0E0F0A3E520F0A3E5F0F01E
:10194300A322851983851882E0C0E0A3E0F9A3E010
:10195300FAA3E0FBA37808E0F608A3DFFAE0FCA310
:10196300E0FDA3E0FEA3E0FFA3E0C0E0A3E0C0E04E
:10197300A3E0F5D0A3E0F520A3E0A3F5F010AF08B2
:101983008583198582188008858319858218D2AFCB
:10199300D082D083D0E0F8D0E032740480067402A1
:1019A30080027401C0E0F404121767D0E012163D00
:1019B300227404800474028000CCC0E0EDC0E0E532
:1019C30018C39CCCAD1950011D10AF068C188D198E
:1019D30080068C188D19D2AF12164AD0E0FDD0E0E4
:1019E300FC22D083D082E9C0E0E493A3C386F0C590
:1019F300F095F0F908E493A386F0C5F095F0700B29
:101A0300E493A3C3994005E9048002A3E475F002BB
:101A1300A42582F582E5F03583F583D0E0F9E493DC
:101A2300A3C0E0E493C0E022D083D082ECC0E0ED19
:101A3300C0E0E493A3FCE493A3FDED4C600D121A04
:101A430077EC24FFFCED34FFFD80EFE493A3FCE48B
:101A530093A3FDED4C600D121AB6EC24FFFCED349C
:101A6300FFFD80EFD0E0FDD0E0FCE493A3C0E0E411
:101A730093C0E022C0E0C3E49396087401939618E0
:101A8300400FE49366700808740193661870007041
:101A930019A3A3C3E49396087401939618A3A340D0
:101AA3000DD0E0D0E0D0E0021A67A3A3A3A3A3A3C1
:101AB300D0E022C0E0C0F088F0E4936670080874B8
:101AC300019366187000A8F0A3A3700BD0F0D0E0C8
:0E1AD300D0E0D0E0021A67A3A3D0F0D0E0224A
:101AE40074F51217FAEAFEEBFFEE2434F8EF340033
:101AF400F988088909EE2435121C1CF8EE243712E3
:101B04001C1CF50AEC850AF0A4FCAAF0850AF0ED89
:101B1400A42AFDE82CF8E43DF97A257B001216ACE2
:101B2400EA850882850983F05407F87401B8000235
:101B34008004C333D8FCC0E0E0131313541FF8EE41
:101B440028F8EF3400F9E8245DF582E93400F583E0
:101B5400D0E0F8E0586008850882850983801DEE8E
:101B64002436121C1CF5F0EA84A8F0EE28F8EF34B1
:101B740000F9E82438F582E93400F583E0F97F04BC
:101B84000218A674F51217FAEAFEEBFFEE243412DB
:101B94001C1CC0E0EE2435F582EF3400F583D0E060
:101BA400F08E828F83A3A3A3A3A3E0FAA3E0FB8E0A
:101BB400828F83A3A3A3A3A3A3A3E0FCA3E0FDECD0
:101BC400C39AF50AED9BF50BEE2480F508EF34007B
:101BD400F509850882F583E06401702BEE2481F514
:101BE40082EF3400F5831219B8121C2574021217FF
:101BF4004DE960137CFD7D04EEFAEFFB120B948536
:101C04000882850983E4F0AC0AAD0BEEFAEFFB120F
:101C14001AE4122178021B82F582EF3400F583E086
:101C240022C082C083851882851983E0F8A3E0F975
:101C3400C3EA9CEB9D5012C3EC98ED994019C3EA9A
:101C440098EB99501279018010C3EA98EB9940F50A
:101C5400C3EC98ED9950EE7900D083D08222EAC388
:101C64009CFAEB9DFB2200008521878522C622C0B9
:101C7400E074EF1218E6759B00906182E0A2E640E2
:101C840003021D34E591A2E64003021D347591BFA1
:101C94009003C2E064057008120D32120D3E8003F9
:101CA400120D38752100120DA4E99003C3F07900D8
:101CB400120D98120AFE7A017B009003C1E0F9121A
:101CC400106E907803E064426003021D7D90055F0E
:101CD400E014F06003021D7DC2AF121CE100782AFB
:101CE400D0E0F618D0E0F6E59F5407F9700590901F
:101CF40053800390904F7808121607E9C4C0E07827
:101D040029E65508F50808E65509F509740B78081D
:101D1400121715D0E02508F8906270E0A2E740F8A9
:101D2400E8C333906272F0906270E0D2E0F08049D0
:101D3400E0A2E55024E591A2E5501E7591DF9003E1
:101D4400C2E0640D70139003E4E004F064287002B0
:101D5400E4F07A00E0F9120E16906181E0A2E350FB
:101D640009E5E9A2E3500375E9F7A3E0A2E7500906
:101D7400E591A2E7500375917F7F04021945C0E005
:101D8400C0D0C082C083906183E0A2E05009E5BF67
:101D9400A2E0500375BFFEE0A2E15009E5BFA2E155
:101DA400500375BFFDE0A2E25009E5BFA2E2500373
:101DB40075BFFBE0A2E35009E5BFA2E3500375BF82
:101DC400F7E0A2E45009E5BFA2E4500375BFEFE0D9
:101DD400A2E55009E5BFA2E5500375BFDFE0A2E626
:101DE4005009E5BFA2E6500375BFBFD083D082D0AF
:101DF400D0D0E032C0E074F21218E6E5A7A2E450B5
:101E04000FE5A1A2E4500953A7EF75A1EF121E4CF0
:101E1400E5A7A2E5500CE5A1A2E5500653A7DF759E
:101E2400A1DFE5A7A2E15009E5A1A2E1500375A154
:101E3400FDE5A7A2E2500CE5A1A2E2500653A7FBE0
:101E440075A1FB7F0102194574F81217FA75210177
:101E54009003C2E0640670077A007B00120D1AA298
:101E6400AFE433FED2AF9003C8E0640170187A2067
:101E74007B009003C1E0F91210F27A207B009003FA
:101E8400C1E0F9121074906182E0D2E6F090055E30
:101E9400E0602185C62280169003C7E064017008C3
:101EA400E5C654F84405F5C653BEFC121C6C740117
:101EB400652160E4EEA2E092AF7F010218A6000063
:101EC4008E238F248582288583278518828519830C
:101ED400E0CEA3E0CF852882852783EBC9EAC8ED4D
:101EE400CBECCA75F010C3E833C8E933C9EA33CA86
:101EF400EB33CBC3EA9EF526EB9FF525B35004AB39
:101F040025AA26EC33CCED33CDD5F0DAAE23AF24BD
:101F14002274F11217FA8A088B098C0A8D0B740F3C
:101F2400121782780C12160790902B78081215E17C
:101F340090902B780C1215E17808790C1214195032
:101F4400157808790C1215B9908FF37808121439A2
:101F5400401579018013780C79081215B9908FF324
:101F6400780C12143940EB79007F080218A674ED3E
:101F74001217FA8A088B098C0A8D0B7413121782B4
:101F8400780C12160790902B78081215E190902B7C
:101F9400780C1215E1780C7908121419401178089C
:101FA400790C1215B9AA08AB09AC0AAD0B802275DD
:101FB40010007511007512007513017810790C1258
:101FC40015B978107908121580AA10AB11AC12ADAE
:101FD400137F0C0218A690902B78081216078A8299
:101FE4008B8378081215F47F040218A674F512176F
:101FF400FA8C828D8378081216078A828B8378087C
:102004001215CD122044C3E098F0A3E099122036B3
:10201400401E90906B78081216078A828B8378088A
:102024001215A68E828F83E02420F0A3E0344EF0B4
:1020340080A4F08E828F83C3E09420A3E0944E2288
:10204400EA2404F8EB3400F9E8FEE9FF8C828D837E
:10205400A3A3A3A3E0F8A3E0F98E828F832274F5EF
:102064001217FAE9FE900514E0FAA3E0FBEEC3337D
:10207400F8E433F974E828F582748E39F583E02A9C
:10208400F508A3E03BF50978081219A190906712AE
:102094001625121EC4740212174D8A088B098C0A65
:1020A4008D0B74107808121548AA08AB097F040236
:1020B40018A674F11217FA8A0C8B0D8C0E8D0F74FE
:1020C4000F121782E0FAA3E0FB7411121782E0F5F5
:1020D40008A3E0F5097413121782E0FEA3E0FF7869
:1020E400081219A1EA2401F508EB3400F509E4F516
:1020F4000AF50B780C790812145890902F7808126E
:102104001607780C7908121458AA0CAB0DAC0EAD56
:102114000F121EC4740212174D8B09EA450960049C
:102124007A0180027A00EC2AFCED3400FDECF8ED33
:10213400F97A717B021216AC88088909E4F50AF56C
:102144000B8E828F837808121616ECF8EDF97A71EB
:102154007B021216AC8A088B0974057808121724BE
:102164008E828F83A3A3A3A3E508F0A3E509F07FE0
:10217400080218A6C082C083E9906000F0D083D022
:102184008222C0E074F21218E6A2AFE433FED2AFAA
:10219400C2C0E5D1A2E4500653D1EF1212CCEEA294
:1021A400E092AF7F01021945C0E074F21218E6A272
:1021B400AFE433FED2AFE589A2E1500312123C75BD
:1021C4008900C2C5EEA2E092AF7F01021945C0E0CA
:1021D40074F21218E6A2AFE433FED2AFE58BA2E0AC
:1021E400500312123C758B00C2E880D8C0E0C0D006
:1021F400E8C0E0E5A8D2AFC2C7A2E792AFD0E0F84A
:10220400D0D0D0E032C0E0C0D0E8C0E0E9C0E0C047
:1022140008C009C082C083A2AFE433F9D2AF900AE8
:1022240006E0F8A3E0687008539AFBA374018026C3
:10223400C2E9900A06E0F50874012508F0748625C1
:1022440008F58274093400F583E0F5C1900A06E0CC
:10225400C394804002E4F0E9A2E092AFD083D0823C
:0F226400D009D008D0E0F9D0E0F8D0D0D0E032E7
:10227400FFFFFFFFFFFFFFFFC082C083E9900B9EBB
:10228400F002250074F712178EE99002E0F07C1832
:102294007D037AFF7BFF1208169002E174FFF0A31E
:1022A400F0A3E4F0A3F0790512079E9002E0E0F9B0
:1022B4001206C67A347B081209F602320E74F4123E
:1022C400178E8A088B09EB548060309002E0E0F9A5
:1022D4001210568A0A8B0BAE0AAF0BEE4F60138EA8
:1022E400828F83E064B070031207B6EEFAEFFB123C
:1022F4001044AA08E5096480FB80047A007B00028C
:1023040024CF74F212178E74FC121737EAFEEBFF17
:1023140074121217821236F5EE4F70030223A97459
:1023240002121782EEF0A3EF12270AECF0A3ED12CB
:10233400270AAA82AB831206C0E9F50A706AE50887
:10234400450960648E828F831236DBEE4F60567AC5
:10235400067B001210AA8A0C8B0DA80CA90DE84963
:102364007005750A13804188828983E41223B6EECE
:10237400F0A3EF123706E508F0A3E509F09002E6B2
:1023840012243D9002E670051231B8801B1231A66A
:102394008003EAFCEBFD8C828D8312243D70F38C68
:1023A400828D8380E3750A02A90A740412174D0210
:1023B40038F5F0A31236ACA32274F212178E890AF0
:1023C400E975F017A4FEAFF09002E5E4F09002E3A3
:1023D40012243D600A1210B09002E3E4F0A3F0EE80
:1023E400FAEFFB1210AA8A088B09EA4509602FEE5E
:1023F400FCEFFD790012102C9002E3E508F0A3E550
:1024040009F07B008008122427E4F0A3F00BEBC34F
:10241400950A40F2E50A9002E5F07900800279130A
:102424000238F5EB75F017A4F8A9F09002E3E02860
:10243400FAA3E0398A82F58322122E4AEA4B2274E7
:10244400F412178E740C1217821236D0FEE9FF753F
:102454000800750900800CE5082401F508E5093435
:1024640000F509C3E5089CE5099D503285080A85F5
:10247400090B7403780A121724EA250AF8EB350BC2
:10248400F988828983A3A3A3A3A3A312328DEE6543
:102494000A7003EF650B70BFE8FAE9FB80047A0069
:1024A4007B00802774F412178E7900EAA2E0501B97
:1024B4007508D275098F78081219A17C047D007AF9
:1024C400A07B0B120798740212174D7F0402186048
:1024D400C082C0839002E6122507601C888289832B
:1024E400A3A3E06A7003A3E06B8882898370E8A3E6
:1024F400A3A3A3122E4680047A007B00D083D0824B
:102504000201221239DBE8492274EE12178E74FCA0
:10251400121737EAFEEBFF851882851983E4F0A3CE
:10252400F0EE2402123198EE24051236B3EE2404A0
:10253400F50EEF122ABFE024FE603924FC60462425
:10254400FE605224FE605E24FE700302262024FEF8
:10255400700302268424FE700302269324FE700373
:102564000226A224FC70030226B124FE7003022674
:10257400C00226FD9002FF7417F0A3E41227121282
:10258400043E0226FD851882851983AC82AD831230
:1025940007BC0226CD851882851983AC82AD8312CF
:1025A40007C20226CD850C08850D09740212178214
:1025B400AC82AD83850882850983122E461206E417
:1025C4008A0C8B0DAC0CAD0DEC4D603BE4F50CF5B9
:1025D4000D780C1219A1750CFF750D02780C1219E7
:1025E400A1750C00750D03780C1219A1740812174B
:1025F400821219B8123B5712174DE9F50C700B12E1
:102604002E3C120456800F750C01850882850983BF
:102614001227001231B8850C080226D07402121752
:1026240082AC82AD83850C82850D83122C11603CB3
:10263400850C82850D83A3A31219B87510FF75113B
:102644000278101219A1751000751103781012196F
:10265400A174081217821219B8123B5712174DE9C8
:10266400F509700B122E3C12045C800F750901856C
:102674000C82850D831227001231B8850908804C1D
:10268400851882851983AC82AD831207C8803A8588
:102694001882851983AC82AD831207CE802B8518EE
:1026A40082851983AC82AD831207D4801C8518827D
:1026B400851983AC82AD831207DA800D8518828573
:1026C4001983AC82AD831207E0E9F508E5086029B7
:1026D4008E828F83A3E06414601F850E82850F832E
:1026E400E09002FF12270A1239D79003001231B882
:1026F400E508A31227121204380230A71239DB8529
:10270400188285198322F085188285198322F07C2A
:10271400FF7D02850A82850B83122E4A2274EE12F3
:10272400178E74FC1217378A0A8B0B8C0E8D0FEAE6
:102734002405F508EB3400F5097C157D0079007A51
:10274400FF7B0212102CE5082402F50CE509123671
:10275400B6851882851983858210858311781012B5
:1027640019A1850882850983A3A3A3A3122C0812A7
:1027740019A1E5082405F510E5093400F5117810D0
:102784001219A1850C82850D83122F5D1206DE7449
:102794000612174D8A108B11AE10AF11E50A2402F0
:1027A400F50AE50B12319BEE4F70030228DF801708
:1027B4007402121782122E4688828983EAF0A3EBF0
:1027C400F09002FFE004F09002FFE0C394054003A0
:1027D4000228DFE4F510F51178101219A17510E83C
:1027E40075110278101219A17510E975110278108B
:1027F4001219A174061217821219B87910EEFCEF9F
:10280400FD123B5912174DE9705E850882850983D4
:10281400A3A3A3A3A3A3A3E0F89002E8E0687048ED
:10282400122C081219A17CE97D02E5082408FAE5B6
:10283400093400FB121026740212174DE960298E28
:10284400828F83A3A3A3A3122E469002FFE0F51068
:102854007402781012172474002510F5827403355D
:1028640011F583EAF0A3EBF074021217828582104B
:1028740085831178101219A174021217821219B8E3
:10288400850C82850D83122E6C12174D8A108B11C4
:10289400AE10AF119002FFE0F510751100740278CC
:1028A4001012172474FF2510F874023511F9888268
:1028B4008983A312243D70030227ABE8240308088C
:1028C40008E93400F9EE4F60030227B48882898353
:1028D40074FFF0A3F09002FFE004F09002FFE060C8
:1028E4000A122E3C12044A7900800B85088285095D
:1028F400831231AF790A0230A774EA12178E74FE7C
:102904001217378C128D13EA2405F50CEB123B4198
:102914001236DF750800750900EA2402F510EB345D
:1029240000F51185188285198385820A85830B78C1
:102934000A1219A1850C82850D83A3A3A3A3122ACD
:10294400D51219A1E50C2405F50AE50D12319B7881
:102954000A1219A1850C82850D83122AD91206DE6A
:10296400740612174D8A0A8B0BEA450B7003022A70
:102974007AEA2404F50EEB122ABF1236DF8A828B20
:1029840083A3A3A3E0F9851082851183122E5060DE
:1029940003022A7AE4F514F51578141219A17514B2
:1029A400E875150278141219A17514E975150278E1
:1029B400141219A174061217821219B87913AC0AE9
:1029C400AD0B851082851183123B5F12174DE9F51B
:1029D400096003022A7A9002E8E0F8E5087009E049
:1029E4002402900300F08014900300E0FCE8240229
:1029F400FAE43400FBEA6C7001EB707E850882AA6D
:102A040082122BFF9414122BF7506B850E82850FC4
:102A140083E0C0E074012A122AB6D0E0F0050885EC
:102A24000E82850F83A3E0C0E085080A7401250A9D
:102A3400122AB6D0E0F005089002E8122AD512193D
:102A4400A17CE97D0285080A7401250A122AC912AB
:102A5400174D9002E8E02508F50874FF6E700374C2
:102A6400FF6F6012EE24010EEF3400FFE508C394FB
:102A7400145003022927E5086013122E5A85108288
:102A8400851183122E4612045079008014E50970D2
:102A94000375090A851282851383EEF0A3EFF0A96A
:102AA40009740212174D7F0E02186085080C740118
:102AB400250CF58274033400F583223400F50F8568
:102AC4000E82F58322FA74033400FB12101474028C
:102AD4002212371522A3A3122ADF221231A6FDEEF9
:102AE400FAEFFB2274EE12178E74FE1217378C0E57
:102AF4008D0FEA2405F50CEB1236B6750B00900227
:102B0400FFE4F0F50AEA2402F508EB3400F5098045
:102B1400449002FFE0FA9002E8E0F8122BFF9417C9
:102B2400122BF7400D9002FFE0F87416C398900240
:102B3400E8F0122C081219A17CE97D0274002AFA2B
:102B44007403122ACC12174D9002E8E0F89002FFA9
:102B5400E028F0050AE50C2416F582E50D122ABAE0
:102B6400E0F8E50AC39850749002FFE0C39416504D
:102B74006BE50AC333F8E433F9E50C28FEE50D39B7
:102B8400FF851882851983AC82AD838E828F831270
:102B94002C117008750B011231AB8050E4F510F55F
:102BA4001178101219A17510E87511027810121914
:102BB400A17510E975110278101219A17406121783
:102BC400821219B87916850882850983123B5F122F
:102BD400174DE9F50B7003022B1580BB7CFF7D02BA
:102BE400850882850983122E46120462A90B740299
:102BF4000230A9E99400C365D03322EA28F8E4340A
:102C040000F9E822E0F51075110078102212309EC8
:102C14008A108B11AC10AD11EC4D2274EA12178E90
:102C240074FC1217378A0C8B0D8C128D13EA240551
:102C3400F50AEB12319B750800750900E50A2402B8
:102C4400F510E50B3400F511740212178285820E1B
:102C540085830F780E1219A1850A82850B83A3A39D
:102C6400A3A31236BB1219A1E50A2405F50EE50B40
:102C74003400F50F780E1219A18510828511831284
:102C840031A1122E401206DE740612174D8A0E8BE5
:102C94000FAE0EAF0FE50C2402F50EE50D3400F572
:102CA4000F80388882898374FFF00508122AAF7474
:102CB400FFF005089002E8E0F50C750D00780C12A1
:102CC40019A17CE97D0285080C7401250C122AC91E
:102CD40012174D9002E8E02508F508EE4F60278EA4
:102CE400828F83A3A3A3E0F9850E82850F83122E1E
:102CF40050EE24041236B3E96027850C82850D83D7
:102D0400122E321231B8E5087003022E18122E5A10
:102D1400850E82850F83122E461204687900022ED6
:102D24002DE4F514F51578141219A17514E8751528
:102D34000278141219A17514E97515027814121980
:102D4400A174081217821219B87911EEFCEFFD85EF
:102D54000E82850F83123B5F12174DE9F509709AB5
:102D6400850882AA82EA9002E87009E024049003AC
:102D740000F08025E0F8900300E0F514E82404FC5A
:102D8400E43400FDEC65147001ED7081122BFF94A6
:102D940012122BF74003022D11850C82850D83E05E
:102DA400C0E074012A122AB6D0E0F00508850C822E
:102DB400850D83A3E0C0E0122AAFD0E0122E758502
:102DC400820C85830D780C1219A1740412178212D7
:102DD40019B8851082851183122E6C12174D8A0C36
:102DE4008B0DAE0CAF0D85080C7401250CF8740323
:102DF4003400F9EE4F7003022CA7851882851983DD
:102E0400E088828983122E75A3E0C0E0122AAFD035
:102E1400E0022CB5E509700375090A850A82850B61
:102E240083122E321231B8A9097404022AA7123966
:102E3400DB851282851383227CFF7D02850A8285CD
:102E44000B83122E4A22E0FAA3E0FB22122E4A122E
:102E540006CCE9F50922900300E0F5F0E50884903A
:102E640002FFF07CFF7D0222122ADF1206EA7404BC
:102E740022F005088518828519832274EC12178EB6
:102E840074FE1217378A088B098C0E8D0FEA2405FD
:102E9400FEEB3400FF123088EE24181236B3EA45F4
:102EA4000B7003022F2B1230715029122F508A10ED
:102EB4008B11EA4511606B7912AC0AAD0B8508825F
:102EC400850983122E4685108285118312178CE999
:102ED400F50A7058E4F50AF50B780A1219A18E82E6
:102EE4008F83A3A3E0F50A780A1219A1EE24031232
:102EF4003198780A1219A18E828F83122F5D1208DD
:102F040004740612174DE9F50A7021850C82850DAB
:102F140083E0701F850882850983122E4612046E91
:102F24008011750A0E8009750A018004E50A6003A0
:102F34001231AB850C82850D83E060047900800238
:102F4400A90A740212174D7F0C0218608518828535
:102F54001983122E4A1207F2221231A6FD85088225
:102F6400850983122E4A2274EE12178E74FE1217EC
:102F7400378A088B098C0C8D0DEA2405FEEB34008E
:102F8400FF750E00123088EA450B700302304F12B1
:102F94003071502C122F508A0E8B0FEA450F604A65
:102FA4007912AC0AAD0B850882850983122E4685F9
:102FB4000E82850F8312178CE9F50E6003023052DE
:102FC40085088285098312328DAA0AFB1230637048
:102FD400147AFF7BFF123063606C88828983E50A70
:102FE400F0A3E50BF0750A008007750E0E805F05EF
:102FF4000A9002E5E0FAE50AC39A504AE50A75F038
:1030040017A4FAABF088828983A3A3E02AFAA3E089
:103014003BFB8A828B831231A1EC4D70D2750A1767
:10302400750B00780A1219A1EEFCEFFD121014744E
:103034000212174DEEFCEFFD850882850983122EDE
:10304400461204748014750E098003750E0112393A
:10305400D3850C82850D831231B8A90E022BF2128E
:1030640007E68A108B11A810A911E84922E5082463
:1030740002F508E5093400F5098A828B83A3A3A32A
:10308400E0A2E522851882851983AC82AD838E8205
:103094008F8312309E8A0A8B0B22E0FAA3E0FB1284
:1030A40006E422740412174D7F0A02186074EC12AD
:1030B400178E8C108D11EA2405F50CEB1236B675BB
:1030C4000F00EA2402F50AEB12319B850A82F5838C
:1030D400122E46123BE5700302318D750E0080718D
:1030E400850C82850D83E06401704F8E828F83A3EB
:1030F400A31219B88E828F83A3A3A3A3E0F512753C
:10310400130078121219A1EE2405F512EF3400F51C
:103114001378121219A1122E401208047406121701
:103124004DE9F50F6014850C82850D83E4F01239A6
:10313400D38510828511831231B87C177D00790004
:10314400EEFAEFFB12102C8E828F83E4F0A3F005CD
:103154000E9002E5E0F8E50EC398501EE50E75F0FA
:1031640017A4F8A9F0850882850983A3A3123B4B11
:103174001231A1EC4D60030230E485088285098395
:1031840074FFF0A3F0E50F7006122E4012047AA922
:103194000F022F4BF50AEF3400F50B22A31231A6D0
:1031A400FD22E0FCA3E0228E828F831239DB850EA0
:1031B40082850F83E8F0A3E9F022C082C0839002E5
:1031C400E1E06A7003A3E06B70067AE17B0280049D
:1031D4007A007B0002250074F712178E7F00EF75CA
:1031E400F003A4F8A9F0EC28F8ED39F98882898372
:1031F400E06A7003A3E06B7006E8FAE9FB800B0F4A
:10320400EFC3940240D87A007B007F0102186074F7
:10321400F612178E1237C470067A007B008007A35B
:10322400A3A3A3122E4602388574F212178EE9FE68
:10323400740E12178212328D74101217821236F520
:103244008C828D83E06402703BA31239D788828913
:1032540083E0F50CA3E0F9A80C74026870037429E8
:10326400697021750C02750D00780C1219A178088B
:103274001219A1780A1219A1EEF91208287406127B
:10328400174D800279010238F5E0F50AA3E0F50B49
:103294002274E812178E74FB121737E98518828599
:1032A4001983F08A168B178C0E8D0F741F121782D8
:1032B4001236F5742112178212328D74231217827A
:1032C4001236DF7510008C828D83A3A3A3E0A2E4E1
:1032D400502A741D121782122F568A828B83E5821C
:1032E400458370030233A1790AAC0EAD0FAA16AB65
:1032F4001712178CE9F51060030233A4850E82853A
:103304000F83E06402600302365AA31239D785089A
:1033140082850983A3858212858313E50E2406F52D
:103324000CE50F1236B688828983E0FAA3E0F9EA45
:103334002400F514E439F5157814121A2B01000051
:1033440028012869330700022840340328B03300D9
:10335400296A35012992350229393503296A350448
:1033640029FB355A36EE4F703E850C82850D83124B
:1033740036D0FAE9FB8A828B83E0850A82850B8347
:1033840012370C1219A18A828B83A31231A6FDAACB
:1033940008AB09121014740212174D800375100E35
:1033A400A9107405023B3975100B80F4EE4F70F7C9
:1033B400850A82850B837401F01236E585088285BF
:1033C4000983F07C007D00850E82850F83A3A3A36F
:1033D400A3E02401FAA3E03400FB1206E4EA4B6004
:1033E400418A828B83E02402F8850A82850B83E07C
:1033F40028F0EA2404F8EB3400F988828983E08514
:10340400128285138312371E12370C1219A18A8275
:103414008B831231A0E5082403FAE5093400FB028A
:103424003397850A82850B83E02404F07C047D00B5
:103434007900AA12AB1312102C0233A4EE4F6003CE
:103444000233AB1236E5FEA3E0FF850A82850B83C7
:103454007404F0EE850882850983F0EF8512828575
:103464001383F07403121782AC82AD83EEFAEFFB80
:103474001237B270030235168A828B83A3A31236E5
:10348400DB740112178285820E85830F780E121960
:10349400A174051217821219B87CFF7DFF1206EA87
:1034A400740412174D8B0FEA450F7033850C828517
:1034B4000D831236BB1219A1850C82850D83A312CC
:1034C40019B87C027D007AA57B901205167404124B
:1034D400174DE9700A740112178274FFF0A3F08E7D
:1034E400828F83E064027034750C02750D00780CD1
:1034F4001219A18E828F831231A0E5082404FAE503
:1035040009122ACC12174D850A82850B83E0240206
:1035140080097401121782EEF0A3EFF07401121700
:10352400821236CCF07401121782A31236C4A3A3FC
:10353400A3F00233A4EE4F60030233AB850C828503
:103544000D831231A1AA16AB1712081C850A8285B5
:103554000B837402F0EA850882850983F085128260
:10356400851383EB80CBEE4F60030233AB1236E559
:10357400F8A3E0F9850A82850B837402F0E88508D4
:1035840082850983F0E985128285138380A3850CE3
:1035940082850D83122E4612100EEAFC8C82A882BC
:1035A400C39EE49F404BE86E7001EF70047C008082
:1035B4001F851882851983E0FAEE2AFAEF3400FB9E
:1035C400C3EA98EB94005003E08004EECCC39CFC67
:1035D400EC850A82850B83F08C0A750B00780A123D
:1035E40019A1850C82850D83E02EFCA3E03F0233F4
:1035F400927510070233A4EE4F60030233AB850CBF
:1036040082850D831239D7850A82850B837407F06E
:10361400888289831236C41236ACE08512828513FF
:1036240083F0E82402FAE93400FB8A828B831236A1
:10363400C41236FD1236CCA31237061236D5F0E882
:103644002405F8E93400F9888289831236D5A31257
:10365400371EA3023532741D1217821237BD700350
:103664000233A11239D7880C890DE8450D70030285
:1036740033A18E108F1178101219A1780A1219A192
:1036840078081219A17406121782E0F9AC0EAD0F76
:10369400AA16AB17850C82850D8312178C7406123B
:1036A400174DE9F5100233A4F088828983A322F52B
:1036B4000CEF3400F50D22E0F50E750F00780E22A4
:1036C400E085088285098322123725221239DBE836
:1036D40022123725A3A322A3A3A3A3E0FEA3E0FF02
:1036E40022850C82850D83E0F8A3E0F5838882E0CF
:1036F40022E0F508A3E0F50922A3A3F08A828B83D4
:10370400A3221223B8A3A322F08A828B8312371533
:1037140022E0F50A750B00780A221236AC1237251E
:1037240022E0850882850983A3A32274EE12178EF2
:1037340074FE1217378A0A8B0BECFAEDFB74141221
:103744001782E0F510A3E0F5117416121782E0FE5B
:103754007418121782E0F50EA3E0F50F8518828520
:103764001983AC82AD831237B2603E851882851905
:10377400831237BD602FA3A31236F5E5084509600F
:1037840024780E1219A178101219A1EEF9AC0CAD1F
:103794000DAA0AAB0B85088285098312178C740461
:1037A40012174D8006790E80027901022BF212065F
:1037B400E48A0C8B0DEA450D22122E4A1237C422DC
:1037C4001207B08A828B83E58245832274F612172E
:1037D4008E74FE121737740C1217821236D08518A5
:1037E40082851983F07401121782E9F0E4F508F573
:1037F4000978081219A175080278081219A174042D
:1038040012178285820885830978081219A1120883
:1038140004740612174D740212174D806474F71263
:10382400178EEAFEEBFF89087C187D0312081CEA58
:103834005402600BA908EEFAEFFB1206D880027955
:103844000102320E74F612178E74FF6A700374FF4D
:103854006B701C7B00EB75F003A4F8A9F0EC28F85E
:10386400ED39F912388A0BEBC39402501480E61236
:1038740007EC8A088B09A808A909E84960031238EB
:103884008A7F020218608882898374FF1223B6E457
:10389400F02274F612178E1207EC8A828B83E5826B
:1038A40045836006A3A3E0FA80027A007B0080D1FE
:1038B40074F212178E8A088B09ECFEEDFF740E1257
:1038C4001782E0F50A1238FA701CEEFCEFFD7AFF5D
:1038D4007BFF1238FA70047911801688828983E597
:1038E40008F0A3E509F088828983A3A3E50AF079A7
:1038F400007F060218601207EC8A0C8B0DA80CA935
:103904000DE8492274EE12178EEAFEEBFF8C088D47
:1039140009890C74121217821239D774141217827F
:103924001231A17416121782122E46750D00EC4D39
:1039340060030239CB7402650C60030239C68882C5
:1039440089831231A6F9EC2400F50EE439F50FEA67
:10395400F4F8EBF4F9EC58F8E50F59F9E849705D1F
:10396400E5082406F8E5093400F9880A890B8882F9
:10397400F583122ADB12081C8A108B11E50E6510E0
:103984007004E50F65116042780E1219A1850A8250
:10399400850B83122ADB120822740212174DE9F5F3
:1039A4000D7027780E1219A1850882850983A3A3B7
:1039B400122AD912083A740212174D800D750D801F
:1039C4008008750D0D8003750D0BA90D0230AC8EAA
:1039D400828F831239DB22E0F8A3E0F92274E81223
:1039E400178E74E7121737851882851983EAF0A3B6
:1039F400EBF08C168D17890E7431121782E0F512D4
:103A0400A3E0F5137433121782E0F514A3E0F5155F
:103A14007435121782E0F50F750800750900E50981
:103A240075F003A4F8A9F0851882851983123B4B1D
:103A3400E0F47003A3E0F47003023B29EE2402F5E2
:103A44000CEF123B41E07003023B2985160A8517EF
:103A54000B780A1219A1AC14AD15AA12AB131207F4
:103A6400A4740212174D8A0A8B0BEA450B700302E9
:103A74003B29E4F510F51178101219A174061217F8
:103A84008285821085831178101219A17409121786
:103A94008285821085831178101219A1851282857E
:103AA4001383A3A3A3A31219B87914AC0AAD0B8E84
:103AB400828F83123B5F12174DE97069850A8285F4
:103AC4000B83A3A3A3A31239D77402121782123152
:103AD400B8850C82850D83E0A2E05018A90E74020B
:103AE400121782AC82AD838E828F83122E46120609
:103AF400FCE94208850C82850D83E0A2E15026E5AD
:103B04000FF50A780A1219A5A90E7403121782ACCC
:103B140082AD838E828F83122E461206F6740112B2
:103B2400174DE942080509E509C394025003023A16
:103B340022A908741912174D7F100218603400F579
:103B44000D850C82F58322E028FEA3E039FF8E82E6
:103B54008F83227916850A82850B83122E4A1207D7
:103B6400FE74082274F212178EEAFEEBFF890B74BE
:103B740001650B600E7402650B70637901120A14FF
:103B8400E9705BEEFAEFFB123BE56047750A0080D3
:103B94000B7C177D00790012102C050A9002E5E0D9
:103BA400F8E50AC3985021E50A75F017A4F8A9F0BE
:103BB400850882850983A3A3E028FAA3E039FB8A58
:103BC400828B8312250770C985088285098374FF57
:103BD400F0A3F07C187D03EEFAEFFB12081602380E
:103BE400F51207E68A088B09EA45092274F21217CE
:103BF4008E8A088B09ECFEEDFF740E1217821232C6
:103C04008D900B9EE0F4603D7A097B0012103EEA31
:103C14004B60328A828B8374B1F0A3E41236FFA323
:103C24001236FDA3E508F0A3E509123C4CEEF0A31F
:103C3400EF123C4CA3A3E50AF0A3E50BF0900B9E16
:103C4400E0F912104A0238F5F08A828B83A3A3A309
:103C5400A3A32274F412178EE9FF7E008A088B094D
:103C640078081219E500040D083E8A3CA63CBB3CCA
:103C7400D03CE53CFA3C163D2F3D413D6F3D913D26
:103C8400AD3DC93DE73D74016F70128C828D83E0B8
:103C9400C394035008E0900C8AF0023E267E18027A
:103CA4003E2674026F70F68C828D83124564900CEC
:103CB4008BE8F0A3E980E274016F70E18C828D835C
:103CC400E0C3940250D7E090078180CD74016F70F7
:103CD400CC8C828D83E0C3940550C2E0900782802F
:103CE400B874016F70B78C828D83E0C3940250ADB9
:103CF400E090078380A374106F70A27508108E097A
:103D040078081219A17A847B0712492812174D02E8
:103D14003E2674016F70868C828D83E0C3940240CA
:103D240003023CA1E0900794023C9D74016F600380
:103D3400023CA18C828D83E0900C8E808D74046F84
:103D44006003023CA190906778081216078D838C5B
:103D54008278081214294003023CA18C828D8312BC
:103D64001625900796121631023E26EF6003023C98
:103D7400A1120684E9700E1211A679501213621270
:103D8400119A023E269008297401023C9D74016F29
:103D94006003023CA18C828D83E0C3940240030241
:103DA4003CA1E0900795023C9D74016F6003023CC6
:103DB400A18C828D83E0C3940A4003023CA1E0906D
:103DC4000C8D023C9D74016F6003023CA18C828DBA
:103DD40083E024F9C3940A4003023CA1E0900C8FD1
:103DE400023C9D74016F6003023CA1900828E0F836
:103DF4008C828D83E0900828F0E87026E0640170DE
:103E040021023D83C3EA9426EB9400501374026F9D
:103E1400700E8C828D8312455E120522E9FE8002AB
:103E24000E0EEEF9023E30740E12174D7F04021886
:103E34006074F012178E74CC1217378C0A8D0B74C1
:103E440044121782E0FE7420121782AC82AD83758F
:103E5400838F7582E4740612164A7420121782AC9A
:103E640082AD8312114CE9F508C3940A4003023F62
:103E74009975F006E9A4F5097426121782AC82AD8F
:103E8400837A0E742025091249E0700974321217DE
:103E940082E0FF80027F00900C8AE0640270047468
:103EA400018001E4F50D780D1219A5EEFDEFFCA9D2
:103EB40008AA0AAB0B1211D0740112174D7C147DA1
:103EC400007900740C121782AA82AB8312102C742E
:103ED4000C121782AC82AD837A107424250912491E
:103EE400E070377C1079FF740C12178212470D7042
:103EF40029741C121782AC82AD837A0474252509B7
:103F0400F912135C740C121782AC82AD83EFA2E039
:103F1400E433F9AA0AAB0B1205AC85188285198320
:103F2400AC82AD837A0C747025081249E070558513
:103F34001882851983AA82AB8312117C750800E567
:103F44000875F003A4F8A9F0851882851983E58221
:103F540028F8E58312474912455EEC4D601D8882BE
:103F64008983A3A3E0F50E750F00780E1219A1AA98
:103F74000AAB0B12080A740212174D0508E508C3B0
:103F8400940440BBEFA2E1500C900780E0F9AA0A28
:103F9400AB0B12081074046E702A900C8AE0640251
:103FA4007022900794E060047A0180027A009007FE
:103FB40081E06004780480027800E84AF9AA0AAB38
:103FC4000B12066C7900743412174D7F08021860C6
:103FD40074F012178EEAFEEBFF8C088D09750A0A3D
:103FE400E9600C14600914602E14607F02407A1298
:103FF400118EE9F50AC3940A507CE50845096076F8
:10400400750E06750F00780E1219A1EEFCEFFD1265
:10401400492412174D805F750B00750E06750F004D
:10402400780E1219A1EEFCEFFDE50B75F00EA4F865
:10403400A9F074A228FA740739FB1210267402122C
:10404400174DE9601B850B0AE50AC3940A5027E55E
:104054000845096021AA08AB09A90A12118880162B
:10406400050BE50BC3940A500D80AF121194E9F5CA
:104074000AC3940A40D9A90A023FCF74F412178ED6
:10408400890875091574FF6A700374FF6B70277EC5
:1040940000AC087A027B00EEF912116AE96003753C
:1040A40009000EEEC3940A40E8E50860497ABE7B35
:1040B40011120A268040120A088A0A8B0BAE0AAF34
:1040C4000BEE4F602E7C007D00EE2405FAEF3400E9
:1040D400FB8E828F83124176500CAC087A027B00EF
:1040E40012116A750900E508600CEEFAEFFB121173
:1040F400BE8003750914A909023E3074F212178EAA
:10410400ECFEEDFF740E12178212455175081574FA
:10411400FF6A700374FF6B7021750900AC0AAD0B64
:10412400EEFAEFFBA909121170E9600375080005A6
:1041340009E509C3940A503580E2120A088A828B81
:1041440083E582458360237C007D00E5822405FAB3
:10415400E5833400FB1241765013AC0AAD0BEEFA42
:10416400EFFB1211707508008003750814A908028A
:104174004F4FA3A3A3A3E0F912114CE9C3940A225D
:10418400C082C08390079AEAF0A3EBF0900780E026
:10419400FC7D007A257B00120522900780E0F9124D
:1041A4000786D083D08202012274EA12178E74EC3F
:1041B400121737EAFEEBFFEE240CF514EF3400F58A
:1041C40015EE240AF510EF3400F511EE2405F50E72
:1041D400EF3400F50FEE2409F50AEF3400F50BEE89
:1041E4002403F508EF3400F5098E828F83A3A3E03E
:1041F40024FA700302451A24FD7003024449147022
:104204000302429814601024FD700302441A1470CF
:104214000302447E02453812457D604AE0F58388F6
:1042240082124564880C890DE8450D603985148235
:10423400851583E0F50E780E1219A5EE240BF58290
:10424400EF3400F583E0F9850A82850B8312455E1D
:104254000A0A0AAB09850C82850D8312178C740136
:1042640012174D024538850A82850B831219B890BE
:1042740007961216251205BE740212174DE9700333
:104284000245387901850A82850B83124D74120523
:10429400B80245388E828F83A3858212858313E00A
:1042A40060030243F3850E82850F83E0A2E040039E
:1042B4000243F37C0E7D007900851882851983AA58
:1042C40082AB8312102CEE2408F50AEF3400F50BB0
:1042D400850A82F5831245806019750C06750D00F8
:1042E400780C1219A1850A82850B83E02410FCA3A3
:1042F400E0801A124542EA4B7003024538750C06F9
:10430400750D00780C1219A1EA2405FCEB3400FDAC
:104314007402121782AA82AB8312492812174D85A0
:104324000E82850F83E0A2E25004D2F08002C2F034
:10433400A2F0E433F8740C121782E048F08510827E
:104344008511831245806015851082851183E024D0
:1043540010F8A3E03400F988828983800390906B7D
:10436400780C121607851082851183124580600F20
:10437400851082851183E0F510A3E0F511800675A0
:104384001000751100850A82850B83124580600B2D
:10439400850A82850B831245518006750A00750BC8
:1043A40000780C12199D78101219A1780A1219A11B
:1043B4008514828515831219B88E828F83A31245C2
:1043C40059740A121782AA82AB83121182740A12D8
:1043D400174D85088285098312456490082AE8F000
:1043E400A3E9F07A017B00900780E0F912106E12C5
:1043F400457D700302453812456A700302453885CD
:104404001282851383E0FC7901124D6E8E828F83B4
:1044140012178C02453812457D7003024538E0F5C9
:10442400838882A3A3124564890BE8450B700302B9
:1044340045388E828F83A3E0FC7902124D6E888208
:10444400850B8380CB7C007D00EE2404FAEF3400DE
:10445400FB850882850983E0F912114CE9F8C394BD
:104464000A4003024538AC10AD117A0475F006E831
:10447400A42425F9121356024538900795E0600EDE
:10448400900C8DE0F985088285098302428F900C97
:104494008AE07004790580ED1245428A0C8B0DA8E0
:1044A4000CA90DE82404F50CE93400F50D8E828F77
:1044B40083A3A3A3A3A3A3A3E0A2E05036E8496087
:1044C40073850C82850D83E0FE6028850A82850B46
:1044D40083E05410701D740E121782AC82AD83E811
:1044E4002405FAE93400FBEEF912114CE970047961
:1044F400038092AC0EAD0F850C82850D83E0F9121A
:104504004D6E1211CA12457D602A12456A60257CDF
:1045140000790002440D120684E97018900829E01D
:10452400640170081211A6900829E4F0795012135E
:104534006212119A741412174D7F0E0218608508C6
:1045440082850983E0FAA3E0FB120A0822E0F50A57
:10455400A3E0F50B22A3A3A3A3A3E0FCA3E0FD2205
:10456400E0F8A3E0F922E0F5838882A3A3E0F8A3AE
:10457400E0F9E8FEE9FFEE4F2290079AE0F8A3E0A5
:10458400F9E8492274F412178E74F2121737EAFE0E
:104594008C0B75F006E9A42420F50885188285198A
:1045A40083AC82AD837A0E1249E0704A7C061247CE
:1045B400057043740C121782124564E8F509E50B83
:1045C4006005EE42098004EEF45209850982AA824C
:1045D400E86A7001E9601B740C121782EAF0A3E424
:1045E400F0851882851983AC82AD837A0EA90812EE
:1045F4001356790180027900023E2B74F212178E51
:1046040074E6121737890A8A088B09ECFEEDFF74E9
:104614000C1217821249D360030246B97C0679FF53
:10462400740C12178212470D60030246B974702588
:104634000AF50B851882851983AC82AD837A0C1236
:1046440049E060030246FE851882851983AA82AB7D
:104654008312117CE508450970217C0C790012470E
:104664000760030246FE7C0C7D0079008518828574
:104674001983AA82AB8312102C8061851882851954
:1046840083AC82AD83AA08AB091211768A0C8B0D18
:10469400A80CA90DE849702CEE4F60198518828585
:1046A4001983AC82AD837A007B00121176EAF8EBB1
:1046B400F9EA4B70047900804388828983E508F025
:1046C400A3E509F0124785FAEE6A7001EF602BEE5C
:1046D400F04F700888828983E4F0A3F085188285FE
:1046E4001983AA82AB8312117C851882851983AC45
:1046F40082AD837A0CA90B1213567901741A024FF6
:104704004C79FF851882851983AA82AB8312109293
:10471400E92274F712178E7F00EF75F003A4F8A94D
:10472400F0EC28F8ED124749E06A7003A3E06B70DF
:1047340006E8FAE9FB800B0FEFC3940440DB7A0030
:104744007B00024A7E39F9888289832274F7121722
:104754008E7E00EE75F003A4F8A9F0EA28F8EB12B7
:104764004749E0F4FCA3E0F4FD88828983ECF0A3DC
:10477400EDF0124785F4F00EEEC3940440D5024ADE
:104784007EE82402F582E93400F583E02274EE1217
:10479400178E74F4121737EAFEEBFF8C0A8D0B7434
:1047A4001E121782E0F50CA3E0F50D742012178297
:1047B400E0F508A3E0F5097422121782E0F510A3CE
:1047C400E0F511EE4F7005790A0248B612118EE930
:1047D400F50EC3940A4023750F007C0679FFE50F9C
:1047E40075F00EA4FAABF0749C2AFA74073BFB1222
:1047F400471170030248C0850F0EE50EC3940A40AA
:10480400030248B475F006E50EA4F50FEEFCEFFDC7
:104814007A0E74201248D1E50A450B600BAC0AAD40
:104824000B7A1B74211248D1E50C450D600BAC0CBE
:10483400AD0D7A1B74221248D1E5084509600BAC12
:1048440008AD097A1074231248D1E5104511601B94
:10485400AC10AD117A1074241248D174241217824A
:10486400AC82AD837A0474251248D17C0C7D007926
:10487400FF124FDD7A0C7470250EF9121356750869
:104884000E75090078081219A1EEFCEFFDE50E750E
:10489400F00EA4F8A9F0749C28FA740739FB1249A5
:1048A4002812174D900828E060031211D61211C483
:1048B400A90E740C12174D7F0A021860050FE50F3C
:1048C400C3940A50030247DE750E0A80E3250FF9EC
:1048D4001213562274F412178E74F2121737EAFE6A
:1048E400EBFFE9C3940A5004EE4F70047902802D63
:1048F4008518828519831249D3F508701E750A0636
:10490400750B00780A1219A17402121782AC82ADD9
:1049140083EEFAEFFB12492812174DA908023E2B29
:10492400AA08AB0912101474022274F412178EEA46
:10493400FEEBFF750800750A06750B00780A12195C
:10494400A1EEFCEFFDE50875F00EA4F8A9F0749C47
:1049540028FA740739FB121026740212174DE96005
:1049640004A908800B0508E508C3940A40C8790A1D
:10497400023E3074F712178E74F0121737EAFEEB0A
:10498400FF750800851882851983AC82AD837A107F
:1049940075F006E508A424231249E0701F7C101268
:1049A40047057018EEFCEFFD851882851983AA82ED
:1049B400AB8312058EE97004A908800B0508E5088D
:1049C400C3940A40BF790A741012174D024A7EAC90
:1049D40082AD837A0E75F006E9A42420F912135CE3
:1049E400E92274F712178E750800E50875F00EA415
:1049F400F8A9F0749C28FE740739FFEEFCEFFD7AE9
:104A04000E75F006E5081249DD602C7C067D007900
:104A1400FFEEFAEFFB12102C7C067D0079FFEE24EA
:104A240006FAEF3400FB12102CEE240CF582EF345E
:104A340000F583E4F0A3F00508E508C3940A40AA4E
:104A4400900828E060031211D61211C4802C74F768
:104A540012178E7E007F007C0679FFEF75F00EA49E
:104A6400FAABF0749C2AFA74073BFB1247117001ED
:104A74000E0FEFC3940A40DFEEF97F010218607451
:104A8400F712178E7E00EEF91211AC0EEEC3940AE3
:104A94005003E960F180E374F312178E74CB12179C
:104AA40037E9FF75F006A4F50874202508FE74277D
:104AB400121782AC82AD837A0EEE1249E0600302D3
:104AC4004B9D7C0679FF742712178212470D6003F1
:104AD400024B9D7C0E7D0079FF7427121782AA82F7
:104AE400AB8312102C7C1B7D0079FF740C1217828F
:104AF400AA82AB8312102C7C0C7D0079FF8518826E
:104B0400851983AA82AB8312102C7427121782ACE6
:104B140082AD837A0EEEF9121356E9F509740C127C
:104B24001782AC82AD837A1B7421124BACFE740CD9
:104B3400121782AC82AD837A1B7422124BACF50A35
:104B4400740C121782AC82AD837A107423124BACAE
:104B5400F50B740C121782AC82AD837A1074241294
:104B64004BACF50C740C121782AC82AD837A0474CE
:104B740025124BACF508851882851983AC82AD8368
:104B84007A0C74702FF9121356E9F8EE450A450BA6
:104B9400450C45084842098003750900A909743584
:104BA40012174D7F050218602508F9121356E922E1
:104BB40074F712178EE9900780F012119A024A7E58
:104BC40074F212178E74FB1217378A088B09EB5490
:104BD400807003024C68900780E0F91210568A0A2C
:104BE4008B0BA80AA90BE8FEE9FFE849606CEE24E8
:104BF40004F8EF3400F98E828F83E0245060381477
:104C0400600624E1604A804B88828983E070448E88
:104C1400828F83A3A3A3A3A3A3A31219B88E828F05
:104C2400831245598E828F83A3A3124D7412115897
:104C3400740212174D801C88828983E0641E7013ED
:104C440079008E828F83A3A3124D741211528003B4
:104C5400121164EEFAEFFB121044AA08E50964800D
:104C6400FB024D69EAA2E04003024D6590082A1256
:104C74004551740312178285820C85830D780C12BA
:104C840019A1750C02750D00780C1219A1750C830D
:104C9400750D90780C1219A17CFF7DFF7A017B00C1
:104CA4001206DE740612174D024D4DE4F50CF50D97
:104CB400780C1219A1740412178285820C85830D55
:104CC400780C1219A1740412178285820C85830D45
:104CD400780C1219A174091217821219B87902EE0C
:104CE400FCEFFDAA0AAB0B1207FE740812174DE97C
:104CF4007035851882851983E0FA7401121782E0F1
:104D0400F9EA2400F50CE439F50DEA450D6018784C
:104D14000C1219A18E828F8312455AAA0AAB0B1268
:104D24001158740212174DE4F50CF50D780C121994
:104D3400A174051217821219B87CFF7DFFEEFAEFF9
:104D4400FB1206EA740412174D8A0C8B0DAE0CAFDD
:104D54000DEE4F6003024CAFE5086401FAAB098025
:104D6400047A007B007405024F4C85088285098310
:104D7400E0FAA3E0FB22C082C083900780E0F98AB6
:104D8400828B83A3124D741208100241A6C082C004
:104D94008374FF1217371211A0E9C3940285188295
:104DA400851983400474028002740AF0AC82AD83D6
:104DB4007A01790512069C740112174D0241A674FA
:104DC400F212178E74E8121737EAFEEBFF890A8C89
:104DD400088D097C187D007900124FE5EEF0A3EFF1
:104DE400F0900782E0C0E07402121782D0E0F090E5
:104DF4000783E0C0E07403121782D0E0F0900C8FB8
:104E0400E0C0E07417121782D0E0F0741512178214
:104E1400E054FEF8A3E0F9900C8EE0A2E0E433FA4B
:104E2400E84AF87415121782124F5BA2E15004D2BB
:104E3400F08002C2F0E854FDFAA2F0E43333F8EA59
:104E440048F87415121782124F5BA2E35004D2F093
:104E54008002C2F0E854F7FAA2F0E433F50C750DC1
:104E6400007403780C121724124F54121782124F35
:104E74005BA2E45004D2F08002C2F0E854EFFAA23C
:104E8400F0E433F50C7404780C121724124F541206
:104E94001782124F5BA2E55004D2F08002C2F0E800
:104EA40054DFFAA2F0E433F50C7405780C121724DD
:104EB400124F54121782124F5BA2E25004D2F080B8
:104EC40002C2F0E854FBFAA2F0E433F50C74027861
:104ED4000C121724124F54121782E8F0A3E9F09031
:104EE4000783E0601B750C10780C1219A17C847D7B
:104EF400077406121782AA82AB8312492812174D2F
:104F0400900794E06011E50A60097415121782E0B5
:104F14004402F07801800278007414121782E04889
:104F2400F0900781E0600478048002780074141221
:104F34001782E048F0AC08AD09851882851983AA68
:104F440082AB831205B2741812174D7F06021860E3
:104F5400EA450CF8741522E8F0A3E9F0900C8EE011
:104F64002274F312178E74E5121737EAFEEBFF8CE6
:104F7400098D0A7428121782E0F50C75F006E9A46D
:104F8400F87408650A700474228002742128F50BF1
:104F94007C1B7D007900124FDD7A1BA90B1249E1BD
:104FA4007032741A121782E024F9C3940A5025E56A
:104FB4000CF50B780B1219A57401121782AC82AD93
:104FC40083E509A2E0E433F9EEFAEFFB1205C474B9
:104FD4000112174D741B024BA4124FE5AC82AD8332
:104FE40022851882851983AA82AB8312102C851816
:104FF400828519832274F712178E120882750800AD
:10500400E50875F00EA4F8A9F0749C28FE7407391D
:10501400FF7C0679FFEEFAEFFB1247117009EEFAF6
:10502400EFFB79001208880508E508C3940A40D00C
:10503400024A7EC082C0839061907404F0A37448D5
:10504400F0A3E4F09061807440F09061BC7407F0C8
:105054009061877469F09061B67416F07900120B50
:10506400047902120B0A902274E493F46006E49328
:10507400F9120AE07905120DF8025479C082C0834E
:10508400E9540FF9906185E0696012E5C6548044E3
:1050940049F5C6E59E547F644970F8E9F053C6802B
:1050A400E59E547F70FA02547974F712178EE5A8BE
:1050B400FE53A87E120AECC2BA539AFEC289759BAB
:1050C40000C2C2120AF275A91175B905120AF8D202
:1050D400BA439A0174805E42A8025A06C082C08311
:1050E400906181E4F0A302547675E900759100752E
:1050F400BF00020122C082C083906181E4F0A374E6
:10510400C0F0A3E4025478C082C08374F812173745
:105114009003C41258E8E84970030251C29003C4D2
:10512400E0544060237908851882851983AA82ABEC
:1051340083120BFA851882851983AA82AB8312081D
:10514400A69003C4E054BFF0E054806010790C7A58
:10515400807B05120BFA9003C4E0547FF0E0A2E0D8
:10516400500879001251CA54FEF0E05402600879E4
:10517400011251CA54FDF0E0540460087900125140
:10518400D554FBF0E05408600879011251D554F766
:10519400F0E05410600879021251D554EFF0E05455
:1051A40020600879031251D554DFF0A3E054016064
:1051B4000D120B161208B89003C5E054FEF07408E3
:1051C40012174D025479120B041208AC9003C4E078
:1051D40022120B0A1208B29003C4E022C082C083D8
:1051E400E9600514602A804F90619A7433F0A374C7
:1051F40055F09061A0743AF090055CE06401700988
:10520400C2919003C67467802D9003C67461802692
:1052140090619A743FF0A3745AF09061A0747FF087
:1052240090055CE064017009D2919003C6747180AA
:10523400059003C6746AF0025479C082C083E960A1
:105244000B14600D14600F1460118020902278807C
:1052540015902279801090227A800B90055CE0648E
:105264000160F390227BE493906186F00254797498
:10527400EE12178E74F4121737851882851983ACD1
:1052840082AD83758390758263740412164A9022EA
:105294007893F46003025405907808E0C3940250B4
:1052A400030253E57404121782AC82AD8375838FB5
:1052B4007582BE740812164AF97AFF7BFF7FFF7E5F
:1052C400008982858210801874086E700302539AD4
:1052D40074096E700302539A740A6E700302539A2F
:1052E400E510C333FCE433FD7404121782E5822C09
:1052F400F582E5833DF583E0F50EA3E0F50F8E0816
:105304007509007402780812172474482508FC747F
:10531400783509FD8C828D83780812160774087815
:105324000812154885080C85090D8C828D83780830
:1053340012160774187808121548E50C4508F50884
:10534400E50DF509C3E50E9508E50F95098C828DE9
:105354008378081216078C828D83780812160774D6
:105364001878084014121548E50C4508FCAD0DE505
:105374000EC39CFCE50F9D800F121548E50C4508F3
:10538400C3950EFCE50D950FFDC3EC9AED9B5006FD
:10539400ECFAEDFBEEFF0EEEC3941350030252CC75
:1053A40074FF6A700374FF6B602D8F0874027808B1
:1053B400121724744812609474783509F5837808B8
:1053C400121607851882851983E5822510F582E572
:1053D40083125E21E508F009E9C3940450030252E4
:1053E400BD75080175090078081219A17402121715
:1053F40082AC82AD837A9E7B081212187402121753
:105404004D740C12174D7F0A021860C082C083903D
:105414006186E0F890227BE49368700990227AE434
:1054240093906186F09061AE7468F0A3746AF09012
:10543400624574FBF0A304F053F4FD43FE029005AF
:105444005C7401F09061A0E0643A70047900800219
:105454007901120B04025479C082C08390050EE0D6
:105464006401700A900513E06004790C80027900ED
:105474008003F0A3F0D083D082020122C082C083D3
:1054840075E1F1900511E0604D1460081460511449
:1054940060498051120B28900507E0F97A087B05D2
:1054A400120D7A90905F121625120DB0909023126F
:1054B4001625120D86900512E0F9120D927901124B
:1054C4000DEC900505E0241612560E7440F0A374FA
:1054D4000BF07900809F120B2E80BC120B3480B726
:1054E400120B3A80B2791280EB74F412178E75D9CC
:1054F4000D9004F6E0A2E0E4331313F812557A4851
:105504004401F5D978001255F840FB7800880874F6
:10551400F7126094740412560240F275E1959004F7
:10552400F6E0F97AF77B04120D80900BC074B6F0A4
:10553400A3740A12561D12563D1256341257751290
:105544005584780812160790905B7808121593908A
:10555400902B78081215E112560878081216169046
:105564000505E0241412560E7413F09003C274025D
:10557400F07F04021860900507E0C4333354C0225E
:10558400900505E0F8A3E0F5838882A3A32274F6CE
:1055940012178E1257468AD978001255F840FB78B4
:1055A4000080061256AC1257F8E8C39940F512571A
:1055B400381255F840FB7800800812609074051288
:1055C40057F8E8C39940F375E195900BC074C2F0A5
:1055D400A3740A12561D12562712162512560812C3
:1055E4001631900505E0241412560E7412F090033F
:1055F400C20259E3880874082508F5827405125913
:1056040054940622900505E0240EF8A3E0125615E2
:10561400223400F9888289832212575E74BCF0A375
:10562400740A2212563D12563412577990906B2206
:10563400F0A374D4F0A3740A2212564122125645E0
:1056440022F0A37466F0A3740C2274F612178E125F
:1056540056A112557A4402F5D978001255F840FB48
:10566400780080061256AC1257F8E8C39940F575D5
:10567400E195900BC01256B7F0A31256B712562AF2
:10568400121625125608121631900505E02414123C
:10569400560E7414F09003C274040259E590051771
:1056A400E0F9740729F5D922880874182508F582C9
:1056B40074052274CE1256C41256C4F0A3740A227E
:1056C400F0A3740AF0A374CE2274F612178E125744
:1056D4004674064AF5D978001255F840FB780080E4
:1056E400061256AC1257F8E8C39940F5125738120F
:1056F40055F840FB7800800812609074051257F842
:10570400E8C39940F375E195900BC074C8F0A37495
:105714000A12575412562712162512560812163119
:10572400900505E0241412560E7415F09003C2740B
:10573400030259E59005371256A474044AF5D97842
:1057440000221256A1900507E0C4333354C0FA2254
:1057540012575E7466F0A3740C2212576222125719
:105764006F7466F0A3740C12576F22125645F0A39F
:105774002212577922F0900BCE7466F0A3740C12A7
:1057840057627466F0A3740C125641F022C082C0B2
:1057940083125584A3A3A3A3E402547674F71217C7
:1057A4008E1262D6F8740339F9E82405FAE9340054
:1057B400FB8A828B8312604588828983A3A3A3A377
:1057C400A3A3A3A3A3ECF0A3EDF088828983A3A3EE
:1057D400A3A3A3A3A3E024FFF8A3E034FFF98A82E0
:1057E4008B83E8F0A3E9F0025A0688087460250860
:1057F400F5827405125F6CF5D90822EAFEEBFF907E
:1058040061D0E0F87480C398FAEE2483221258170A
:10581400940422125E2FE0F5D90AEAC32274F61228
:10582400178EEAFEEBFF9061D0E0707575D90E75A6
:10583400D90375D9047A008A08EE25081263A424D2
:105844008C1258BA40F17A008A08EE25081263A433
:10585400248412581140F175E1957908EE248C12D4
:1058640058B324841258AA7C008C82AA82C3E49A76
:10587400F895E0F9EE28F8EF39F9E8248BF582E998
:10588400125F68C0E0EE2A1263A424ABF582E91229
:105894005E21D0E0F00CECC3940840CD1259708026
:1058A4000279000259E6FAEF3400FB120BEE2212E1
:1058B40058AA7904EE22125817940822C082C08391
:1058C40075D90275D90375D90575E195EA2470F582
:1058D40082EB1258E5EA2472F582EB1259820254E3
:1058E40079125E321258EC22E0F8A3E0F92274F641
:1058F40012178EEAFEEBFF900560740612595E12D1
:1059040019A17C017903125C8A12174D75D90675A9
:10591400D903780012594440FB75E1959003C2E025
:1059240064087017EE2470F582EF1258E5EE2472C5
:10593400F582EF125E21E8F0A3E9F079010259E65D
:10594400880874602508F582740512595494052258
:10595400125E32E0F5D908E8C322F07508607509D3
:105964000578082275E1957904120DB6EE2470F5D8
:1059740082EF125E321258ECEE2472F582EF125E60
:1059840032E8F0A3E9F079012274F612178EEAFEE8
:10599400EBFF9061D0E070437901900560740BF0E7
:1059A4009003C2E0640770177508607509057808EC
:1059B4001219A17C010909125C8A12174D79057428
:1059C4000129F5D975D903780080031257EEE8C38D
:1059D4009940F875E195125970800279008003743A
:1059E40001F07F0202186074F712178EEAFEEBFFD3
:1059F40075D90375D90375D90DEE24DE125A0B122D
:105A040059687F01021860F582EF125F6CF5D922A4
:105A14007F030218607401250AF5D975D90378004B
:105A24002274F512178E125A9A6004780480027850
:105A340000E8240BF8EAC3984041750A0990056010
:105A44007409F07908125A836014750860750905A1
:105A540078081219A1125C8212174D750A0D125A98
:105A64001980031257EEE8C3950A40F775E195795A
:105A740004120DB6125BFF7901800279008091EE69
:105A840024E3FCEF3400FD7A617B05120BE8850802
:105A940082850983E0221257FFF8EF126039F583FB
:105AA400E02274F312178E8A088B09125C95FAE5CA
:105AB400082483F50AEB125B64600478048002789E
:105AC40000E82408F8EAC3985003025B5D750C06ED
:105AD400900560740CF09003DFE0900561F07402AF
:105AE400C0E0F97CE07D037A627B05120BE8D0E02C
:105AF400F97CE27D03120BE8850A82850B83E06062
:105B04001C750A60750B05780A1219A17C067903C5
:105B1400AA08AB09125C8A12174D750C0A74012588
:105B24000CF5D975D90378008009880A7460250AB0
