:020000040000FA
:0600000002010A021F1EAE
:03002B0002237736
:030033000223FAAB
:03003B000223900D
:0300430002232273
:03005300021F94F5
:03006B0002234825
:10008300021E0FE5C754F84401F5C77901220000A9
:100093000080FB120086B900030200F4E4792178A2
:1000A3000FB800028004F709D8FCE479307802B86D
:1000B30000028004F709D8FCE4900281787679097C
:1000C3008002F0A3D8FCD9FA900AF6AA82AB8390F7
:1000D300013A785F79048015E493A3AC82AD838AF7
:1000E300828B83F0A3AA82AB838C828D83D8E9D9D8
:1000F300E77582727583A8740312011C758291756A
:100103008300740012011C75D00075813F7518813E
:10011300751902759F00020096C09FF59FE473D086
:100123009F22D083D082C09FE493C0E0740193C028
:10013300E0740293F59F22FF0000B400002800281A
:1001430000283075A000A000A000A000000800084F
:10015300E001F0001000100010001000100010006B
:1001630050005000500010001000D00700000000A5
:1001730000000F00010005003075070010000100AA
:1001830081FF0000FF9606B4069C06FF02020208E8
:10019300025000A0000000E80302E790010000D62F
:1001A3009002E3900100004B0B021791010000B293
:1001B3000202E3900100004C0B02F390010000C81F
:1001C3000202E3900100004D0B02EF90010000CA10
:1001D3000202E3900100004E0B02ED90080000CBF9
:1001E3000202E3900100004F0B02D990010000507E
:1001F3000BFF0100FF2002E790010000D39002E310
:1002030090010000B40B02DB90000000000002DD4F
:10021300900300001803C60CC60CC60CC60CC60C13
:10022300C60CC60CC60CC60CC60CC60CC60CC60C3B
:10023300960FAE0F900FFFFF0202020202020202AC
:1002430002010D000000100102E790010000CD90B3
:1002530002E390010000F70B02039101000078070D
:1002630002E390010000F80B0201910100008A8F64
:1002730002E390010000F90B02FF900100006E8F72
:1002830002E390010000FA0B02FD90010000D98EF9
:1002930002E390010000FB0B02F990010000EB8EDA
:1002A30002E390010000FC0B02F790010000C78EEF
:1002B30002E390010000FD0B02F590010000FD8EAA
:1002C30002E390010000FE0B0213910100007C8FFA
:1002D30002E390010000FF0B02F190010000000C0B
:1002E30001E803053F10FF0001307503020106001A
:1002F30000000000000000000000000000000000FB
:100303000000000000000000000000FFFF06008066
:100313000CE803140953696D706C65424C455065D4
:10032300726970686572616C051250002003020ADD
:10033300000201060302F0FF53696D706C652042F1
:100343004C45205065726970686572616CFE1300DC
:100353000004140A4368617261637465726973749B
:100363006963203100024368617261637465726975
:100373007374696320320008436861726163746552
:100383007269737469632033001043686172616337
:10039300746572697374696320340002436861721F
:1003A300616374657269737469632035000A436815
:1003B30061726163746572697374696320360002E4
:1003C300E790010000D09002E3900100006C0D0261
:1003D3001191030000C40A02DF900100006D0D02B9
:1003E300E390010000240D020991010000B60A0206
:1003F300DF90010000250D02E390010000360D029D
:100403000B91020000B70A02DF90010000370D02D2
:10041300E390010000480D020D91000000B80A02AC
:10042300DD90030000B90A02DF90010000490D02CC
:10043300E3900100005A0D020F91040000BF0A026D
:10044300DF900100005B0D02E390010000120D023A
:100453000791030100B50A02DF90010000130D00AC
:1004630003300031003200330034003500360037EA
:1004730000380039003000310032003300340035D9
:100483000036003700380039000C1561156115611D
:100493001561156915120125F19C03120125089DAB
:1004A30003120125379D03120125709D03120125B7
:1004B300989D03120125C69D03120125DD9D03129C
:1004C3000125F49D031201250A9E03120125319E85
:1004D30003120125449E031201255A9E031201258E
:1004E3006D9E03120125929E03120125828C021236
:1004F3000125818D02120125B68D02120125D78DAA
:1005030002120125E78D02120125088E0212012530
:10051300148F02120125E18F021201255490021259
:100523000125DA90021201251D9102120125549131
:1005330002120125DA9102120125AC920212012561
:100543000A93021201252293021201259C9302129F
:1005530001259F9302120125A293021201254994BA
:1005630002120125619402120125919402120125C0
:10057300B194021201259F9502120125559602128C
:10058300012590E902120125B8E902120125E6E9E5
:10059300021201251DEA0212012585EA0212012534
:1005A300CEEA0212012519EB0212012557EB0212C2
:1005B300012594EB02120125C2EB0212012569EC1D
:1005C3000212012573EC0212012580EC02120125AF
:1005D300B3EC0212012575ED0212012581ED021221
:1005E300012599ED02120125A3ED02120125D3A4E1
:1005F30003120125E1A403120125F9A40312012525
:1006030011A503120125A0AF011201253EB001126D
:100613000125B6B001120125CBB10112012505B2A6
:1006230001120125AEB20112012583B30112012586
:10063300E7B4011201253EB501120125C5B501122A
:100643000125ACB601120125F9B60112012587B7C0
:1006530001120125ABB70112012580B90112012551
:10066300C1B901120125E3B90112012564BA0112CE
:1006730001254EBB0112012514BC0112012539C20B
:10068300021201250BC302120125B4C30212012574
:10069300F7C30212012584C40212012510C50212F8
:1006A3000125F1C50212012520C6021201251CC72E
:1006B3000212012564C70212012566C80212012530
:1006C300AAC802120125D0C802120125AAA5031245
:1006D30001250080031201251680031201253C80A9
:1006E300031201256481031201256E810312012582
:1006F300C78203120125C78303120125ECD5021219
:10070300012521D70212012554D7021201259ED7B4
:10071300021201255CD9021201251B910112012548
:100723007E9101120125C39201120125D392011278
:100733000125F69201120125419301120125E69349
:1007430001120125DC9401120125A6950112012550
:100753001E9701120125609701120125FE970112D0
:1007630001254B98011201257198011201255F9A09
:1007730001120125649A01120125459C01120125EC
:10078300999C01120125FB9C01120125239D011255
:100793000125C79D01120125899E01120125BA9EDB
:1007A30001120125BD9E01120125059F011201259C
:1007B300479F01120125AE9F01120125BB9203122F
:1007C3000125CE9203120125E792031201253293EC
:1007D300031201250D94031201259C940312012594
:1007E300E79403120125AC2400120125B82400125A
:1007F3000125F12400120125362500120125ED25DE
:1008030000120125732600120125D82600120125A6
:100813000427001201253D2700120125512900124A
:1008230001252D2B00120125182D001201254F2E15
:1008330000120125AF30001201259B310012012562
:10084300E13200120125EE33001201250B340012B0
:1008530001254334001201255D3400120125C534FE
:10086300001201255F3900120125003A001201250B
:10087300513A00120125783A00120125C63A0012B6
:100883000125E43A00120125383B00120125113CF1
:1008930000120125983D00120125203E001201257A
:1008A300E6E402120125F0E402120125BBE502127F
:1008B3000125D6E502120125FCE50212012540E6D9
:1008C3000212012578E602120125A1E60212012592
:1008D3001AE7021201252FE70212012544E702124B
:1008E30001257BE7021201258FE702120125C0E7EC
:1008F30002120125FAE70212012526E80212012558
:100903007CE802120125D0E80212012519E902123E
:10091300012543E90212012568E902120125BAFA09
:100923000212012584FB0212012567FC0212012534
:10093300DDFC021201251FFD021201254CFE0212ED
:10094300012500800212012529800212012542801F
:1009530002120125878102120125658202120125F7
:10096300848202120125118302120125548302128B
:100973000125A18402120125408502120125BF87AA
:10098300021201255688021201252A890212012525
:100993000C8A02120125788B021201250B8C02129C
:1009A3000125A6FE021201250FFF0212012563FF96
:1009B300021201258AFF0212012538EE02120125D7
:1009C300A5EE02120125F0EE02120125E5EF021257
:1009D3000125E1F002120125CBF10212012564A9E0
:1009E30002120125A6A90212012580AA02120125DD
:1009F30059AB0212012554AC0212012533AD021288
:100A030001259FAD0212012566AE02120125D1AE6A
:100A13000212012538AF0212012563AF021201252C
:100A2300D4AF0212012567B002120125D0B0021221
:100A33000125E5B0021201252DB10212012546B1AF
:100A430002120125ABB102120125AEB1021201253A
:100A5300548A031201257C8A03120125BA8A0312E0
:100A63000125788B03120125E38B03120125FF8BEC
:100A730003120125278C03120125578C031201252C
:100A8300668C03120125E08C03120125068D0312E7
:100A9300012578A00112012515A201120125FBA34E
:100AA30001120125C5A4011201250CA5011201257E
:100AB30053A50112012565A501120125A5A5011262
:100AC3000125D4A50112012520A60112012558A64E
:100AD3000112012586A601120125D7A601120125BF
:100AE30066A70112012554AA011201252EAC011299
:100AF30001256AAC01120125C4AD011201250BAE1B
:100B03000112012580AE01120125CEAE011201258D
:100B130005AF0112012561A0021201257EA0021278
:100B2300012518A6021201251AA70212012594A86D
:100B33000212012542A90212012567520012012562
:100B4300B05200120125DD5200120125105300128C
:100B530001251D53001201252953001201253B5382
:100B6300001201251054001201256E5400120125B4
:100B7300A354001201253F56001201258C56001282
:100B83000125B056001201251D5700120125C25739
:100B9300001201257E5800120125FD58001201257F
:100BA300C15900120125D05900120125515A0012D2
:100BB3000125F05A00120125225B00120125BD5BBD
:100BC300001201251B5C00120125555C0012012552
:100BD300D65C001201259F5D00120125485E0012BC
:100BE3000125CF5E00120125275F00120125885FD2
:100BF30000120125B15F0012012567600012012573
:100C0300B16100120125F461001201251162001285
:100C130001253062001201257B6200120125A062CA
:100C230000120125C9620012012538630012012553
:100C33007A63001201257E640012012518650012F3
:100C43000125E46500120125FD6500120125C0960A
:100C5300021201251397021201251F970212012583
:100C6300F497021201251B980212012556980212CD
:100C73000125C29802120125F698021201252F9927
:100C830002120125479902120125A099021201259A
:100C9300B99902120125029A02120125159A02122C
:100CA30001252F9A02120125459A02120125619B03
:100CB30002120125729C02120125BF9D0212012519
:100CC300A49E02120125FB7F0012012545E70112B4
:100CD300012579E701120125E4EA011201252EEC31
:100CE30001120125F8EC0112012582EE0112012502
:100CF3005DEF0112012597EF01120125BAEF0112F1
:100D03000125FCEF0112012505F0011201254FF029
:100D13000112012559F00112012505F101120125E6
:100D2300D9F1011201252DF2011201258FF20112D1
:100D33000125E2F20112012511F30112012550F3FD
:100D4300011201252F6600120125896E001201256B
:100D53008F6E001201254A740012012530780012AB
:100D63000125D183031201254784031201255D84E4
:100D7300031201259A8403120125D284031201254B
:100D83004F85031201258A85031201250586031267
:100D930001254186031201254A8603120125568641
:100DA300031201257086031201259586031201257E
:100DB300AB8603120125EF860312012524E00212FC
:100DC300012537E00212012551E0021201257AE0E4
:100DD30002120125BDE002120125FCE002120125E9
:100DE3003AE1021201259FE102120125B4E1021248
:100DF3000125BFE102120125CCE102120125E3E145
:100E030002120125F1E102120125FCE10212012582
:100E130008E2021201251BE20212012526E2021258
:100E2300012549E202120125F2E20212012502E341
:100E3300021201251CE30212012539E302120125E6
:100E430055E3021201257AE30212012584E302121B
:100E5300012598E302120125B7E30212012518E4E4
:100E6300021201251EE40212012524E402120125C7
:100E73002AE40212012536E40212012569E4021272
:100E83000125CCCC011201254ECD01120125F7CD50
:100E9300011201253FCF011201254DD10112012578
:100EA30033D20112012568D2011201258AD201121F
:100EB300012533D30112012503D5011201252CD5B8
:100EC30001120125A4D501120125D6D50112012550
:100ED300E3D5011201252ED60112012552D60112A6
:100EE3000125A3D801120125ADD90112012509DA83
:100EF3000112012549BE011201255ABF0112012524
:100F03003EC00112012548C0011201256AC0011229
:100F1300012576C0011201251AC20112012547C21B
:100F2300011201255DC301120125B2C3011201257E
:100F330001C501120125D6C50112012532C60112D0
:100F430001259DC601120125D2C60112012515C72F
:100F530001120125DFC901120125F7C9011201257B
:100F630088CA0112012596CA01120125E3CA01129A
:100F73000125F1CA011201255DCB01120125D8CB50
:100F8300011201252FCC011201252BF40112012599
:100F93004DF4011201255EF6011201251DF901121E
:100FA300012547FA0112012505FB01120125F1FB79
:100FB30001120125389B031201255D9B03120125B4
:100FC300D39B031201257F78001201258878001234
:100FD30001259178001201256979001201251A7BF8
:100FE300001201254A7B00120125757B00120125A1
:100FF300A57B00120125D07B00120125047C001281
:101003000125307C00120125737C001201259E7C92
:1010130000120125E57C001201253A7D001201250D
:101023007C7D00120125D67D00120125017E001270
:101033000125507E00120125807E00120125AB7E22
:1010430000120125D97E00120125FC7E0012012524
:1010530035A70312012561A7031201258EA70312E9
:10106300012598A703120125A8A70312012508BA91
:101073000212012512BA0212012553BA02120125E6
:101083009CBA02120125D6BA021201252CBB021208
:1010930001254DBB02120125FCBD0212012505BE2F
:1010A3000212012559BE0212012582BE0212012538
:1010B3008CBE02120125FABE021201258ABF02125A
:1010C3000125E5BF0212012513C0021201259BC0B1
:1010D30002120125DAC0021201250FC102120125F5
:1010E30021C10212012540C10212012549C1021288
:1010F30001250BC202120125DCA303120125589717
:10110300031201258E9703120125C29703120125AD
:101113000F9903120125B2A703120125C8A70312D1
:101123000125D2A7031201259C7F001201258DF210
:1011330002120125A0F20212012564F30212012515
:10114300A3F302120125C0F302120125F9F30212DF
:10115300012546F40212012578F402120125AFF4A9
:10116300021201253CA0031201255FA003120125F1
:101173008EA00312012526A1031201253EA103120D
:10118300012580A1031201254E8D03120125738DC4
:10119300031201259D8D031201251CA803120125AD
:1011A300873E00120125654000120125044200120A
:1011B3000125AF42001201252F4300120125B4433C
:1011C30000120125DD4300120125B8470012012555
:1011D3002F480012012546490012012580490012BB
:1011E3000125C14900120125084B001201255E4B60
:1011F30000120125A74B00120125164C00120125F0
:10120300824C00120125B34C00120125CB4C001275
:101213000125E44D00120125F44D00120125AA4FCA
:1012230000120125C14F00120125F34F00120125C1
:10123300955100120125295200120125C1A903125B
:10124300012510A9031201254FA903120125AEA9F7
:101253000312012549FF0112012559FF011201253E
:1012630071FF01120125D7FF01120125DAA2031232
:1012730001255FA303120125C3A303120125C9A1FD
:1012830003120125EBA1031201254CA20312012530
:101293009CA2031201254999031201255E990312A9
:1012A30001259A99031201251A9A031201258E9A90
:1012B30003120125A89A03120125BB9A03120125E3
:1012C300C99A03120125E39A03120125039B031212
:1012D3000125D2A90312012512DB02120125ACDB81
:1012E3000212012541DC02120125D0DC0212012584
:1012F30080DD0212012530DE0212012575DE0212A5
:1013030001252FDF021201255ADF02120125ECDF2E
:101313000212012508E00212012521E00212012533
:10132300B5A60312012525A703120125A49E0312C6
:101333000125F69E03120125699F03120125D69FFD
:10134300031201251195031201253B950312012573
:101353000A9603120125E69603120125D2B1021261
:1013630001259EB202120125DFB20212012519B333
:101373000212012577B302120125CBB30212012514
:1013830029B402120125BFB402120125C7B5021206
:10139300012551B702120125EFB70212012556B8F4
:1013A3000212012569B8021201255DB90212012555
:1013B300A6B90212012556DA0112012588DD0112B0
:1013C300012519DF0112012570DF011201258DDFCF
:1013D300011201250DE00112012589E10112012508
:1013E30058E201120125C5E501120125AFE60112FC
:1013F30001253AD002120125E3D202120125E4D3DA
:1014030002120125F9D4021201256BD5021201251E
:10141300C2F60212012507F70212012524F7021270
:101423000125FAF7021201255EF80212012533F9AC
:101433000212012581FA0212012533A603120125A6
:1014430063A60312012598A6031201259AA6031287
:1014530001259CA603120125ADA603120125AFA603
:1014630003120125B2A603120125399003120125A7
:10147300AB9003120125CD900312012505910312B0
:1014830001253B91031201251F8703120125628762
:1014930003120125808703120125B6890312012552
:1014A300EE8903120125128A03120125C5A803122E
:1014B300012545C9021201251ECA0212012509CBC5
:1014C300021201251ACB021201252BCB0212012590
:1014D30075CB0212012501CD0212012562CE021243
:1014E300012592CE0212012560CF02120125C0CF41
:1014F3000212012559A903120125BBFF021201257E
:1015030086A903120125E1FF011201000202000076
:10151300205104AA16090001020301090243000233
:1015230001008019090400000102020100052400E2
:101533001001042402020524060001052401000110
:101543000705820340004009040100020A0000006D
:101553000705840240000107050402400001271526
:1015630000004A150000E066701008A3E066700AE8
:1015730008A3E066700408A3E06622C3E79608099F
:10158300E7960809E7960809E79622C3E09608A3B9
:10159300E09608A3E09608A3E09622C008C3E0966D
:1015A300F50808A3E096420808A3E096420808A3BA
:1015B300E09645087001D3D00822BB0102E722C0A0
:1015C30082C08389828A83BB0003E08002E493D0D4
:1015D30083D08222BB000EC082C0838A838982F0BB
:1015E300D083D08222BB0101F722080808EAC0E0B9
:1015F300EBC0E086F0E7A4FA180986F0E7A42AFA1C
:10160300180986F0E7A42AFA180986F0E7A42AFA4B
:101613001986F0E7A4FBE5F02AFA190886F0E7A497
:101623002BFBE5F03AFA190886F0E7A42BFBE5F06B
:101633003AFA18180986F0E7A4C5F02BFBE43AFA46
:101643001908E7C5F0C6A426F6E5F03BFBE43AFA31
:101653001886F0E7A4F6E5F00826F6E43B08F6E47E
:101663003A08F6D0E0FBD0E0FA22E4CFC0E0E4CEC3
:10167300C0E0E4CDC0E0E4CCC0E075F020C3E633C5
:10168300F608E633F608E633F608E633F6181818D4
:10169300EC33FCED33FDEE33FEEF33FFC3EC970980
:1016A300ED9709EE9709EF97191919400FFFEC977A
:1016B300FC09ED97FD09EE97FE191906D5F0BEEC6E
:1016C300F709EDF709EEF709EFF7191919D0E0FC5F
:1016D300D0E0FDD0E0FED0E0FF226016080808C687
:1016E300C313C618C613C618C613C618C613C6D561
:1016F300E0EA227009080808226016181818C6C301
:1017030033C608C633C608C633C608C633C6D5E0D3
:10171300EA22E627F60809E637F60809E637F60867
:1017230009E637F622E026F608A3E036F608A3E03A
:1017330036F608A3E036F622E026F008A3E036F0FA
:1017430008A3E036F008A3E036F022C3E697F608D4
:1017530009E697F60809E697F60809E697F622C31D
:10176300E096F008A3E096F008A3E096F008A3E063
:1017730096F022E056F608A3E056F608A3E056F6E4
:1017830008A3E056F622E056F008A3E056F008A3BB
:10179300E056F008A3E056F022E0F608A3E0F608CE
:1017A300A3E0F608A3E0F622E6F008A3E6F008A318
:1017B300E6F008A3E6F022E0FAA3E0FBA3E0FCA333
:1017C300E0FD22EAF0A3EBF0A3ECF0A3EDF022CAD4
:1017D300C0E0E6F0A308DAFAD0E0FA22CAC0E0E0FB
:1017E300A3C582CCC582C583CDC583F0A3C582CCF6
:1017F300C582C583CDC583DAE6D0E0CA22C3E498A7
:10180300F8E499F91218418026C3E49AFAE49BFBA1
:10181300E920E7E9121841E498F8E499F922C3E4CE
:1018230098F8E499F9121841E498F8E499F9C3E4B3
:101833009AFAE49BFB22EB20E7CFE920E7E0B9002B
:1018430010BB0008E88AF084F8AAF022E4FBC8FA87
:1018530022EB70227B10C833C8C933C9335007C386
:101863009AC3DBF280069A50012ADBEAC833F4C834
:10187300C933F4C9FA2275F008E4C833C8C933C9B7
:1018830033C99AC99B5004C92AC93BD5F0ECFBC89C
:1018930033F4C8E4C9FA22600D08C6A2E713C618D8
:1018A300C613C6D5E0F322600C08C6C313C618C618
:1018B30013C6D5E0F422700422600D18C6C333C6E4
:1018C30008C633C6D5E0F41822251810AF08F5185A
:1018D300400215198008F51840021519D2AF22C02D
:1018E300D0251810AF08F518500205198008F5180F
:1018F30050020519D2AFD0D0222518F58210AF08B7
:10190300F518400215198008F51840021519D2AFD1
:10191300851983222518F582E43519F58322E473AA
:101923002518C582C0E0E51934FFC583C0E0E5187A
:10193300C3958224F810AF0885831985821880081F
:10194300858319858218D2AFCEF0A3E520F0A37862
:1019530008E608F0A3DEFAEFF0A3E58124FAF8E63F
:1019630008F0A3E608F0A3E608F0A30808E608F0E9
:10197300A3E608F0A315811581D0E0FED0E0F815A9
:101983008115811581E8C0E0EEC0E0222518C582EB
:10199300C0E0E51934FFC583C0E0E518C395822490
:1019A300F910AF0885831985821880088583198506
:1019B3008218D2AFCEF0A3E520F0A37808E608F0B2
:1019C300A3DEFAEFF0A3E58124FBF8E608F0A3E633
:1019D30008F0A30808E608F0A3E608F0A3158115AC
:1019E30081D0E0FED0E0F815811581E8C0E0EEC0BB
:1019F300E022851983851882E0A3FEE0A3F5207811
:101A030008E0A3F608DFFAE0A3FFE0A3C0E0E0A349
:101A1300C0E0E0A3C0E0E0A3C0E0E0A3C0E010AFFB
:101A2300088582188583198008858218858319D2D1
:101A3300AFD083D082020122851983851882E0A367
:101A4300FEE0A3F5207808E0A3F608DFFAE0A3FFA1
:101A5300E0A3C0E0E0A3C0E0E0A3C0E0E0A3C0E0F7
:101A630010AF0885821885831980088582188583BD
:101A730019D2AFD083D08222C0D02518C582C0E04E
:101A8300E51934FFC583C0E0E518C3958224F3103C
:101A9300AF08858319858218800885831985821884
:101AA300D2AFC8F0A3E9F0A3EAF0A3EBF0A379085F
:101AB300E709F0A3D8FAECF0A3EDF0A3EEF0A3EF5F
:101AC300F0A3D0E0F0A3D0E0F0A3D0E0F0A3E520B2
:101AD300F0A3E5F0F0A322851983851882E0C0E026
:101AE300A3E0F9A3E0FAA3E0FBA37808E0F608A3D8
:101AF300DFFAE0FCA3E0FDA3E0FEA3E0FFA3E0C068
:101B0300E0A3E0C0E0A3E0F5D0A3E0F520A3E0A3C9
:101B1300F5F010AF0885831985821880088583192D
:101B2300858218D2AFD082D083D0E0F8D0E032746F
:101B330004800A74038006740280027401C0E0F416
:101B4300041218FCD0E01217D22274048008740324
:101B5300800474028000CCC0E0EDC0E0E518C39CB3
:101B6300CCAD1950011D10AF068C188D1980068C51
:101B7300188D19D2AF1217DFD0E0FDD0E0FC22D0D0
:101B830083D082E9C0E0E493A3C386F0C5F095F067
:101B9300F908E493A386F0C5F095F0700BE493A3E2
:101BA300C3994005E9048002A3E475F002A42582E9
:101BB300F582E5F03583F583D0E0F9E493A3C0E043
:101BC300E493C0E022D083D082ECC0E0EDC0E0E437
:101BD30093A3FCE493A3FDED4C600D121C14EC24C1
:101BE300FFFCED34FFFD80EFE493A3FCE493A3FD3E
:101BF300ED4C600D121C53EC24FFFCED34FFFD8013
:101C0300EFD0E0FDD0E0FCE493A3C0E0E493C0E0B8
:101C130022C0E0C3E49396087401939618400FE43E
:101C23009366700808740193661870007019A3A373
:101C3300C3E49396087401939618A3A3400DD0E0D0
:101C4300D0E0D0E0021C04A3A3A3A3A3A3D0E0226B
:101C5300C0E0C0F088F0E4936670080874019366EE
:101C6300187000A8F0A3A3700BD0F0D0E0D0E0D0A0
:0B1C7300E0021C04A3A3D0F0D0E0228C
:101C800074F512198FEAFEEBFFEE2434F8EF3400FE
:101C9000F988088909EE2435121DB8F8EE243712A8
:101CA0001DB8F50AEC850AF0A4FCAAF0850AF0ED4F
:101CB000A42AFDE82CF8E43DF97A257B00121841AE
:101CC000EA850882850983F05407F87401B8000298
:101CD0008004C333D8FCC0E0E0131313541FF8EEA4
:101CE00028F8EF3400F9E8245DF582E93400F58343
:101CF000D0E0F8E0586008850882850983801DEEF1
:101D00002436121DB8F5F0EA84A8F0EE28F8EF3476
:101D100000F9E82438F582E93400F583E0F97F041E
:101D2000021A3B74F512198FEAFEEBFFEE2434120F
:101D30001DB8C0E0EE2435F582EF3400F583D0E025
:101D4000F08E828F83A3A3A3A3A3E0FAA3E0FB8E6C
:101D5000828F83A3A3A3A3A3A3A3E0FCA3E0FDEC32
:101D6000C39AF50AED9BF50BEE2480F508EF3400DD
:101D7000F509850882F583E06401702BEE2481F576
:101D800082EF3400F583121B55121DC17402121824
:101D9000E2E960137CFD7D04EEFAEFFB120BF485A3
:101DA0000882850983E4F0AC0AAD0BEEFAEFFB1272
:101DB0001C80122314021D1EF582EF3400F583E00F
:101DC00022C082C083851882851983E0F8A3E0F9D8
:101DD000C3EA9CEB9D5012C3EC98ED994019C3EAFD
:101DE00098EB99501279018010C3EA98EB9940F56D
:101DF000C3EC98ED9950EE7900D083D08222EAC3EB
:101E00009CFAEB9DFB2200008521878522C622C01B
:101E1000E074EF121A7B759B00906182E0A2E640AD
:101E200003021ED0E591A2E64003021ED07591BFC9
:101E30009003C2E064057008120D92120D9E80039B
:101E4000120D98752100120E04E99003C3F0790079
:101E5000120DF8120B5E7A017B009003C1E0F912BB
:101E600010CE907803E064426003021F1990055F72
:101E7000E014F06003021F19C2AF121E7D0078311A
:101E8000D0E0F618D0E0F6E59F5407F97005909081
:101E9000A18003909091780812179CE9C4C0E07863
:101EA00030E65508F50808E65509F509740B780879
:101EB0001218AAD0E02508F8906270E0A2E740F876
:101EC000E8C333906272F0906270E0D2E0F0804933
:101ED000E0A2E55024E591A2E5501E7591DF900344
:101EE000C2E0640D70139003E4E004F06428700213
:101EF000E4F07A00E0F9120E76906181E0A2E350FE
:101F000009E5E9A2E3500375E9F7A3E0A2E7500968
:101F1000E591A2E7500375917F7F04021ADAC0E0D1
:101F2000C0D0C082C083906183E0A2E05009E5BFC9
:101F3000A2E0500375BFFEE0A2E15009E5BFA2E1B7
:101F4000500375BFFDE0A2E25009E5BFA2E25003D5
:101F500075BFFBE0A2E35009E5BFA2E3500375BFE4
:101F6000F7E0A2E45009E5BFA2E4500375BFEFE03B
:101F7000A2E55009E5BFA2E5500375BFDFE0A2E688
:101F80005009E5BFA2E6500375BFBFD083D082D011
:101F9000D0D0E032C0E074F2121A7BE5A7A2E45080
:101FA0000FE5A1A2E4500953A7EF75A1EF121FE8B6
:101FB000E5A7A2E5500CE5A1A2E5500653A7DF7501
:101FC000A1DFE5A7A2E15009E5A1A2E1500375A1B7
:101FD000FDE5A7A2E2500CE5A1A2E2500653A7FB43
:101FE00075A1FB7F01021ADA74F812198F752101AD
:101FF0009003C2E0640670077A007B00120D7AA29B
:10200000AFE433FED2AF9003C8E0640170187A20C9
:102010007B009003C1E0F91211527A207B009003FB
:10202000C1E0F91210D4906182E0D2E6F090055E32
:10203000E0602185C62280169003C7E06401700825
:10204000E5C654F84405F5C653BEFC121E087401DB
:10205000652160E4EEA2E092AF7F01021A3B00002E
:102060008E238F248582288583278518828519836E
:10207000E0CEA3E0CF852882852783EBC9EAC8EDAF
:10208000CBECCA75F010C3E833C8E933C9EA33CAE8
:10209000EB33CBC3EA9EF526EB9FF525B35004AB9B
:1020A00025AA26EC33CCED33CDD5F0DAAE23AF2420
:1020B0002274F112198F8A088B098C0A8D0B740F08
:1020C000121917780C12179C9090697808121776DD
:1020D000909069780C1217767808790C12157E505A
:1020E000157808790C12174E90906D780812159E8D
:1020F000401579018013780C790812174E90906D75
:10210000780C12159E40EB79007F08021A3B74EDA3
:1021100012198F8A088B098C0A8D0B7413121917E8
:10212000780C12179C909069780812177690906935
:10213000780C121776780C790812157E4011780801
:10214000790C12174EAA08AB09AC0AAD0B802275A8
:1021500010007511007512007513017810790C12BA
:10216000174E78107908121715AA10AB11AC12ADE2
:10217000137F0C021A3B909069780812179C8A8290
:102180008B8378081217897F04021A3B74F51219A1
:102190008F8C828D83780812179C8A828B837808B3
:1021A0001217621221E0C3E098F0A3E0991221D245
:1021B000401E9090AD780812179C8A828B83780815
:1021C00012173B8E828F83E02420F0A3E0344EF080
:1021D00080A4F08E828F83C3E09420A3E0944E22EB
:1021E000EA2404F8EB3400F9E8FEE9FF8C828D83E1
:1021F000A3A3A3A3E0F8A3E0F98E828F832274F552
:1022000012198FE9FE900514E0FAA3E0FBEEC33348
:10221000F8E433F9742028F582748F39F583E02AC5
:10222000F508A3E03BF5097808121B3A9090A91233
:1022300017BA12206074021218E28A088B098C0AFD
:102240008D0B741078081216DDAA08AB097F040202
:102250001A3B74F112198F8A0C8B0D8C0E8D0F7432
:102260000F121917E0FAA3E0FB7411121917E0F529
:1022700008A3E0F5097413121917E0FEA3E0FF7834
:1022800008121B3AEA2401F508EB3400F509E4F5DD
:102290000AF50B780C79081215ED90906578081204
:1022A000179C780C79081215EDAA0CAB0DAC0EAD8D
:1022B0000F12206074021218E28B09EA45096004CB
:1022C0007A0180027A00EC2AFCED3400FDECF8ED96
:1022D000F97A717B0212184188088909E4F50AF538
:1022E0000B8E828F8378081217ABECF8EDF97A71B8
:1022F0007B021218418A088B09740578081218B9F4
:102300008E828F83A3A3A3A3E508F0A3E509F07F42
:1023100008021A3BC082C083E9906000F0D083D0ED
:102320008222C0E074F2121A7BA2AFE433FED2AF75
:10233000C2C0E5D1A2E4500653D1EF12131AEEA2A7
:10234000E092AF7F01021ADAC0E074F2121A7BA2A7
:10235000AFE433FED2AFE589A2E04006E589A2E111
:102360005003121290758900758900C2C5EEA2E073
:1023700092AF7F01021ADAC0E0C0D0E8C0E0E5A861
:10238000D2AFC2C7A2E792AFD0E0F8D0D0D0E0324F
:10239000C0E0C0D0E8C0E0E9C0E0C008C009C08229
:1023A000C083A2AFE433F9D2AF9009E0E0F8A3E034
:1023B000687008539AFBA374018026C2E99009E073
:1023C000E0F50874012508F074602508F5827409A9
:1023D0003400F583E0F5C19009E0E0C39480400249
:1023E000E4F0E9A2E092AFD083D082D009D008D047
:1023F000E0F9D0E0F8D0D0D0E032C0E074F1121AA9
:102400007BE59DA2E650FA906206E0FAA2E2503522
:10241000A82EE890620BF0F508852F09740478085F
:102420001218AAE508906207F0852E08852F097416
:102430000978081218AAE508543E906209F09062E3
:1024400001E0D2E0F0782BEA46F6906202E0F5086F
:10245000750900740478081218B9782BE50846F657
:1024600008E50946F6906204E0F50875090074096C
:1024700078081218B9782CE50946F6EAA2E050036C
:10248000752D0174065A6003752D00E58BA2E55089
:1024900006758BDF752D00121464758B00C2E87F02
:1024A00002021ADAFFFFFFFFFFFFFFFFC082C083B7
:1024B000E9900BB3F002273074F7121923E9900268
:1024C000E0F07C187D037AFF7BFF1208769002E132
:1024D00074FFF0A3F0A3E4F0A3F079051207FE90D7
:1024E00002E0E0F91207267A947B08120A560234B9
:1024F0003E74F41219238A088B09EB5480603090E3
:1025000002E0E0F91210B68A0A8B0BAE0AAF0BEEAE
:102510004F60138E828F83E064B07003120816EE52
:10252000FAEFFB1210A4AA08E5096480FB80047A84
:10253000007B000226FF74F212192374FC1218CCDF
:10254000EAFEEBFF7412121917123925EE4F7003D1
:102550000225D97402121917EEF0A3EF12293AECF2
:10256000F0A3ED12293AAA82AB83120720E9F50AFB
:10257000706AE508450960648E828F8312390BEE1C
:102580004F60567A067B0012110A8A0C8B0DA80C3C
:10259000A90DE8497005750A13804188828983E492
:1025A0001225E6EEF0A3EF123936E508F0A3E509AF
:1025B000F09002E612266D9002E670051233E88074
:1025C0001B1233D68003EAFCEBFD8C828D8312262E
:1025D0006D70F38C828D8380E3750A02A90A7404FE
:1025E0001218E2023B25F0A31238DCA32274F21287
:1025F0001923890AE975F017A4FEAFF09002E5E40B
:10260000F09002E312266D600A1211109002E3E4CA
:10261000F0A3F0EEFAEFFB12110A8A088B09EA45E3
:1026200009602FEEFCEFFD790012108C9002E3E5BB
:1026300008F0A3E509F07B008008122657E4F0A318
:10264000F00BEBC3950A40F2E50A9002E5F0790041
:1026500080027913023B25EB75F017A4F8A9F090DE
:1026600002E3E028FAA3E0398A82F5832212307A65
:10267000EA4B2274F4121923740C12191712390040
:10268000FEE9FF750800750900800CE5082401F5D6
:1026900008E5093400F509C3E5089CE5099D5032B9
:1026A00085080A85090B7403780A1218B9EA250A05
:1026B000F8EB350BF988828983A3A3A3A3A3A31204
:1026C00034BDEE650A7003EF650B70BFE8FAE9FBF5
:1026D00080047A007B00802774F41219237900EAC1
:1026E000A2E0501B7508327509907808121B3A7CDD
:1026F000047D007AB57B0B1207F874021218E27F92
:10270000040219F5C082C0839002E6122737601CCC
:1027100088828983A3A3E06A7003A3E06B8882891F
:102720008370E8A3A3A3A312307680047A007B0011
:10273000D083D082020122123C0BE8492274EE12AF
:10274000192374FC1218CCEAFEEBFF851882851958
:1027500083E4F0A3F0EE24021233C8EE240512380D
:10276000E3EE2404F50EEF122CEFE024FE60392492
:10277000FC604624FE605224FE605E24FE7003026C
:10278000285024FE70030228B424FE70030228C3DC
:1027900024FE70030228D224FC70030228E124FEE8
:1027A00070030228F002292D9002FF7417F0A3E4B1
:1027B00012294212049E02292D851882851983ACA4
:1027C00082AD8312081C0228FD851882851983AC0E
:1027D00082AD831208220228FD850C08850D09743C
:1027E00002121917AC82AD838508828509831230E5
:1027F000761207448A0C8B0DAC0CAD0DEC4D603B92
:10280000E4F50CF50D780C121B3A750CFF750D02F2
:10281000780C121B3A750C00750D03780C121B3ADC
:102820007408121917121B55123D871218E2E9F5A8
:102830000C700B12306C1204B6800F750C018508F9
:10284000828509831229301233E8850C0802290099
:102850007402121917AC82AD83850C82850D831228
:102860002E41603C850C82850D83A3A3121B5575F8
:1028700010FF7511027810121B3A751000751103C4
:102880007810121B3A7408121917121B55123D8743
:102890001218E2E9F509700B12306C1204BC800FBB
:1028A000750901850C82850D831229301233E88564
:1028B0000908804C851882851983AC82AD83120883
:1028C00028803A851882851983AC82AD8312082E40
:1028D000802B851882851983AC82AD8312083480E1
:1028E0001C851882851983AC82AD8312083A800D4D
:1028F000851882851983AC82AD83120840E9F508FA
:10290000E50860298E828F83A3E06414601F850E22
:1029100082850F83E09002FF12293A123C07900350
:10292000001233E8E508A31229421204980232D7B4
:10293000123C0B85188285198322F085188285192F
:102940008322F07CFF7D02850A82850B8312307A18
:102950002274EE12192374FC1218CC8A0A8B0B8C89
:102960000E8D0FEA2405F508EB3400F5097C157D82
:102970000079007AFF7B0212108CE5082402F50C26
:10298000E5091238E68518828519838582108583CA
:10299000117810121B3A850882850983A3A3A3A38B
:1029A000122E38121B3AE5082405F510E50934000B
:1029B000F5117810121B3A850C82850D8312318D2A
:1029C00012073E74061218E28A108B11AE10AF1176
:1029D000E50A2402F50AE50B1233CBEE4F70030231
:1029E0002B0F801774021219171230768882898390
:1029F000EAF0A3EBF09002FFE004F09002FFE0C3E6
:102A000094054003022B0FE4F510F5117810121B0A
:102A10003A7510E87511027810121B3A7510E975B5
:102A200011027810121B3A7406121917121B5579ED
:102A300010EEFCEFFD123D891218E2E9705E850888
:102A400082850983A3A3A3A3A3A3A3E0F89002E82C
:102A5000E0687048122E38121B3A7CE97D02E508C6
:102A60002408FAE5093400FB12108674021218E2F9
:102A7000E960298E828F83A3A3A3A31230769002EC
:102A8000FFE0F510740278101218B974002510F5E3
:102A90008274033511F583EAF0A3EBF07402121986
:102AA000178582108583117810121B3A740212194F
:102AB00017121B55850C82850D8312309C1218E26B
:102AC0008A108B11AE10AF119002FFE0F510751156
:102AD00000740278101218B974FF2510F8740235CA
:102AE00011F988828983A312266D70030229DBE81D
:102AF0002403080808E93400F9EE4F60030229E4D2
:102B00008882898374FFF0A3F09002FFE004F090C4
:102B100002FFE0600A12306C1204AA7900800B8573
:102B200008828509831233DF790A0232D774EA12E8
:102B3000192374FE1218CC8C128D13EA2405F50C9F
:102B4000EB123D7112390F750800750900EA240275
:102B5000F510EB3400F51185188285198385820AFA
:102B600085830B780A121B3A850C82850D83A3A3FB
:102B7000A3A3122D05121B3AE50C2405F50AE50D59
:102B80001233CB780A121B3A850C82850D83122DE5
:102B90000912073E74061218E28A0A8B0BEA450BEB
:102BA0007003022CAAEA2404F50EEB122CEF123962
:102BB0000F8A828B83A3A3A3E0F9851082851183FA
:102BC0001230806003022CAAE4F514F51578141273
:102BD0001B3A7514E87515027814121B3A7514E93E
:102BE0007515027814121B3A7406121917121B5528
:102BF0007913AC0AAD0B851082851183123D8F12BB
:102C000018E2E9F5096003022CAA9002E8E0F8E571
:102C1000087009E02402900300F08014900300E0A3
:102C2000FCE82402FAE43400FBEA6C7001EB707EED
:102C3000850882AA82122E2F9414122E27506B859B
:102C40000E82850F83E0C0E074012A122CE6D0E0EA
:102C5000F00508850E82850F83A3E0C0E085080A91
:102C60007401250A122CE6D0E0F005089002E81263
:102C70002D05121B3A7CE97D0285080A7401250A9C
:102C8000122CF91218E29002E8E02508F50874FF0A
:102C90006E700374FF6F6012EE24010EEF3400FFBC
:102CA000E508C394145003022B57E5086013123053
:102CB0008A8510828511831230761204B0790080E3
:102CC00014E509700375090A851282851383EEF0F5
:102CD000A3EFF0A90974021218E27F0E0219F5851C
:102CE000080C7401250CF58274033400F58322343A
:102CF00000F50F850E82F58322FA74033400FB126F
:102D0000107474022212394522A3A3122D0F22122D
:102D100033D6FDEEFAEFFB2274EE12192374FE1285
:102D200018CC8C0E8D0FEA2405F50CEB1238E675E5
:102D30000B009002FFE4F0F50AEA2402F508EB34F8
:102D400000F50980449002FFE0FA9002E8E0F812F2
:102D50002E2F9417122E27400D9002FFE0F87416C4
:102D6000C3989002E8F0122E38121B3A7CE97D02DB
:102D700074002AFA7403122CFC1218E29002E8E0A4
:102D8000F89002FFE028F0050AE50C2416F582E52C
:102D90000D122CEAE0F8E50AC39850749002FFE0A7
:102DA000C39416506BE50AC333F8E433F9E50C28F5
:102DB000FEE50D39FF851882851983AC82AD838EBF
:102DC000828F83122E417008750B011233DB805005
:102DD000E4F510F5117810121B3A7510E875110220
:102DE0007810121B3A7510E97511027810121B3A0F
:102DF0007406121917121B557916850882850983E6
:102E0000123D8F1218E2E9F50B7003022D4580BBCD
:102E10007CFF7D028508828509831230761204C208
:102E2000A90B74020232D9E99400C365D03322EAB7
:102E300028F8E43400F9E822E0F510751100781064
:102E4000221232CE8A108B11AC10AD11EC4D2274CF
:102E5000EA12192374FC1218CC8A0C8B0D8C128D7B
:102E600013EA2405F50AEB1233CB75080075090047
:102E7000E50A2402F510E50B3400F511740212196D
:102E80001785820E85830F780E121B3A850A82857C
:102E90000B83A3A3A3A31238EB121B3AE50A240564
:102EA000F50EE50B3400F50F780E121B3A851082F3
:102EB0008511831233D112307012073E7406121836
:102EC000E28A0E8B0FAE0EAF0FE50C2402F50EE575
:102ED0000D3400F50F80388882898374FFF005086F
:102EE000122CDF74FFF005089002E8E0F50C750D78
:102EF00000780C121B3A7CE97D0285080C740125D0
:102F00000C122CF91218E29002E8E02508F508EE00
:102F10004F60278E828F83A3A3A3E0F9850E82855D
:102F20000F83123080EE24041238E3E96027850C09
:102F300082850D831230621233E8E5087003023097
:102F40004812308A850E82850F831230761204C8AB
:102F5000790002305DE4F514F5157814121B3A750A
:102F600014E87515027814121B3A7514E9751502E8
:102F70007814121B3A7408121917121B557911EEA6
:102F8000FCEFFD850E82850F83123D8F1218E2E95A
:102F9000F509709A850882AA82EA9002E87009E031
:102FA0002404900300F08025E0F8900300E0F5147D
:102FB000E82404FCE43400FDEC65147001ED70813C
:102FC000122E2F9412122E274003022F41850C82BD
:102FD000850D83E0C0E074012A122CE6D0E0F005F4
:102FE00008850C82850D83A3E0C0E0122CDFD0E0C1
:102FF0001230A585820C85830D780C121B3A74045F
:10300000121917121B5585108285118312309C12DC
:1030100018E28A0C8B0DAE0CAF0D85080C740125DF
:103020000CF874033400F9EE4F7003022ED78518A4
:1030300082851983E0888289831230A5A3E0C0E0ED
:10304000122CDFD0E0022EE5E509700375090A8530
:103050000A82850B831230621233E8A909740402D4
:103060002CD7123C0B851282851383227CFF7D02B4
:10307000850A82850B8312307A22E0FAA3E0FB22D4
:1030800012307A12072CE9F50922900300E0F5F0DE
:10309000E508849002FFF07CFF7D0222122D0F12C2
:1030A000074A740422F00508851882851983227462
:1030B000EC12192374FE1218CC8A088B098C0E8D21
:1030C0000FEA2405FEEB3400FF1232B8EE2418128A
:1030D00038E3EA450B700302315B1232A15029122A
:1030E00031808A108B11EA4511606B7912AC0AAD00
:1030F0000B850882850983123076851082851183BD
:10310000121921E9F50A7058E4F50AF50B780A124C
:103110001B3A8E828F83A3A3E0F50A780A121B3A2A
:10312000EE24031233C8780A121B3A8E828F831260
:10313000318D12086474061218E2E9F50A702185CF
:103140000C82850D83E0701F85088285098312300B
:10315000761204CE8011750A0E8009750A0180046A
:10316000E50A60031233DB850C82850D83E0600481
:1031700079008002A90A74021218E27F0C0219F584
:1031800085188285198312307A120852221233D69A
:10319000FD85088285098312307A2274EE12192384
:1031A00074FE1218CC8A088B098C0C8D0DEA24054C
:1031B000FEEB3400FF750E001232B8EA450B7003C7
:1031C00002327F1232A1502C1231808A0E8B0FEA0C
:1031D000450F604A7912AC0AAD0B850882850983D8
:1031E000123076850E82850F83121921E9F50E6063
:1031F000030232828508828509831234BDAA0AFB44
:1032000012329370147AFF7BFF123293606C8882C3
:103210008983E50AF0A3E50BF0750A008007750EB7
:103220000E805F050A9002E5E0FAE50AC39A504A6B
:10323000E50A75F017A4FAABF088828983A3A3E0AE
:103240002AFAA3E03BFB8A828B831233D1EC4D70C8
:10325000D2750A17750B00780A121B3AEEFCEFFDC7
:1032600012107474021218E2EEFCEFFD85088285DC
:1032700009831230761204D48014750E0980037508
:103280000E01123C03850C82850D831233E8A90ED2
:10329000022E221208468A108B11A810A911E849A3
:1032A00022E5082402F508E5093400F5098A828B35
:1032B00083A3A3A3E0A2E522851882851983AC82AB
:1032C000AD838E828F831232CE8A0A8B0B22E0FA74
:1032D000A3E0FB1207442274041218E27F0A0219C9
:1032E000F574EC1219238C108D11EA2405F50CEB02
:1032F0001238E6750F00EA2402F50AEB1233CB858B
:103300000A82F583123076123E1570030233BD75C2
:103310000E008071850C82850D83E06401704F8EF4
:10332000828F83A3A3121B558E828F83A3A3A3A393
:10333000E0F5127513007812121B3AEE2405F5120F
:10334000EF3400F5137812121B3A12307012086431
:1033500074061218E2E9F50F6014850C82850D835E
:10336000E4F0123C038510828511831233E87C1748
:103370007D007900EEFAEFFB12108C8E828F83E4D1
:10338000F0A3F0050E9002E5E0F8E50EC398501E9C
:10339000E50E75F017A4F8A9F0850882850983A3C6
:1033A000A3123D7B1233D1EC4D6003023314850828
:1033B0008285098374FFF0A3F0E50F700612307068
:1033C0001204DAA90F02317BF50AEF3400F50B2263
:1033D000A31233D6FD22E0FCA3E0228E828F83125B
:1033E0003C0B850E82850F83E8F0A3E9F022C082B2
:1033F000C0839002E1E06A7003A3E06B70067AE19B
:103400007B0280047A007B0002273074F7121923B4
:103410007F00EF75F003A4F8A9F0EC28F8ED39F976
:1034200088828983E06A7003A3E06B7006E8FAE99A
:10343000FB800B0FEFC3940240D87A007B007F0122
:103440000219F574F61219231239F470067A007B0A
:10345000008007A3A3A3A3123076023AB574F21238
:103460001923E9FE740E1219171234BD74101219C3
:10347000171239258C828D83E06402703BA3123CC5
:103480000788828983E0F50CA3E0F9A80C74026830
:1034900070037429697021750C02750D00780C1287
:1034A0001B3A7808121B3A780A121B3AEEF91208F6
:1034B0008874061218E280027901023B25E0F50AC1
:1034C000A3E0F50B2274E812192374FB1218CCE95F
:1034D000851882851983F08A168B178C0E8D0F74D0
:1034E0001F12191712392574211219171234BD74BD
:1034F0002312191712390F7510008C828D83A3A324
:10350000A3E0A2E4502A741D1219171231868A8290
:103510008B83E582458370030235D1790AAC0EAD09
:103520000FAA16AB17121921E9F51060030235D462
:10353000850E82850F83E06402600302388AA3123D
:103540003C07850882850983A3858212858313E55C
:103550000E2406F50CE50F1238E688828983E0FA1E
:10356000A3E0F9EA2400F514E439F5157814121BE8
:10357000C801000028012899350700022870360389
:1035800028E03500299A370129C237022969370313
:10359000299A3704292B388A38EE4F703E850C82E1
:1035A000850D83123900FAE9FB8A828B83E0850A54
:1035B00082850B8312393C121B3A8A828B83A312B9
:1035C00033D6FDAA08AB0912107474021218E280F7
:1035D0000375100EA9107405023D6975100B80F477
:1035E000EE4F70F7850A82850B837401F01239154E
:1035F000850882850983F07C007D00850E82850F19
:1036000083A3A3A3A3E02401FAA3E03400FB1207E1
:1036100044EA4B60418A828B83E02402F8850A8267
:10362000850B83E028F0EA2404F8EB3400F9888263
:103630008983E085128285138312394E12393C1238
:103640001B3A8A828B831233D0E5082403FAE509FA
:103650003400FB0235C7850A82850B83E02404F021
:103660007C047D007900AA12AB1312108C0235D4B1
:10367000EE4F60030235DB123915FEA3E0FF850A29
:1036800082850B837404F0EE850882850983F0EF50
:10369000851282851383F07403121917AC82AD83EF
:1036A000EEFAEFFB1239E270030237468A828B830F
:1036B000A3A312390B740112191785820E85830F8B
:1036C000780E121B3A7405121917121B557CFF7DD8
:1036D000FF12074A74041218E28B0FEA450F703389
:1036E000850C82850D831238EB121B3A850C82857E
:1036F0000D83A3121B557C027D007AE57B90120599
:103700007674041218E2E9700A740112191774FF32
:10371000F0A3F08E828F83E064027034750C027522
:103720000D00780C121B3A8E828F831233D0E5087D
:103730002404FAE509122CFC1218E2850A82850B92
:1037400083E0240280097401121917EEF0A3EFF050
:1037500074011219171238FCF07401121917A31210
:1037600038F4A3A3A3F00235D4EE4F60030235DB97
:10377000850C82850D831233D1AA16AB1712087CF3
:10378000850A82850B837402F0EA850882850983A5
:10379000F0851282851383EB80CBEE4F60030235F8
:1037A000DB123915F8A3E0F9850A82850B837402D0
:1037B000F0E8850882850983F0E985128285138304
:1037C00080A3850C82850D8312307612106EEAFC80
:1037D0008C82A882C39EE49F404BE86E7001EF701C
:1037E000047C00801F851882851983E0FAEE2AFA8E
:1037F000EF3400FBC3EA98EB94005003E08004EE42
:10380000CCC39CFCEC850A82850B83F08C0A750B7B
:1038100000780A121B3A850C82850D83E02EFCA3EA
:10382000E03F0235C27510070235D4EE4F60030247
:1038300035DB850C82850D83123C07850A82850B5A
:10384000837407F0888289831238F41238DCE085AB
:103850001282851383F0E82402FAE93400FB8A829D
:103860008B831238F412392D1238FCA31239361218
:103870003905F0E82405F8E93400F98882898312D3
:103880003905A312394EA3023762741D121917129B
:1038900039ED70030235D1123C07880C890DE845DB
:1038A0000D70030235D18E108F117810121B3A78EB
:1038B0000A121B3A7808121B3A7406121917E0F91B
:1038C000AC0EAD0FAA16AB17850C82850D831219AD
:1038D0002174061218E2E9F5100235D4F0888289C5
:1038E00083A322F50CEF3400F50D22E0F50E750FE1
:1038F00000780E22E085088285098322123955223C
:10390000123C0BE822123955A3A322A3A3A3A3E0E0
:10391000FEA3E0FF22850C82850D83E0F8A3E0F58D
:10392000838882E022E0F508A3E0F50922A3A3F052
:103930008A828B83A3221225E8A3A322F08A828B9A
:103940008312394522E0F50A750B00780A221238F5
:10395000DC12395522E0850882850983A3A32274ED
:10396000EE12192374FE1218CC8A0A8B0BECFAEDB6
:10397000FB7414121917E0F510A3E0F51174161278
:103980001917E0FE7418121917E0F50EA3E0F50FF1
:10399000851882851983AC82AD831239E2603E8539
:1039A00018828519831239ED602FA3A3123925E5FA
:1039B0000845096024780E121B3A7810121B3AEE63
:1039C000F9AC0CAD0DAA0AAB0B85088285098312F0
:1039D000192174041218E28006790E80027901021E
:1039E0002E221207448A0C8B0DEA450D2212307AE2
:1039F0001239F4221208108A828B83E582458322D1
:103A000074F612192374FE1218CC740C12191712C2
:103A10003900851882851983F07401121917E9F0AD
:103A2000E4F508F5097808121B3A750802780812BF
:103A30001B3A7404121917858208858309780812C5
:103A40001B3A12086474061218E274021218E2801B
:103A50006474F7121923EAFEEBFF89087C187D03D2
:103A600012087CEA5402600BA908EEFAEFFB120779
:103A7000388002790102343E74F612192374FF6A09
:103A8000700374FF6B701C7B00EB75F003A4F8A946
:103A9000F0EC28F8ED39F9123ABA0BEBC394025066
:103AA0001480E612084C8A088B09A808A909E8497D
:103AB0006003123ABA7F020219F58882898374FF83
:103AC0001225E6E4F02274F612192312084C8A82B9
:103AD0008B83E58245836006A3A3E0FA80027A0027
:103AE0007B0080D174F21219238A088B09ECFEED59
:103AF000FF740E121917E0F50A123B2A701CEEFC37
:103B0000EFFD7AFF7BFF123B2A7004791180168843
:103B1000828983E508F0A3E509F088828983A3A35D
:103B2000E50AF079007F060219F512084C8A0C8B21
:103B30000DA80CA90DE8492274EE121923EAFEEB38
:103B4000FF8C088D09890C7412121917123C077426
:103B5000141219171233D174161219171230767500
:103B60000D00EC4D6003023BFB7402650C60030228
:103B70003BF6888289831233D6F9EC2400F50EE4F3
:103B800039F50FEAF4F8EBF4F9EC58F8E50F59F9C8
:103B9000E849705DE5082406F8E5093400F9880A6B
:103BA000890B8882F583122D0B12087C8A108B11E9
:103BB000E50E65107004E50F65116042780E121B6A
:103BC0003A850A82850B83122D0B12088274021229
:103BD00018E2E9F50D7027780E121B3A85088285E8
:103BE0000983A3A3122D0912089A74021218E28005
:103BF0000D750D808008750D0D8003750D0BA90DD9
:103C00000232DC8E828F83123C0B22E0F8A3E0F9B3
:103C10002274E812192374E71218CC8518828519CA
:103C200083EAF0A3EBF08C168D17890E743112190C
:103C300017E0F512A3E0F5137433121917E0F51429
:103C4000A3E0F5157435121917E0F50F7508007526
:103C50000900E50975F003A4F8A9F0851882851913
:103C600083123D7BE0F47003A3E0F47003023D593E
:103C7000EE2402F50CEF123D71E07003023D598510
:103C8000160A85170B780A121B3AAC14AD15AA1246
:103C9000AB1312080474021218E28A0A8B0BEA456D
:103CA0000B7003023D59E4F510F5117810121B3A20
:103CB00074061219178582108583117810121B3A29
:103CC00074091219178582108583117810121B3A16
:103CD000851282851383A3A3A3A3121B557914AC69
:103CE0000AAD0B8E828F83123D8F1218E2E9706944
:103CF000850A82850B83A3A3A3A3123C0774021237
:103D000019171233E8850C82850D83E0A2E0501864
:103D1000A90E7402121917AC82AD838E828F8312A2
:103D2000307612075CE94208850C82850D83E0A29B
:103D3000E15026E50FF50A780A121B3EA90E74031E
:103D4000121917AC82AD838E828F831230761207E0
:103D50005674011218E2E942080509E509C3940204
:103D60005003023C52A90874191218E27F1002197C
:103D7000F53400F50D850C82F58322E028FEA3E0E2
:103D800039FF8E828F83227916850A82850B8312F2
:103D9000307A12085E74082274F2121923EAFEEBDC
:103DA000FF890B7401650B600E7402650B706379FB
:103DB00001120A74E9705BEEFAEFFB123E156047E0
:103DC000750A00800B7C177D00790012108C050AA3
:103DD0009002E5E0F8E50AC3985021E50A75F0176E
:103DE000A4F8A9F0850882850983A3A3E028FAA393
:103DF000E039FB8A828B8312273770C98508828558
:103E0000098374FFF0A3F07C187D03EEFAEFFB1238
:103E10000876023B251208468A088B09EA450922E2
:103E200074F21219238A088B09ECFEEDFF740E124E
:103E300019171234BD900BB3E0F4603D7A097B0092
:103E400012109EEA4B60328A828B8374B1F0A3E435
:103E500012392FA312392DA3E508F0A3E509123E6C
:103E60007CEEF0A3EF123E7CA3A3E50AF0A3E50BE2
:103E7000F0900BB3E0F91210AA023B25F08A828B76
:103E800083A3A3A3A3A32274F4121923E9FF7E0042
:103E90008A088B097808121B8200040D3840BA3E4C
:103EA000D63EEB3E003F153F2A3F463F5F3F713F06
:103EB0009F3FC13FDD3FF93F174074016F70128C87
:103EC000828D83E0C394035008E0900C9FF0024081
:103ED000567E1802405674026F70F68C828D8312E3
:103EE0004794900CA0E8F0A3E980E274016F70E1C0
:103EF0008C828D83E0C3940250D7E090078180CDFF
:103F000074016F70CC8C828D83E0C3940550C2E045
:103F100090078280B874016F70B78C828D83E0C384
:103F2000940250ADE090078380A374106F70A27567
:103F300008108E097808121B3A7A847B07124B58B6
:103F40001218E202405674016F70868C828D83E0F5
:103F5000C394024003023ED1E0900794023ECD7428
:103F6000016F6003023ED18C828D83E0900CA380B0
:103F70008D74046F6003023ED19090A978081217E7
:103F80009C8D838C82780812158E4003023ED18C62
:103F9000828D831217BA9007961217C6024056EF09
:103FA0006003023ED11206E4E9700E121206795047
:103FB0001213B01211FA0240569008297401023E01
:103FC000CD74016F6003023ED18C828D83E0C39477
:103FD000024003023ED1E0900795023ECD74016F8E
:103FE0006003023ED18C828D83E0C3940A400302B9
:103FF0003ED1E0900CA2023ECD74016F6003023E00
:10400000D18C828D83E024F9C3940A4003023ED10F
:10401000E0900CA4023ECD74016F6003023ED1908B
:104020000828E0F88C828D83E0900828F0E870265C
:10403000E064017021023FB3C3EA9426EB94005080
:104040001374026F700E8C828D8312478E1205825C
:10405000E9FE80020E0EEEF9024060740E1218E2C4
:104060007F040219F574F012192374CC1218CC8C49
:104070000A8D0B7444121917E0FE7420121917AC44
:1040800082AD8375839075822C74061217DF7420BD
:10409000121917AC82AD831211ACE9F508C3940A6A
:1040A00040030241C975F006E9A4F5097426121906
:1040B00017AC82AD837A0E74202509124C1070095A
:1040C0007432121917E0FF80027F00900C9FE064A9
:1040D00002700474018001E4F50D780D121B3EEEB0
:1040E000FDEFFCA908AA0AAB0B12123074011218DA
:1040F000E27C147D007900740C121917AA82AB833C
:1041000012108C740C121917AC82AD837A107424BF
:104110002509124C1070377C1079FF740C12191796
:1041200012493D7029741C121917AC82AD837A04B0
:1041300074252509F91213AA740C121917AC82AD53
:1041400083EFA2E0E433F9AA0AAB0B12060C851840
:1041500082851983AC82AD837A0C74702508124C69
:10416000107055851882851983AA82AB831211DCE1
:10417000750800E50875F003A4F8A9F08518828594
:104180001983E58228F8E58312497912478EEC4DB0
:10419000601D88828983A3A3E0F50E750F00780E59
:1041A000121B3AAA0AAB0B12086A74021218E20533
:1041B00008E508C3940440BBEFA2E1500C900780CF
:1041C000E0F9AA0AAB0B12087074046E702A900C06
:1041D0009FE064027022900794E060047A018002FC
:1041E0007A00900781E06004780480027800E84A51
:1041F000F9AA0AAB0B1206CC790074341218E27FCC
:10420000080219F574F0121923EAFEEBFF8C088DF1
:1042100009750A0AE9600C14600914602E14607FA5
:104220000242AA1211EEE9F50AC3940A507CE5088D
:1042300045096076750E06750F00780E121B3AEE72
:10424000FCEFFD124B541218E2805F750B00750EE7
:1042500006750F00780E121B3AEEFCEFFDE50B75AC
:10426000F00EA4F8A9F074A228FA740739FB121012
:104270008674021218E2E9601B850B0AE50AC394F2
:104280000A5027E50845096021AA08AB09A90A12C6
:1042900011E88016050BE50BC3940A500D80AF1290
:1042A00011F4E9F50AC3940A40D9A90A0241FF743E
:1042B000F4121923890875091574FF6A700374FFD5
:1042C0006B70277E00AC087A027B00EEF91211CAEF
:1042D000E960037509000EEEC3940A40E8E5086042
:1042E000497A1E7B12120A868040120A688A0A8B5B
:1042F0000BAE0AAF0BEE4F602E7C007D00EE240566
:10430000FAEF3400FB8E828F831243A6500CAC0868
:104310007A027B001211CA750900E508600CEEFAFA
:10432000EFFB12121E8003750914A9090240607484
:10433000F2121923ECFEEDFF740E121917124781C9
:1043400075081574FF6A700374FF6B70217509009E
:10435000AC0AAD0BEEFAEFFBA9091211D0E960032C
:104360007508000509E509C3940A503580E2120A70
:10437000688A828B83E582458360237C007D00E52B
:10438000822405FAE5833400FB1243A65013AC0ADD
:10439000AD0BEEFAEFFB1211D07508008003750823
:1043A00014A90802517FA3A3A3A3E0F91211ACE959
:1043B000C3940A22C082C08390079AEAF0A3EBF06C
:1043C000900780E0FC7D007A257B00120582900733
:1043D00080E0F91207E6D083D08202012274EA124B
:1043E000192374EC1218CCEAFEEBFFEE240CF51442
:1043F000EF3400F515EE240AF510EF3400F511EE58
:104400002405F50EEF3400F50FEE2409F50AEF341C
:1044100000F50BEE2403F508EF3400F5098E828FCA
:1044200083A3A3E024FA700302474A24FD70030229
:1044300046791470030244C814601024FD7003020E
:10444000464A1470030246AE0247681247AD604AFE
:10445000E0F5838882124794880C890DE8450D6049
:1044600039851482851583E0F50E780E121B3EEE19
:10447000240BF582EF3400F583E0F9850A82850B81
:104480008312478E0A0A0AAB09850C82850D8312B6
:10449000192174011218E2024768850A82850B838C
:1044A000121B559007961217BA12061E74021218A4
:1044B000E2E970030247687901850A82850B83125D
:1044C0004FA41206180247688E828F83A38582123A
:1044D000858313E06003024623850E82850F83E007
:1044E000A2E040030246237C0E7D007900851882FD
:1044F000851983AA82AB8312108CEE2408F50AEF8B
:104500003400F50B850A82F5831247B06019750CEB
:1045100006750D00780C121B3A850A82850B83E024
:104520002410FCA3E0801A124772EA4B7003024782
:1045300068750C06750D00780C121B3AEA2405FC10
:10454000EB3400FD7402121917AA82AB83124B5888
:104550001218E2850E82850F83E0A2E25004D2F0A9
:104560008002C2F0A2F0E433F8740C121917E0488C
:10457000F08510828511831247B060158510828501
:104580001183E02410F8A3E03400F9888289838045
:10459000039090AD780C12179C85108285118312C0
:1045A00047B0600F851082851183E0F510A3E0F518
:1045B000118006751000751100850A82850B831223
:1045C00047B0600B850A82850B8312478180067590
:1045D0000A00750B00780C121B327810121B3A7807
:1045E0000A121B3A851482851583121B558E828F01
:1045F00083A3124789740A121917AA82AB83121176
:10460000E2740A1218E285088285098312479490A1
:10461000082AE8F0A3E9F07A017B00900780E0F92E
:104620001210CE1247AD700302476812479A70030A
:10463000024768851282851383E0FC7901124F9E40
:104640008E828F831219210247681247AD700302D0
:104650004768E0F5838882A3A3124794890BE84555
:104660000B70030247688E828F83A3E0FC790212ED
:104670004F9E8882850B8380CB7C007D00EE2404D6
:10468000FAEF3400FB850882850983E0F91211AC4A
:10469000E9F8C3940A4003024768AC10AD117A04EC
:1046A00075F006E8A42425F91213A40247689007C0
:1046B00095E0600E900CA2E0F985088285098302DE
:1046C00044BF900C9FE07004790580ED1247728A18
:1046D0000C8B0DA80CA90DE82404F50CE93400F5A9
:1046E0000D8E828F83A3A3A3A3A3A3A3E0A2E05074
:1046F00036E8496073850C82850D83E0FE6028856D
:104700000A82850B83E05410701D740E121917ACC9
:1047100082AD83E82405FAE93400FBEEF91211AC0E
:10472000E9700479038092AC0EAD0F850C82850D83
:1047300083E0F9124F9E12122A1247AD602A1247E7
:104740009A60257C00790002463D1206E4E9701863
:10475000900829E064017008121206900829E4F01C
:1047600079501213B01211FA74141218E27F0E026B
:1047700019F5850882850983E0FAA3E0FB120A682F
:1047800022E0F50AA3E0F50B22A3A3A3A3A3E0FC78
:10479000A3E0FD22E0F8A3E0F922E0F5838882A3FC
:1047A000A3E0F8A3E0F9E8FEE9FFEE4F2290079AB4
:1047B000E0F8A3E0F9E8492274F412192374F21224
:1047C00018CCEAFE8C0B75F006E9A42420F50885C8
:1047D0001882851983AC82AD837A0E124C10704A10
:1047E0007C061249357043740C121917124794E86D
:1047F000F509E50B6005EE42098004EEF4520985E7
:104800000982AA82E86A7001E9601B740C12191708
:10481000EAF0A3E4F0851882851983AC82AD837A2F
:104820000EA9081213A479018002790002405B747A
:10483000F212192374E61218CC890A8A088B09EC43
:10484000FEEDFF740C121917124C0360030248E9C5
:104850007C0679FF740C12191712493D6003024857
:10486000E97470250AF50B851882851983AC82AD31
:10487000837A0C124C10600302492E851882851928
:1048800083AA82AB831211DCE508450970217C0CF8
:104890007900124937600302492E7C0C7D007900B3
:1048A000851882851983AA82AB8312108C8061855A
:1048B0001882851983AC82AD83AA08AB091211D680
:1048C0008A0C8B0DA80CA90DE849702CEE4F6019CD
:1048D000851882851983AC82AD837A007B00121122
:1048E000D6EAF8EBF9EA4B700479008043888289B4
:1048F00083E508F0A3E509F01249B5FAEE6A700104
:10490000EF602BEEF04F700888828983E4F0A3F00B
:10491000851882851983AA82AB831211DC851882DF
:10492000851983AC82AD837A0CA90B1213A479018B
:10493000741A02517C79FF851882851983AA82AB8B
:10494000831210F2E92274F71219237F00EF75F039
:1049500003A4F8A9F0EC28F8ED124979E06A700395
:10496000A3E06B7006E8FAE9FB800B0FEFC3940439
:1049700040DB7A007B00024CAE39F98882898322C1
:1049800074F71219237E00EE75F003A4F8A9F0EA7B
:1049900028F8EB124979E0F4FCA3E0F4FD88828961
:1049A00083ECF0A3EDF01249B5F4F00EEEC39404DD
:1049B00040D5024CAEE82402F582E93400F583E0EC
:1049C0002274EE12192374F41218CCEAFEEBFF8C59
:1049D0000A8D0B741E121917E0F50CA3E0F50D7487
:1049E00020121917E0F508A3E0F50974221219172F
:1049F000E0F510A3E0F511EE4F7005790A024AE6E2
:104A00001211EEE9F50EC3940A4023750F007C06DF
:104A100079FFE50F75F00EA4FAABF0749C2AFA74D6
:104A2000073BFB1249417003024AF0850F0EE50E69
:104A3000C3940A4003024AE475F006E50EA4F50F9C
:104A4000EEFCEFFD7A0E7420124B01E50A450B6077
:104A50000BAC0AAD0B7A1B7421124B01E50C450D12
:104A6000600BAC0CAD0D7A1B7422124B01E50845AE
:104A700009600BAC08AD097A107423124B01E510E4
:104A80004511601BAC10AD117A107424124B0174E7
:104A900024121917AC82AD837A047425124B017C61
:104AA0000C7D0079FF12520D7A0C7470250EF912EC
:104AB00013A475080E7509007808121B3AEEFCEF76
:104AC000FDE50E75F00EA4F8A9F0749C28FA7407A1
:104AD00039FB124B581218E2900828E060031212BA
:104AE00036121224A90E740C1218E27F0A0219F56C
:104AF000050FE50FC3940A5003024A0E750E0A8093
:104B0000E3250FF91213A42274F412192374F2127C
:104B100018CCEAFEEBFFE9C3940A5004EE4F700490
:104B20007902802D851882851983124C03F508704F
:104B30001E750A06750B00780A121B3A74021219C8
:104B400017AC82AD83EEFAEFFB124B581218E2A9B4
:104B50000802405BAA08AB0912107474022274F4B4
:104B6000121923EAFEEBFF750800750A06750B00A3
:104B7000780A121B3AEEFCEFFDE50875F00EA4F87A
:104B8000A9F0749C28FA740739FB1210867402127B
:104B900018E2E96004A908800B0508E508C3940A37
:104BA00040C8790A02406074F712192374F0121891
:104BB000CCEAFEEBFF750800851882851983AC826C
:104BC000AD837A1075F006E508A42423124C10700A
:104BD0001F7C101249357018EEFCEFFD8518828598
:104BE0001983AA82AB831205EEE97004A908800B31
:104BF0000508E508C3940A40BF790A74101218E248
:104C0000024CAEAC82AD837A0E75F006E9A4242086
:104C1000F91213AAE92274F7121923750800E5089E
:104C200075F00EA4F8A9F0749C28FE740739FFEE05
:104C3000FCEFFD7A0E75F006E508124C0D602C7C39
:104C4000067D0079FFEEFAEFFB12108C7C067D00EA
:104C500079FFEE2406FAEF3400FB12108CEE240CE0
:104C6000F582EF3400F583E4F0A3F00508E508C30E
:104C7000940A40AA900828E0600312123612122407
:104C8000802C74F71219237E007F007C0679FFEFD9
:104C900075F00EA4FAABF0749C2AFA74073BFB1271
:104CA000494170010E0FEFC3940A40DFEEF97F0116
:104CB0000219F574F71219237E00EEF912120C0E88
:104CC000EEC3940A5003E960F180E374F3121923F0
:104CD00074CB1218CCE9FF75F006A4F508742025F2
:104CE00008FE7427121917AC82AD837A0EEE124CAF
:104CF000106003024DCD7C0679FF7427121917123C
:104D0000493D6003024DCD7C0E7D0079FF74271272
:104D10001917AA82AB8312108C7C1B7D0079FF745B
:104D20000C121917AA82AB8312108C7C0C7D0079AF
:104D3000FF851882851983AA82AB8312108C742791
:104D4000121917AC82AD837A0EEEF91213A4E9F5AD
:104D500009740C121917AC82AD837A1B7421124DA1
:104D6000DCFE740C121917AC82AD837A1B7422120C
:104D70004DDCF50A740C121917AC82AD837A1074ED
:104D800023124DDCF50B740C121917AC82AD837A2B
:104D9000107424124DDCF50C740C121917AC82AD92
:104DA000837A047425124DDCF508851882851983F1
:104DB000AC82AD837A0C74702FF91213A4E9F8EE6B
:104DC000450A450B450C4508484209800375090012
:104DD000A90974351218E27F050219F52508F912A0
:104DE00013A4E92274F7121923E9900780F0121135
:104DF000FA024CAE74F212192374FB1218CC8A0812
:104E00008B09EB54807003024E98900780E0F912F2
:104E100010B68A0A8B0BA80AA90BE8FEE9FFE8493D
:104E2000606CEE2404F8EF3400F98E828F83E02466
:104E300050603814600624E1604A804B8882898380
:104E4000E070448E828F83A3A3A3A3A3A3A3121B0A
:104E5000558E828F831247898E828F83A3A3124F30
:104E6000A41211B874021218E2801C88828983E0AF
:104E7000641E701379008E828F83A3A3124FA41235
:104E800011B280031211C4EEFAEFFB1210A4AA08AB
:104E9000E5096480FB024F99EAA2E04003024F95C6
:104EA00090082A124781740312191785820C858392
:104EB0000D780C121B3A750C02750D00780C121B44
:104EC0003A750CDD750D90780C121B3A7CFF7DFF56
:104ED0007A017B0012073E74061218E2024F7DE44D
:104EE000F50CF50D780C121B3A7404121917858213
:104EF0000C85830D780C121B3A74041219178582E5
:104F00000C85830D780C121B3A7409121917121BA9
:104F1000557902EEFCEFFDAA0AAB0B12085E74088D
:104F20001218E2E97035851882851983E0FA740158
:104F3000121917E0F9EA2400F50CE439F50DEA45F9
:104F40000D6018780C121B3A8E828F8312478AAA42
:104F50000AAB0B1211B874021218E2E4F50CF50D4D
:104F6000780C121B3A7405121917121B557CFF7D21
:104F7000FFEEFAEFFB12074A74041218E28A0C8B58
:104F80000DAE0CAF0DEE4F6003024EDFE50864017D
:104F9000FAAB0980047A007B00740502517C850815
:104FA00082850983E0FAA3E0FB22C082C0839007D8
:104FB00080E0F98A828B83A3124FA4120870024307
:104FC000D6C082C08374FF1218CC121200E9C394B9
:104FD00002851882851983400474028002740AF0E5
:104FE000AC82AD837A0179051206FC74011218E2D5
:104FF0000243D674F212192374E81218CCEAFEEBBD
:10500000FF890A8C088D097C187D007900125215E1
:10501000EEF0A3EFF0900782E0C0E07402121917DF
:10502000D0E0F0900783E0C0E07403121917D0E0DD
:10503000F0900CA4E0C0E07417121917D0E0F074DF
:1050400015121917E054FEF8A3E0F9900CA3E0A2A2
:10505000E0E433FAE84AF8741512191712518BA2DA
:10506000E15004D2F08002C2F0E854FDFAA2F0E46C
:105070003333F8EA48F8741512191712518BA2E36A
:105080005004D2F08002C2F0E854F7FAA2F0E43300
:10509000F50C750D007403780C1218B912518412B6
:1050A000191712518BA2E45004D2F08002C2F0E82A
:1050B00054EFFAA2F0E433F50C7404780C1218B92A
:1050C00012518412191712518BA2E55004D2F080AC
:1050D00002C2F0E854DFFAA2F0E433F50C7405786C
:1050E0000C1218B912518412191712518BA2E250E6
:1050F00004D2F08002C2F0E854FBFAA2F0E433F5E7
:105100000C7402780C1218B9125184121917E8F0B5
:10511000A3E9F0900783E0601B750C10780C121B5C
:105120003A7C847D077406121917AA82AB83124B4E
:10513000581218E2900794E06011E50A60097415AE
:10514000121917E04402F0780180027800741412FA
:105150001917E048F0900781E06004780480027835
:10516000007414121917E048F0AC08AD09851882D4
:10517000851983AA82AB8312061274181218E27F73
:10518000060219F5EA450CF8741522E8F0A3E9F0D7
:10519000900CA3E02274F312192374E51218CCEAE0
:1051A000FEEBFF8C098D0A7428121917E0F50C75B7
:1051B000F006E9A4F87408650A7004742280027489
:1051C0002128F50B7C1B7D00790012520D7A1BA95A
:1051D0000B124C117032741A121917E024F9C3948F
:1051E0000A5025E50CF50B780B121B3E74011219C1
:1051F00017AC82AD83E509A2E0E433F9EEFAEFFBE8
:1052000012062474011218E2741B024DD4125215B6
:10521000AC82AD8322851882851983AA82AB831262
:10522000108C8518828519832274F71219231208AD
:10523000E2750800E50875F00EA4F8A9F0749C2842
:10524000FE740739FF7C0679FFEEFAEFFB12494145
:105250007009EEFAEFFB79001208E80508E508C3CB
:10526000940A40D0024CAEC082C083906190740416
:10527000F0A37448F0A3E4F09061807440F0906172
:10528000BC7407F09061877469F09061B67416F091
:105290007900120B647902120B6A9024A4E493F44F
:1052A0006006E493F9120B407905120E580256A9D4
:1052B000C082C083E9540FF9906185E0696012E50E
:1052C000C654804449F5C6E59E547F644970F8E9A8
:1052D000F053C680E59E547F70FA0256A974F71207
:1052E0001923E5A8FE53A87E120B4CC2BA539AFEAE
:1052F000C289759B00C2C2120B5275A91175B905FE
:10530000120B58D2BA439A0174805E42A8025C36EE
:10531000C082C083906181E4F0A30256A675E900C3
:1053200075910075BF00020122C082C08390618127
:10533000E4F0A374C0F0A3E40256A8C082C0837452
:10534000F81218CC9003C4125B18E849700302539A
:10535000F29003C4E05440602379088518828519CF
:1053600083AA82AB83120C5A851882851983AA827C
:10537000AB831209069003C4E054BFF0E054806090
:1053800010790C7A807B05120C5A9003C4E0547F8C
:10539000F0E0A2E0500879001253FA54FEF0E05415
:1053A00002600879011253FA54FDF0E054046008D9
:1053B000790012540554FBF0E0540860087901129A
:1053C000540554F7F0E05410600879021254055463
:1053D000EFF0E054206008790312540554DFF0A385
:1053E000E05401600D120B761209189003C5E054C9
:1053F000FEF074081218E20256A9120B6412090C8E
:105400009003C4E022120B6A1209129003C4E02236
:10541000C082C083E9600514602A804F90619A744D
:1054200033F0A37455F09061A0743AF090055CE0FD
:1054300064017009C2919003C67467802D9003C601
:105440007461802690619A743FF0A3745AF0906161
:10545000A0747FF090055CE064017009D291900324
:10546000C6747180059003C6746AF00256A9C082A2
:10547000C083E9600B14600D14600F14601180206C
:105480009024A880159024A980109024AA800B90C5
:10549000055CE0640160F39024ABE493906186F0D6
:1054A0000256A974EE12192374F41218CC851882CE
:1054B000851983AC82AD8375839075829D740412C7
:1054C00017DF9024A893F46003025635907808E023
:1054D000C3940250030256157404121917AC82AD1E
:1054E0008375838F7582EE74081217DFF97AFF7B5C
:1054F000FF7FFF7E008982858210801874086E709D
:10550000030255CA74096E70030255CA740A6E709C
:10551000030255CAE510C333FCE433FD74041219C9
:1055200017E5822CF582E5833DF583E0F50EA3E0D7
:10553000F50F8E08750900740278081218B97448BE
:105540002508FC74783509FD8C828D837808121744
:105550009C740878081216DD85080C85090D8C826C
:105560008D83780812179C741878081216DDE50CE4
:105570004508F508E50DF509C3E50E9508E50F9515
:10558000098C828D83780812179C8C828D83780811
:1055900012179C7418780840141216DDE50C4508A3
:1055A000FCAD0DE50EC39CFCE50F9D800F1216DDD2
:1055B000E50C4508C3950EFCE50D950FFDC3EC9A6F
:1055C000ED9B5006ECFAEDFBEEFF0EEEC39413508C
:1055D000030254FC74FF6A700374FF6B602D8F0824
:1055E000740278081218B974481262C474783509C4
:1055F000F583780812179C851882851983E5822522
:1056000010F582E583126051E508F009E9C39404BE
:1056100050030254ED7508017509007808121B3A11
:105620007402121917AC82AD837A2A7B09121272A6
:1056300074021218E2740C1218E27F0A0219F5C003
:1056400082C083906186E0F89024ABE4936870098F
:105650009024AAE493906186F09061AE7468F0A300
:10566000746AF090624574FBF0A304F053F4FD43B8
:10567000FE0290055C7401F09061A0E0643A700451
:10568000790080027901120B640256A9C082C0839E
:1056900090050EE06401700A900513E06004790C37
:1056A000800279008003F0A3F0D083D0820201222F
:1056B000C082C08375E1F1900511E0604D1460086F
:1056C0001460511460498051120B88900507E0F96D
:1056D0007A087B05120DDA9090891217BA120E1013
:1056E00090904D1217BA120DE6900512E0F9120DC6
:1056F000F27901120E4C900505E0241612583E7402
:10570000A0F0A3740BF07900809F120B8E80BC1266
:105710000B9480B7120B9A80B2791280EB74F4125A
:10572000192375D90D9004F6E0A2E0E4331313F8C1
:105730001257AA484401F5D9780012582840FB783E
:1057400000880874F71262C4740412583240F2756B
:10575000E1959004F6E0F97AF77B04120DE0900BE6
:10576000D57416F0A3740B12584D12586D1258646C
:105770001259A51257B4780812179C9090497808CE
:1057800012172890906978081217761258387808FE
:105790001217AB900505E0241412583E7413F090D4
:1057A00003C27402F07F040219F5900507E0C433C8
:1057B0003354C022900505E0F8A3E0F5838882A366
:1057C000A32274F61219231259768AD97800125836
:1057D0002840FB780080061258DC125A28E8C3994A
:1057E00040F512596812582840FB78008008126270
:1057F000C07405125A28E8C39940F375E195900BDF
:10580000D57422F0A3740B12584D1258571217BAC0
:105810001258381217C6900505E0241412583E7429
:1058200012F09003C2025C13880874082508F58200
:105830007405125B84940622900505E0240EF8A3FB
:10584000E0125845223400F9888289832212598E49
:10585000741CF0A3740B2212586D1258641259A9CB
:105860009090AD22F0A37434F0A3740B22125871FF
:105870002212587522F0A374C6F0A3740C2274F699
:105880001219231258D11257AA4402F5D9780012DE
:10589000582840FB780080061258DC125A28E8C3CA
:1058A0009940F575E195900BD51258E7F0A3125881
:1058B000E712585A1217BA1258381217C69005052F
:1058C000E0241412583E7414F09003C27404025C75
:1058D00015900517E0F9740729F5D922880874187E
:1058E0002508F582740522742E1258F41258F4F02B
:1058F000A3740B22F0A3740BF0A3742E2274F6127F
:10590000192312597674064AF5D97800125828409E
:10591000FB780080061258DC125A28E8C39940F53B
:1059200012596812582840FB780080081262C0742F
:1059300005125A28E8C39940F375E195900BD57488
:1059400028F0A3740B1259841258571217BA125820
:10595000381217C6900505E0241412583E7415F04D
:105960009003C27403025C159005371258D4740476
:105970004AF5D97800221258D1900507E0C4333394
:1059800054C0FA2212598E74C6F0A3740C22125914
:10599000922212599F74C6F0A3740C12599F2212BE
:1059A0005875F0A3221259A922F0900BE374C6F0A7
:1059B000A3740C12599274C6F0A3740C125871F0AF
:1059C00022C082C0831257B4A3A3A3A3E40256A6A5
:1059D00074F7121923126506F8740339F9E82405DF
:1059E000FAE93400FB8A828B83126275888289838C
:1059F000A3A3A3A3A3A3A3A3A3ECF0A3EDF0888286
:105A00008983A3A3A3A3A3A3A3E024FFF8A3E03463
:105A1000FFF98A828B83E8F0A3E9F0025C368808FC
:105A200074602508F582740512619CF5D90822EA94
:105A3000FEEBFF9061D0E0F87480C398FAEE248307
:105A400022125A4794042212605FE0F5D90AEAC391
:105A50002274F6121923EAFEEBFF9061D0E0707514
:105A600075D90E75D90375D9047A008A08EE250810
:105A70001265D4248C125AEA40F17A008A08EE2585
:105A8000081265D42484125A4140F175E1957908D1
:105A9000EE248C125AE32484125ADA7C008C82AAF7
:105AA00082C3E49AF895E0F9EE28F8EF39F9E82492
:105AB0008BF582E9126198C0E0EE2A1265D424AB1E
:105AC000F582E9126051D0E0F00CECC3940840CDAF
:105AD000125BA080027900025C16FAEF3400FB1220
:105AE0000C4E22125ADA7904EE22125A47940822F6
:105AF000C082C08375D90275D90375D90575E19542
:105B0000EA2470F582EB125B15EA2472F582EB123F
:105B10005BB20256A9126062125B1C22E0F8A3E09D
:105B2000F92274F6121923EAFEEBFF900560740661
